
uartDMA.elf:     file format elf32-littlearm

Sections:
Idx Name          Size      VMA       LMA       File off  Algn
  0 .isr_vector   00000188  08000000  08000000  00010000  2**0
                  CONTENTS, ALLOC, LOAD, READONLY, DATA
  1 .text         00003020  08000188  08000188  00010188  2**2
                  CONTENTS, ALLOC, LOAD, READONLY, CODE
  2 .rodata       00000038  080031a8  080031a8  000131a8  2**2
                  CONTENTS, ALLOC, LOAD, READONLY, DATA
  3 .ARM.extab    00000000  080031e0  080031e0  0002000c  2**0
                  CONTENTS
  4 .ARM          00000000  080031e0  080031e0  0002000c  2**0
                  CONTENTS
  5 .preinit_array 00000000  080031e0  080031e0  0002000c  2**0
                  CONTENTS, ALLOC, LOAD, DATA
  6 .init_array   00000004  080031e0  080031e0  000131e0  2**2
                  CONTENTS, ALLOC, LOAD, DATA
  7 .fini_array   00000004  080031e4  080031e4  000131e4  2**2
                  CONTENTS, ALLOC, LOAD, DATA
  8 .data         0000000c  20000000  080031e8  00020000  2**2
                  CONTENTS, ALLOC, LOAD, DATA
  9 .ccmram       00000000  10000000  10000000  0002000c  2**0
                  CONTENTS
 10 .bss          00000138  2000000c  2000000c  0002000c  2**2
                  ALLOC
 11 ._user_heap_stack 00000604  20000144  20000144  0002000c  2**0
                  ALLOC
 12 .ARM.attributes 00000030  00000000  00000000  0002000c  2**0
                  CONTENTS, READONLY
 13 .comment      00000043  00000000  00000000  0002003c  2**0
                  CONTENTS, READONLY
 14 .debug_info   00008ae6  00000000  00000000  0002007f  2**0
                  CONTENTS, READONLY, DEBUGGING, OCTETS
 15 .debug_abbrev 000015a0  00000000  00000000  00028b65  2**0
                  CONTENTS, READONLY, DEBUGGING, OCTETS
 16 .debug_aranges 000006b0  00000000  00000000  0002a108  2**3
                  CONTENTS, READONLY, DEBUGGING, OCTETS
 17 .debug_rnglists 0000051f  00000000  00000000  0002a7b8  2**0
                  CONTENTS, READONLY, DEBUGGING, OCTETS
 18 .debug_macro  00019880  00000000  00000000  0002acd7  2**0
                  CONTENTS, READONLY, DEBUGGING, OCTETS
 19 .debug_line   00009223  00000000  00000000  00044557  2**0
                  CONTENTS, READONLY, DEBUGGING, OCTETS
 20 .debug_str    00096d30  00000000  00000000  0004d77a  2**0
                  CONTENTS, READONLY, DEBUGGING, OCTETS
 21 .debug_frame  00001a1c  00000000  00000000  000e44ac  2**2
                  CONTENTS, READONLY, DEBUGGING, OCTETS
 22 .debug_line_str 0000008a  00000000  00000000  000e5ec8  2**0
                  CONTENTS, READONLY, DEBUGGING, OCTETS

Disassembly of section .text:

08000188 <__do_global_dtors_aux>:
 8000188:	b510      	push	{r4, lr}
 800018a:	4c05      	ldr	r4, [pc, #20]	; (80001a0 <__do_global_dtors_aux+0x18>)
 800018c:	7823      	ldrb	r3, [r4, #0]
 800018e:	b933      	cbnz	r3, 800019e <__do_global_dtors_aux+0x16>
 8000190:	4b04      	ldr	r3, [pc, #16]	; (80001a4 <__do_global_dtors_aux+0x1c>)
 8000192:	b113      	cbz	r3, 800019a <__do_global_dtors_aux+0x12>
 8000194:	4804      	ldr	r0, [pc, #16]	; (80001a8 <__do_global_dtors_aux+0x20>)
 8000196:	f3af 8000 	nop.w
 800019a:	2301      	movs	r3, #1
 800019c:	7023      	strb	r3, [r4, #0]
 800019e:	bd10      	pop	{r4, pc}
 80001a0:	2000000c 	.word	0x2000000c
 80001a4:	00000000 	.word	0x00000000
 80001a8:	08003190 	.word	0x08003190

080001ac <frame_dummy>:
 80001ac:	b508      	push	{r3, lr}
 80001ae:	4b03      	ldr	r3, [pc, #12]	; (80001bc <frame_dummy+0x10>)
 80001b0:	b11b      	cbz	r3, 80001ba <frame_dummy+0xe>
 80001b2:	4903      	ldr	r1, [pc, #12]	; (80001c0 <frame_dummy+0x14>)
 80001b4:	4803      	ldr	r0, [pc, #12]	; (80001c4 <frame_dummy+0x18>)
 80001b6:	f3af 8000 	nop.w
 80001ba:	bd08      	pop	{r3, pc}
 80001bc:	00000000 	.word	0x00000000
 80001c0:	20000010 	.word	0x20000010
 80001c4:	08003190 	.word	0x08003190

080001c8 <main>:
/**
  * @brief  The application entry point.
  * @retval int
  */
int main(void)
{
 80001c8:	b580      	push	{r7, lr}
 80001ca:	af00      	add	r7, sp, #0
  /* USER CODE END 1 */

  /* MCU Configuration--------------------------------------------------------*/

  /* Reset of all peripherals, Initializes the Flash interface and the Systick. */
  HAL_Init();
 80001cc:	f000 fa22 	bl	8000614 <HAL_Init>
  /* USER CODE BEGIN Init */

  /* USER CODE END Init */

  /* Configure the system clock */
  SystemClock_Config();
 80001d0:	f000 f810 	bl	80001f4 <SystemClock_Config>
  /* USER CODE BEGIN SysInit */

  /* USER CODE END SysInit */

  /* Initialize all configured peripherals */
  MX_GPIO_Init();
 80001d4:	f000 f8a0 	bl	8000318 <MX_GPIO_Init>
  MX_DMA_Init();
 80001d8:	f000 f878 	bl	80002cc <MX_DMA_Init>
  MX_USART2_UART_Init();
 80001dc:	f000 f846 	bl	800026c <MX_USART2_UART_Init>
  /* USER CODE BEGIN 2 */
  // Iniciar la recepción usando DMA
  HAL_UART_Receive_DMA(&huart2, rx_data, 8);
 80001e0:	2208      	movs	r2, #8
 80001e2:	4902      	ldr	r1, [pc, #8]	; (80001ec <main+0x24>)
 80001e4:	4802      	ldr	r0, [pc, #8]	; (80001f0 <main+0x28>)
 80001e6:	f002 f9d3 	bl	8002590 <HAL_UART_Receive_DMA>
  /* USER CODE END 2 */

  /* Infinite loop */
  /* USER CODE BEGIN WHILE */
  while (1)
 80001ea:	e7fe      	b.n	80001ea <main+0x22>
 80001ec:	20000138 	.word	0x20000138
 80001f0:	20000028 	.word	0x20000028

080001f4 <SystemClock_Config>:
/**
  * @brief System Clock Configuration
  * @retval None
  */
void SystemClock_Config(void)
{
 80001f4:	b580      	push	{r7, lr}
 80001f6:	b090      	sub	sp, #64	; 0x40
 80001f8:	af00      	add	r7, sp, #0
  RCC_OscInitTypeDef RCC_OscInitStruct = {0};
 80001fa:	f107 0318 	add.w	r3, r7, #24
 80001fe:	2228      	movs	r2, #40	; 0x28
 8000200:	2100      	movs	r1, #0
 8000202:	4618      	mov	r0, r3
 8000204:	f002 ff97 	bl	8003136 <memset>
  RCC_ClkInitTypeDef RCC_ClkInitStruct = {0};
 8000208:	1d3b      	adds	r3, r7, #4
 800020a:	2200      	movs	r2, #0
 800020c:	601a      	str	r2, [r3, #0]
 800020e:	605a      	str	r2, [r3, #4]
 8000210:	609a      	str	r2, [r3, #8]
 8000212:	60da      	str	r2, [r3, #12]
 8000214:	611a      	str	r2, [r3, #16]

  /** Initializes the RCC Oscillators according to the specified parameters
  * in the RCC_OscInitTypeDef structure.
  */
  RCC_OscInitStruct.OscillatorType = RCC_OSCILLATORTYPE_HSI;
 8000216:	2302      	movs	r3, #2
 8000218:	61bb      	str	r3, [r7, #24]
  RCC_OscInitStruct.HSIState = RCC_HSI_ON;
 800021a:	2301      	movs	r3, #1
 800021c:	62bb      	str	r3, [r7, #40]	; 0x28
  RCC_OscInitStruct.HSICalibrationValue = RCC_HSICALIBRATION_DEFAULT;
 800021e:	2310      	movs	r3, #16
 8000220:	62fb      	str	r3, [r7, #44]	; 0x2c
  RCC_OscInitStruct.PLL.PLLState = RCC_PLL_NONE;
 8000222:	2300      	movs	r3, #0
 8000224:	637b      	str	r3, [r7, #52]	; 0x34
  if (HAL_RCC_OscConfig(&RCC_OscInitStruct) != HAL_OK)
 8000226:	f107 0318 	add.w	r3, r7, #24
 800022a:	4618      	mov	r0, r3
 800022c:	f000 fe72 	bl	8000f14 <HAL_RCC_OscConfig>
 8000230:	4603      	mov	r3, r0
 8000232:	2b00      	cmp	r3, #0
 8000234:	d001      	beq.n	800023a <SystemClock_Config+0x46>
  {
    Error_Handler();
 8000236:	f000 f8b1 	bl	800039c <Error_Handler>
  }

  /** Initializes the CPU, AHB and APB buses clocks
  */
  RCC_ClkInitStruct.ClockType = RCC_CLOCKTYPE_HCLK|RCC_CLOCKTYPE_SYSCLK
 800023a:	230f      	movs	r3, #15
 800023c:	607b      	str	r3, [r7, #4]
                              |RCC_CLOCKTYPE_PCLK1|RCC_CLOCKTYPE_PCLK2;
  RCC_ClkInitStruct.SYSCLKSource = RCC_SYSCLKSOURCE_HSI;
 800023e:	2300      	movs	r3, #0
 8000240:	60bb      	str	r3, [r7, #8]
  RCC_ClkInitStruct.AHBCLKDivider = RCC_SYSCLK_DIV1;
 8000242:	2300      	movs	r3, #0
 8000244:	60fb      	str	r3, [r7, #12]
  RCC_ClkInitStruct.APB1CLKDivider = RCC_HCLK_DIV1;
 8000246:	2300      	movs	r3, #0
 8000248:	613b      	str	r3, [r7, #16]
  RCC_ClkInitStruct.APB2CLKDivider = RCC_HCLK_DIV1;
 800024a:	2300      	movs	r3, #0
 800024c:	617b      	str	r3, [r7, #20]

  if (HAL_RCC_ClockConfig(&RCC_ClkInitStruct, FLASH_LATENCY_0) != HAL_OK)
 800024e:	1d3b      	adds	r3, r7, #4
 8000250:	2100      	movs	r1, #0
 8000252:	4618      	mov	r0, r3
 8000254:	f001 fe9c 	bl	8001f90 <HAL_RCC_ClockConfig>
 8000258:	4603      	mov	r3, r0
 800025a:	2b00      	cmp	r3, #0
 800025c:	d001      	beq.n	8000262 <SystemClock_Config+0x6e>
  {
    Error_Handler();
 800025e:	f000 f89d 	bl	800039c <Error_Handler>
  }
}
 8000262:	bf00      	nop
 8000264:	3740      	adds	r7, #64	; 0x40
 8000266:	46bd      	mov	sp, r7
 8000268:	bd80      	pop	{r7, pc}
	...

0800026c <MX_USART2_UART_Init>:
  * @brief USART2 Initialization Function
  * @param None
  * @retval None
  */
static void MX_USART2_UART_Init(void)
{
 800026c:	b580      	push	{r7, lr}
 800026e:	af00      	add	r7, sp, #0
  /* USER CODE END USART2_Init 0 */

  /* USER CODE BEGIN USART2_Init 1 */

  /* USER CODE END USART2_Init 1 */
  huart2.Instance = USART2;
 8000270:	4b14      	ldr	r3, [pc, #80]	; (80002c4 <MX_USART2_UART_Init+0x58>)
 8000272:	4a15      	ldr	r2, [pc, #84]	; (80002c8 <MX_USART2_UART_Init+0x5c>)
 8000274:	601a      	str	r2, [r3, #0]
  huart2.Init.BaudRate = 38400;
 8000276:	4b13      	ldr	r3, [pc, #76]	; (80002c4 <MX_USART2_UART_Init+0x58>)
 8000278:	f44f 4216 	mov.w	r2, #38400	; 0x9600
 800027c:	605a      	str	r2, [r3, #4]
  huart2.Init.WordLength = UART_WORDLENGTH_8B;
 800027e:	4b11      	ldr	r3, [pc, #68]	; (80002c4 <MX_USART2_UART_Init+0x58>)
 8000280:	2200      	movs	r2, #0
 8000282:	609a      	str	r2, [r3, #8]
  huart2.Init.StopBits = UART_STOPBITS_1;
 8000284:	4b0f      	ldr	r3, [pc, #60]	; (80002c4 <MX_USART2_UART_Init+0x58>)
 8000286:	2200      	movs	r2, #0
 8000288:	60da      	str	r2, [r3, #12]
  huart2.Init.Parity = UART_PARITY_NONE;
 800028a:	4b0e      	ldr	r3, [pc, #56]	; (80002c4 <MX_USART2_UART_Init+0x58>)
 800028c:	2200      	movs	r2, #0
 800028e:	611a      	str	r2, [r3, #16]
  huart2.Init.Mode = UART_MODE_TX_RX;
 8000290:	4b0c      	ldr	r3, [pc, #48]	; (80002c4 <MX_USART2_UART_Init+0x58>)
 8000292:	220c      	movs	r2, #12
 8000294:	615a      	str	r2, [r3, #20]
  huart2.Init.HwFlowCtl = UART_HWCONTROL_NONE;
 8000296:	4b0b      	ldr	r3, [pc, #44]	; (80002c4 <MX_USART2_UART_Init+0x58>)
 8000298:	2200      	movs	r2, #0
 800029a:	619a      	str	r2, [r3, #24]
  huart2.Init.OverSampling = UART_OVERSAMPLING_16;
 800029c:	4b09      	ldr	r3, [pc, #36]	; (80002c4 <MX_USART2_UART_Init+0x58>)
 800029e:	2200      	movs	r2, #0
 80002a0:	61da      	str	r2, [r3, #28]
  huart2.Init.OneBitSampling = UART_ONE_BIT_SAMPLE_DISABLE;
 80002a2:	4b08      	ldr	r3, [pc, #32]	; (80002c4 <MX_USART2_UART_Init+0x58>)
 80002a4:	2200      	movs	r2, #0
 80002a6:	621a      	str	r2, [r3, #32]
  huart2.AdvancedInit.AdvFeatureInit = UART_ADVFEATURE_NO_INIT;
 80002a8:	4b06      	ldr	r3, [pc, #24]	; (80002c4 <MX_USART2_UART_Init+0x58>)
 80002aa:	2200      	movs	r2, #0
 80002ac:	625a      	str	r2, [r3, #36]	; 0x24
  if (HAL_UART_Init(&huart2) != HAL_OK)
 80002ae:	4805      	ldr	r0, [pc, #20]	; (80002c4 <MX_USART2_UART_Init+0x58>)
 80002b0:	f002 f8a4 	bl	80023fc <HAL_UART_Init>
 80002b4:	4603      	mov	r3, r0
 80002b6:	2b00      	cmp	r3, #0
 80002b8:	d001      	beq.n	80002be <MX_USART2_UART_Init+0x52>
  {
    Error_Handler();
 80002ba:	f000 f86f 	bl	800039c <Error_Handler>
  }
  /* USER CODE BEGIN USART2_Init 2 */

  /* USER CODE END USART2_Init 2 */

}
 80002be:	bf00      	nop
 80002c0:	bd80      	pop	{r7, pc}
 80002c2:	bf00      	nop
 80002c4:	20000028 	.word	0x20000028
 80002c8:	40004400 	.word	0x40004400

080002cc <MX_DMA_Init>:

/**
  * Enable DMA controller clock
  */
static void MX_DMA_Init(void)
{
 80002cc:	b580      	push	{r7, lr}
 80002ce:	b082      	sub	sp, #8
 80002d0:	af00      	add	r7, sp, #0

  /* DMA controller clock enable */
  __HAL_RCC_DMA1_CLK_ENABLE();
 80002d2:	4b10      	ldr	r3, [pc, #64]	; (8000314 <MX_DMA_Init+0x48>)
 80002d4:	695b      	ldr	r3, [r3, #20]
 80002d6:	4a0f      	ldr	r2, [pc, #60]	; (8000314 <MX_DMA_Init+0x48>)
 80002d8:	f043 0301 	orr.w	r3, r3, #1
 80002dc:	6153      	str	r3, [r2, #20]
 80002de:	4b0d      	ldr	r3, [pc, #52]	; (8000314 <MX_DMA_Init+0x48>)
 80002e0:	695b      	ldr	r3, [r3, #20]
 80002e2:	f003 0301 	and.w	r3, r3, #1
 80002e6:	607b      	str	r3, [r7, #4]
 80002e8:	687b      	ldr	r3, [r7, #4]

  /* DMA interrupt init */
  /* DMA1_Channel6_IRQn interrupt configuration */
  HAL_NVIC_SetPriority(DMA1_Channel6_IRQn, 0, 0);
 80002ea:	2200      	movs	r2, #0
 80002ec:	2100      	movs	r1, #0
 80002ee:	2010      	movs	r0, #16
 80002f0:	f000 fad1 	bl	8000896 <HAL_NVIC_SetPriority>
  HAL_NVIC_EnableIRQ(DMA1_Channel6_IRQn);
 80002f4:	2010      	movs	r0, #16
 80002f6:	f000 faea 	bl	80008ce <HAL_NVIC_EnableIRQ>
  /* DMA1_Channel7_IRQn interrupt configuration */
  HAL_NVIC_SetPriority(DMA1_Channel7_IRQn, 0, 0);
 80002fa:	2200      	movs	r2, #0
 80002fc:	2100      	movs	r1, #0
 80002fe:	2011      	movs	r0, #17
 8000300:	f000 fac9 	bl	8000896 <HAL_NVIC_SetPriority>
  HAL_NVIC_EnableIRQ(DMA1_Channel7_IRQn);
 8000304:	2011      	movs	r0, #17
 8000306:	f000 fae2 	bl	80008ce <HAL_NVIC_EnableIRQ>

}
 800030a:	bf00      	nop
 800030c:	3708      	adds	r7, #8
 800030e:	46bd      	mov	sp, r7
 8000310:	bd80      	pop	{r7, pc}
 8000312:	bf00      	nop
 8000314:	40021000 	.word	0x40021000

08000318 <MX_GPIO_Init>:
  * @brief GPIO Initialization Function
  * @param None
  * @retval None
  */
static void MX_GPIO_Init(void)
{
 8000318:	b480      	push	{r7}
 800031a:	b083      	sub	sp, #12
 800031c:	af00      	add	r7, sp, #0
/* USER CODE BEGIN MX_GPIO_Init_1 */
/* USER CODE END MX_GPIO_Init_1 */

  /* GPIO Ports Clock Enable */
  __HAL_RCC_GPIOF_CLK_ENABLE();
 800031e:	4b0f      	ldr	r3, [pc, #60]	; (800035c <MX_GPIO_Init+0x44>)
 8000320:	695b      	ldr	r3, [r3, #20]
 8000322:	4a0e      	ldr	r2, [pc, #56]	; (800035c <MX_GPIO_Init+0x44>)
 8000324:	f443 0380 	orr.w	r3, r3, #4194304	; 0x400000
 8000328:	6153      	str	r3, [r2, #20]
 800032a:	4b0c      	ldr	r3, [pc, #48]	; (800035c <MX_GPIO_Init+0x44>)
 800032c:	695b      	ldr	r3, [r3, #20]
 800032e:	f403 0380 	and.w	r3, r3, #4194304	; 0x400000
 8000332:	607b      	str	r3, [r7, #4]
 8000334:	687b      	ldr	r3, [r7, #4]
  __HAL_RCC_GPIOA_CLK_ENABLE();
 8000336:	4b09      	ldr	r3, [pc, #36]	; (800035c <MX_GPIO_Init+0x44>)
 8000338:	695b      	ldr	r3, [r3, #20]
 800033a:	4a08      	ldr	r2, [pc, #32]	; (800035c <MX_GPIO_Init+0x44>)
 800033c:	f443 3300 	orr.w	r3, r3, #131072	; 0x20000
 8000340:	6153      	str	r3, [r2, #20]
 8000342:	4b06      	ldr	r3, [pc, #24]	; (800035c <MX_GPIO_Init+0x44>)
 8000344:	695b      	ldr	r3, [r3, #20]
 8000346:	f403 3300 	and.w	r3, r3, #131072	; 0x20000
 800034a:	603b      	str	r3, [r7, #0]
 800034c:	683b      	ldr	r3, [r7, #0]

/* USER CODE BEGIN MX_GPIO_Init_2 */
/* USER CODE END MX_GPIO_Init_2 */
}
 800034e:	bf00      	nop
 8000350:	370c      	adds	r7, #12
 8000352:	46bd      	mov	sp, r7
 8000354:	f85d 7b04 	ldr.w	r7, [sp], #4
 8000358:	4770      	bx	lr
 800035a:	bf00      	nop
 800035c:	40021000 	.word	0x40021000

08000360 <HAL_UART_RxCpltCallback>:

/* USER CODE BEGIN 4 */
void HAL_UART_RxCpltCallback(UART_HandleTypeDef *huart) {
 8000360:	b580      	push	{r7, lr}
 8000362:	b082      	sub	sp, #8
 8000364:	af00      	add	r7, sp, #0
 8000366:	6078      	str	r0, [r7, #4]
    if (huart->Instance == USART2) {
 8000368:	687b      	ldr	r3, [r7, #4]
 800036a:	681b      	ldr	r3, [r3, #0]
 800036c:	4a08      	ldr	r2, [pc, #32]	; (8000390 <HAL_UART_RxCpltCallback+0x30>)
 800036e:	4293      	cmp	r3, r2
 8000370:	d109      	bne.n	8000386 <HAL_UART_RxCpltCallback+0x26>
        // Transmitir los datos recibidos de vuelta usando DMA
        HAL_UART_Transmit_DMA(&huart2, rx_data, 8);
 8000372:	2208      	movs	r2, #8
 8000374:	4907      	ldr	r1, [pc, #28]	; (8000394 <HAL_UART_RxCpltCallback+0x34>)
 8000376:	4808      	ldr	r0, [pc, #32]	; (8000398 <HAL_UART_RxCpltCallback+0x38>)
 8000378:	f002 f88e 	bl	8002498 <HAL_UART_Transmit_DMA>

        // Reiniciar la recepción usando DMA
        HAL_UART_Receive_DMA(&huart2, rx_data, 8);
 800037c:	2208      	movs	r2, #8
 800037e:	4905      	ldr	r1, [pc, #20]	; (8000394 <HAL_UART_RxCpltCallback+0x34>)
 8000380:	4805      	ldr	r0, [pc, #20]	; (8000398 <HAL_UART_RxCpltCallback+0x38>)
 8000382:	f002 f905 	bl	8002590 <HAL_UART_Receive_DMA>
    }
}
 8000386:	bf00      	nop
 8000388:	3708      	adds	r7, #8
 800038a:	46bd      	mov	sp, r7
 800038c:	bd80      	pop	{r7, pc}
 800038e:	bf00      	nop
 8000390:	40004400 	.word	0x40004400
 8000394:	20000138 	.word	0x20000138
 8000398:	20000028 	.word	0x20000028

0800039c <Error_Handler>:
/**
  * @brief  This function is executed in case of error occurrence.
  * @retval None
  */
void Error_Handler(void)
{
 800039c:	b480      	push	{r7}
 800039e:	af00      	add	r7, sp, #0
  \details Disables IRQ interrupts by setting the I-bit in the CPSR.
           Can only be executed in Privileged modes.
 */
__STATIC_FORCEINLINE void __disable_irq(void)
{
  __ASM volatile ("cpsid i" : : : "memory");
 80003a0:	b672      	cpsid	i
}
 80003a2:	bf00      	nop
  /* USER CODE BEGIN Error_Handler_Debug */
  /* User can add his own implementation to report the HAL error return state */
  __disable_irq();
  while (1)
 80003a4:	e7fe      	b.n	80003a4 <Error_Handler+0x8>
	...

080003a8 <HAL_MspInit>:
/* USER CODE END 0 */
/**
  * Initializes the Global MSP.
  */
void HAL_MspInit(void)
{
 80003a8:	b480      	push	{r7}
 80003aa:	b083      	sub	sp, #12
 80003ac:	af00      	add	r7, sp, #0
  /* USER CODE BEGIN MspInit 0 */

  /* USER CODE END MspInit 0 */

  __HAL_RCC_SYSCFG_CLK_ENABLE();
 80003ae:	4b0f      	ldr	r3, [pc, #60]	; (80003ec <HAL_MspInit+0x44>)
 80003b0:	699b      	ldr	r3, [r3, #24]
 80003b2:	4a0e      	ldr	r2, [pc, #56]	; (80003ec <HAL_MspInit+0x44>)
 80003b4:	f043 0301 	orr.w	r3, r3, #1
 80003b8:	6193      	str	r3, [r2, #24]
 80003ba:	4b0c      	ldr	r3, [pc, #48]	; (80003ec <HAL_MspInit+0x44>)
 80003bc:	699b      	ldr	r3, [r3, #24]
 80003be:	f003 0301 	and.w	r3, r3, #1
 80003c2:	607b      	str	r3, [r7, #4]
 80003c4:	687b      	ldr	r3, [r7, #4]
  __HAL_RCC_PWR_CLK_ENABLE();
 80003c6:	4b09      	ldr	r3, [pc, #36]	; (80003ec <HAL_MspInit+0x44>)
 80003c8:	69db      	ldr	r3, [r3, #28]
 80003ca:	4a08      	ldr	r2, [pc, #32]	; (80003ec <HAL_MspInit+0x44>)
 80003cc:	f043 5380 	orr.w	r3, r3, #268435456	; 0x10000000
 80003d0:	61d3      	str	r3, [r2, #28]
 80003d2:	4b06      	ldr	r3, [pc, #24]	; (80003ec <HAL_MspInit+0x44>)
 80003d4:	69db      	ldr	r3, [r3, #28]
 80003d6:	f003 5380 	and.w	r3, r3, #268435456	; 0x10000000
 80003da:	603b      	str	r3, [r7, #0]
 80003dc:	683b      	ldr	r3, [r7, #0]
  /* System interrupt init*/

  /* USER CODE BEGIN MspInit 1 */

  /* USER CODE END MspInit 1 */
}
 80003de:	bf00      	nop
 80003e0:	370c      	adds	r7, #12
 80003e2:	46bd      	mov	sp, r7
 80003e4:	f85d 7b04 	ldr.w	r7, [sp], #4
 80003e8:	4770      	bx	lr
 80003ea:	bf00      	nop
 80003ec:	40021000 	.word	0x40021000

080003f0 <HAL_UART_MspInit>:
* This function configures the hardware resources used in this example
* @param huart: UART handle pointer
* @retval None
*/
void HAL_UART_MspInit(UART_HandleTypeDef* huart)
{
 80003f0:	b580      	push	{r7, lr}
 80003f2:	b08a      	sub	sp, #40	; 0x28
 80003f4:	af00      	add	r7, sp, #0
 80003f6:	6078      	str	r0, [r7, #4]
  GPIO_InitTypeDef GPIO_InitStruct = {0};
 80003f8:	f107 0314 	add.w	r3, r7, #20
 80003fc:	2200      	movs	r2, #0
 80003fe:	601a      	str	r2, [r3, #0]
 8000400:	605a      	str	r2, [r3, #4]
 8000402:	609a      	str	r2, [r3, #8]
 8000404:	60da      	str	r2, [r3, #12]
 8000406:	611a      	str	r2, [r3, #16]
  if(huart->Instance==USART2)
 8000408:	687b      	ldr	r3, [r7, #4]
 800040a:	681b      	ldr	r3, [r3, #0]
 800040c:	4a3e      	ldr	r2, [pc, #248]	; (8000508 <HAL_UART_MspInit+0x118>)
 800040e:	4293      	cmp	r3, r2
 8000410:	d175      	bne.n	80004fe <HAL_UART_MspInit+0x10e>
  {
  /* USER CODE BEGIN USART2_MspInit 0 */

  /* USER CODE END USART2_MspInit 0 */
    /* Peripheral clock enable */
    __HAL_RCC_USART2_CLK_ENABLE();
 8000412:	4b3e      	ldr	r3, [pc, #248]	; (800050c <HAL_UART_MspInit+0x11c>)
 8000414:	69db      	ldr	r3, [r3, #28]
 8000416:	4a3d      	ldr	r2, [pc, #244]	; (800050c <HAL_UART_MspInit+0x11c>)
 8000418:	f443 3300 	orr.w	r3, r3, #131072	; 0x20000
 800041c:	61d3      	str	r3, [r2, #28]
 800041e:	4b3b      	ldr	r3, [pc, #236]	; (800050c <HAL_UART_MspInit+0x11c>)
 8000420:	69db      	ldr	r3, [r3, #28]
 8000422:	f403 3300 	and.w	r3, r3, #131072	; 0x20000
 8000426:	613b      	str	r3, [r7, #16]
 8000428:	693b      	ldr	r3, [r7, #16]

    __HAL_RCC_GPIOA_CLK_ENABLE();
 800042a:	4b38      	ldr	r3, [pc, #224]	; (800050c <HAL_UART_MspInit+0x11c>)
 800042c:	695b      	ldr	r3, [r3, #20]
 800042e:	4a37      	ldr	r2, [pc, #220]	; (800050c <HAL_UART_MspInit+0x11c>)
 8000430:	f443 3300 	orr.w	r3, r3, #131072	; 0x20000
 8000434:	6153      	str	r3, [r2, #20]
 8000436:	4b35      	ldr	r3, [pc, #212]	; (800050c <HAL_UART_MspInit+0x11c>)
 8000438:	695b      	ldr	r3, [r3, #20]
 800043a:	f403 3300 	and.w	r3, r3, #131072	; 0x20000
 800043e:	60fb      	str	r3, [r7, #12]
 8000440:	68fb      	ldr	r3, [r7, #12]
    /**USART2 GPIO Configuration
    PA2     ------> USART2_TX
    PA15     ------> USART2_RX
    */
    GPIO_InitStruct.Pin = VCP_TX_Pin|VCP_RX_Pin;
 8000442:	f248 0304 	movw	r3, #32772	; 0x8004
 8000446:	617b      	str	r3, [r7, #20]
    GPIO_InitStruct.Mode = GPIO_MODE_AF_PP;
 8000448:	2302      	movs	r3, #2
 800044a:	61bb      	str	r3, [r7, #24]
    GPIO_InitStruct.Pull = GPIO_NOPULL;
 800044c:	2300      	movs	r3, #0
 800044e:	61fb      	str	r3, [r7, #28]
    GPIO_InitStruct.Speed = GPIO_SPEED_FREQ_HIGH;
 8000450:	2303      	movs	r3, #3
 8000452:	623b      	str	r3, [r7, #32]
    GPIO_InitStruct.Alternate = GPIO_AF7_USART2;
 8000454:	2307      	movs	r3, #7
 8000456:	627b      	str	r3, [r7, #36]	; 0x24
    HAL_GPIO_Init(GPIOA, &GPIO_InitStruct);
 8000458:	f107 0314 	add.w	r3, r7, #20
 800045c:	4619      	mov	r1, r3
 800045e:	f04f 4090 	mov.w	r0, #1207959552	; 0x48000000
 8000462:	f000 fbe5 	bl	8000c30 <HAL_GPIO_Init>

    /* USART2 DMA Init */
    /* USART2_RX Init */
    hdma_usart2_rx.Instance = DMA1_Channel6;
 8000466:	4b2a      	ldr	r3, [pc, #168]	; (8000510 <HAL_UART_MspInit+0x120>)
 8000468:	4a2a      	ldr	r2, [pc, #168]	; (8000514 <HAL_UART_MspInit+0x124>)
 800046a:	601a      	str	r2, [r3, #0]
    hdma_usart2_rx.Init.Direction = DMA_PERIPH_TO_MEMORY;
 800046c:	4b28      	ldr	r3, [pc, #160]	; (8000510 <HAL_UART_MspInit+0x120>)
 800046e:	2200      	movs	r2, #0
 8000470:	605a      	str	r2, [r3, #4]
    hdma_usart2_rx.Init.PeriphInc = DMA_PINC_DISABLE;
 8000472:	4b27      	ldr	r3, [pc, #156]	; (8000510 <HAL_UART_MspInit+0x120>)
 8000474:	2200      	movs	r2, #0
 8000476:	609a      	str	r2, [r3, #8]
    hdma_usart2_rx.Init.MemInc = DMA_MINC_ENABLE;
 8000478:	4b25      	ldr	r3, [pc, #148]	; (8000510 <HAL_UART_MspInit+0x120>)
 800047a:	2280      	movs	r2, #128	; 0x80
 800047c:	60da      	str	r2, [r3, #12]
    hdma_usart2_rx.Init.PeriphDataAlignment = DMA_PDATAALIGN_BYTE;
 800047e:	4b24      	ldr	r3, [pc, #144]	; (8000510 <HAL_UART_MspInit+0x120>)
 8000480:	2200      	movs	r2, #0
 8000482:	611a      	str	r2, [r3, #16]
    hdma_usart2_rx.Init.MemDataAlignment = DMA_MDATAALIGN_BYTE;
 8000484:	4b22      	ldr	r3, [pc, #136]	; (8000510 <HAL_UART_MspInit+0x120>)
 8000486:	2200      	movs	r2, #0
 8000488:	615a      	str	r2, [r3, #20]
    hdma_usart2_rx.Init.Mode = DMA_NORMAL;
 800048a:	4b21      	ldr	r3, [pc, #132]	; (8000510 <HAL_UART_MspInit+0x120>)
 800048c:	2200      	movs	r2, #0
 800048e:	619a      	str	r2, [r3, #24]
    hdma_usart2_rx.Init.Priority = DMA_PRIORITY_LOW;
 8000490:	4b1f      	ldr	r3, [pc, #124]	; (8000510 <HAL_UART_MspInit+0x120>)
 8000492:	2200      	movs	r2, #0
 8000494:	61da      	str	r2, [r3, #28]
    if (HAL_DMA_Init(&hdma_usart2_rx) != HAL_OK)
 8000496:	481e      	ldr	r0, [pc, #120]	; (8000510 <HAL_UART_MspInit+0x120>)
 8000498:	f000 fa33 	bl	8000902 <HAL_DMA_Init>
 800049c:	4603      	mov	r3, r0
 800049e:	2b00      	cmp	r3, #0
 80004a0:	d001      	beq.n	80004a6 <HAL_UART_MspInit+0xb6>
    {
      Error_Handler();
 80004a2:	f7ff ff7b 	bl	800039c <Error_Handler>
    }

    __HAL_LINKDMA(huart,hdmarx,hdma_usart2_rx);
 80004a6:	687b      	ldr	r3, [r7, #4]
 80004a8:	4a19      	ldr	r2, [pc, #100]	; (8000510 <HAL_UART_MspInit+0x120>)
 80004aa:	675a      	str	r2, [r3, #116]	; 0x74
 80004ac:	4a18      	ldr	r2, [pc, #96]	; (8000510 <HAL_UART_MspInit+0x120>)
 80004ae:	687b      	ldr	r3, [r7, #4]
 80004b0:	6253      	str	r3, [r2, #36]	; 0x24

    /* USART2_TX Init */
    hdma_usart2_tx.Instance = DMA1_Channel7;
 80004b2:	4b19      	ldr	r3, [pc, #100]	; (8000518 <HAL_UART_MspInit+0x128>)
 80004b4:	4a19      	ldr	r2, [pc, #100]	; (800051c <HAL_UART_MspInit+0x12c>)
 80004b6:	601a      	str	r2, [r3, #0]
    hdma_usart2_tx.Init.Direction = DMA_MEMORY_TO_PERIPH;
 80004b8:	4b17      	ldr	r3, [pc, #92]	; (8000518 <HAL_UART_MspInit+0x128>)
 80004ba:	2210      	movs	r2, #16
 80004bc:	605a      	str	r2, [r3, #4]
    hdma_usart2_tx.Init.PeriphInc = DMA_PINC_DISABLE;
 80004be:	4b16      	ldr	r3, [pc, #88]	; (8000518 <HAL_UART_MspInit+0x128>)
 80004c0:	2200      	movs	r2, #0
 80004c2:	609a      	str	r2, [r3, #8]
    hdma_usart2_tx.Init.MemInc = DMA_MINC_ENABLE;
 80004c4:	4b14      	ldr	r3, [pc, #80]	; (8000518 <HAL_UART_MspInit+0x128>)
 80004c6:	2280      	movs	r2, #128	; 0x80
 80004c8:	60da      	str	r2, [r3, #12]
    hdma_usart2_tx.Init.PeriphDataAlignment = DMA_PDATAALIGN_BYTE;
 80004ca:	4b13      	ldr	r3, [pc, #76]	; (8000518 <HAL_UART_MspInit+0x128>)
 80004cc:	2200      	movs	r2, #0
 80004ce:	611a      	str	r2, [r3, #16]
    hdma_usart2_tx.Init.MemDataAlignment = DMA_MDATAALIGN_BYTE;
 80004d0:	4b11      	ldr	r3, [pc, #68]	; (8000518 <HAL_UART_MspInit+0x128>)
 80004d2:	2200      	movs	r2, #0
 80004d4:	615a      	str	r2, [r3, #20]
    hdma_usart2_tx.Init.Mode = DMA_NORMAL;
 80004d6:	4b10      	ldr	r3, [pc, #64]	; (8000518 <HAL_UART_MspInit+0x128>)
 80004d8:	2200      	movs	r2, #0
 80004da:	619a      	str	r2, [r3, #24]
    hdma_usart2_tx.Init.Priority = DMA_PRIORITY_LOW;
 80004dc:	4b0e      	ldr	r3, [pc, #56]	; (8000518 <HAL_UART_MspInit+0x128>)
 80004de:	2200      	movs	r2, #0
 80004e0:	61da      	str	r2, [r3, #28]
    if (HAL_DMA_Init(&hdma_usart2_tx) != HAL_OK)
 80004e2:	480d      	ldr	r0, [pc, #52]	; (8000518 <HAL_UART_MspInit+0x128>)
 80004e4:	f000 fa0d 	bl	8000902 <HAL_DMA_Init>
 80004e8:	4603      	mov	r3, r0
 80004ea:	2b00      	cmp	r3, #0
 80004ec:	d001      	beq.n	80004f2 <HAL_UART_MspInit+0x102>
    {
      Error_Handler();
 80004ee:	f7ff ff55 	bl	800039c <Error_Handler>
    }

    __HAL_LINKDMA(huart,hdmatx,hdma_usart2_tx);
 80004f2:	687b      	ldr	r3, [r7, #4]
 80004f4:	4a08      	ldr	r2, [pc, #32]	; (8000518 <HAL_UART_MspInit+0x128>)
 80004f6:	671a      	str	r2, [r3, #112]	; 0x70
 80004f8:	4a07      	ldr	r2, [pc, #28]	; (8000518 <HAL_UART_MspInit+0x128>)
 80004fa:	687b      	ldr	r3, [r7, #4]
 80004fc:	6253      	str	r3, [r2, #36]	; 0x24
  /* USER CODE BEGIN USART2_MspInit 1 */

  /* USER CODE END USART2_MspInit 1 */
  }

}
 80004fe:	bf00      	nop
 8000500:	3728      	adds	r7, #40	; 0x28
 8000502:	46bd      	mov	sp, r7
 8000504:	bd80      	pop	{r7, pc}
 8000506:	bf00      	nop
 8000508:	40004400 	.word	0x40004400
 800050c:	40021000 	.word	0x40021000
 8000510:	200000b0 	.word	0x200000b0
 8000514:	4002006c 	.word	0x4002006c
 8000518:	200000f4 	.word	0x200000f4
 800051c:	40020080 	.word	0x40020080

08000520 <NMI_Handler>:
/******************************************************************************/
/**
  * @brief This function handles Non maskable interrupt.
  */
void NMI_Handler(void)
{
 8000520:	b480      	push	{r7}
 8000522:	af00      	add	r7, sp, #0
  /* USER CODE BEGIN NonMaskableInt_IRQn 0 */

  /* USER CODE END NonMaskableInt_IRQn 0 */
  /* USER CODE BEGIN NonMaskableInt_IRQn 1 */
  while (1)
 8000524:	e7fe      	b.n	8000524 <NMI_Handler+0x4>

08000526 <HardFault_Handler>:

/**
  * @brief This function handles Hard fault interrupt.
  */
void HardFault_Handler(void)
{
 8000526:	b480      	push	{r7}
 8000528:	af00      	add	r7, sp, #0
  /* USER CODE BEGIN HardFault_IRQn 0 */

  /* USER CODE END HardFault_IRQn 0 */
  while (1)
 800052a:	e7fe      	b.n	800052a <HardFault_Handler+0x4>

0800052c <MemManage_Handler>:

/**
  * @brief This function handles Memory management fault.
  */
void MemManage_Handler(void)
{
 800052c:	b480      	push	{r7}
 800052e:	af00      	add	r7, sp, #0
  /* USER CODE BEGIN MemoryManagement_IRQn 0 */

  /* USER CODE END MemoryManagement_IRQn 0 */
  while (1)
 8000530:	e7fe      	b.n	8000530 <MemManage_Handler+0x4>

08000532 <BusFault_Handler>:

/**
  * @brief This function handles Pre-fetch fault, memory access fault.
  */
void BusFault_Handler(void)
{
 8000532:	b480      	push	{r7}
 8000534:	af00      	add	r7, sp, #0
  /* USER CODE BEGIN BusFault_IRQn 0 */

  /* USER CODE END BusFault_IRQn 0 */
  while (1)
 8000536:	e7fe      	b.n	8000536 <BusFault_Handler+0x4>

08000538 <UsageFault_Handler>:

/**
  * @brief This function handles Undefined instruction or illegal state.
  */
void UsageFault_Handler(void)
{
 8000538:	b480      	push	{r7}
 800053a:	af00      	add	r7, sp, #0
  /* USER CODE BEGIN UsageFault_IRQn 0 */

  /* USER CODE END UsageFault_IRQn 0 */
  while (1)
 800053c:	e7fe      	b.n	800053c <UsageFault_Handler+0x4>

0800053e <SVC_Handler>:

/**
  * @brief This function handles System service call via SWI instruction.
  */
void SVC_Handler(void)
{
 800053e:	b480      	push	{r7}
 8000540:	af00      	add	r7, sp, #0

  /* USER CODE END SVCall_IRQn 0 */
  /* USER CODE BEGIN SVCall_IRQn 1 */

  /* USER CODE END SVCall_IRQn 1 */
}
 8000542:	bf00      	nop
 8000544:	46bd      	mov	sp, r7
 8000546:	f85d 7b04 	ldr.w	r7, [sp], #4
 800054a:	4770      	bx	lr

0800054c <DebugMon_Handler>:

/**
  * @brief This function handles Debug monitor.
  */
void DebugMon_Handler(void)
{
 800054c:	b480      	push	{r7}
 800054e:	af00      	add	r7, sp, #0

  /* USER CODE END DebugMonitor_IRQn 0 */
  /* USER CODE BEGIN DebugMonitor_IRQn 1 */

  /* USER CODE END DebugMonitor_IRQn 1 */
}
 8000550:	bf00      	nop
 8000552:	46bd      	mov	sp, r7
 8000554:	f85d 7b04 	ldr.w	r7, [sp], #4
 8000558:	4770      	bx	lr

0800055a <PendSV_Handler>:

/**
  * @brief This function handles Pendable request for system service.
  */
void PendSV_Handler(void)
{
 800055a:	b480      	push	{r7}
 800055c:	af00      	add	r7, sp, #0

  /* USER CODE END PendSV_IRQn 0 */
  /* USER CODE BEGIN PendSV_IRQn 1 */

  /* USER CODE END PendSV_IRQn 1 */
}
 800055e:	bf00      	nop
 8000560:	46bd      	mov	sp, r7
 8000562:	f85d 7b04 	ldr.w	r7, [sp], #4
 8000566:	4770      	bx	lr

08000568 <SysTick_Handler>:

/**
  * @brief This function handles System tick timer.
  */
void SysTick_Handler(void)
{
 8000568:	b580      	push	{r7, lr}
 800056a:	af00      	add	r7, sp, #0
  /* USER CODE BEGIN SysTick_IRQn 0 */

  /* USER CODE END SysTick_IRQn 0 */
  HAL_IncTick();
 800056c:	f000 f898 	bl	80006a0 <HAL_IncTick>
  /* USER CODE BEGIN SysTick_IRQn 1 */

  /* USER CODE END SysTick_IRQn 1 */
}
 8000570:	bf00      	nop
 8000572:	bd80      	pop	{r7, pc}

08000574 <DMA1_Channel6_IRQHandler>:

/**
  * @brief This function handles DMA1 channel6 global interrupt.
  */
void DMA1_Channel6_IRQHandler(void)
{
 8000574:	b580      	push	{r7, lr}
 8000576:	af00      	add	r7, sp, #0
  /* USER CODE BEGIN DMA1_Channel6_IRQn 0 */

  /* USER CODE END DMA1_Channel6_IRQn 0 */
  HAL_DMA_IRQHandler(&hdma_usart2_rx);
 8000578:	4802      	ldr	r0, [pc, #8]	; (8000584 <DMA1_Channel6_IRQHandler+0x10>)
 800057a:	f000 fa68 	bl	8000a4e <HAL_DMA_IRQHandler>
  /* USER CODE BEGIN DMA1_Channel6_IRQn 1 */

  /* USER CODE END DMA1_Channel6_IRQn 1 */
}
 800057e:	bf00      	nop
 8000580:	bd80      	pop	{r7, pc}
 8000582:	bf00      	nop
 8000584:	200000b0 	.word	0x200000b0

08000588 <DMA1_Channel7_IRQHandler>:

/**
  * @brief This function handles DMA1 channel7 global interrupt.
  */
void DMA1_Channel7_IRQHandler(void)
{
 8000588:	b580      	push	{r7, lr}
 800058a:	af00      	add	r7, sp, #0
  /* USER CODE BEGIN DMA1_Channel7_IRQn 0 */

  /* USER CODE END DMA1_Channel7_IRQn 0 */
  HAL_DMA_IRQHandler(&hdma_usart2_tx);
 800058c:	4802      	ldr	r0, [pc, #8]	; (8000598 <DMA1_Channel7_IRQHandler+0x10>)
 800058e:	f000 fa5e 	bl	8000a4e <HAL_DMA_IRQHandler>
  /* USER CODE BEGIN DMA1_Channel7_IRQn 1 */

  /* USER CODE END DMA1_Channel7_IRQn 1 */
}
 8000592:	bf00      	nop
 8000594:	bd80      	pop	{r7, pc}
 8000596:	bf00      	nop
 8000598:	200000f4 	.word	0x200000f4

0800059c <SystemInit>:
  * @brief  Setup the microcontroller system
  * @param  None
  * @retval None
  */
void SystemInit(void)
{
 800059c:	b480      	push	{r7}
 800059e:	af00      	add	r7, sp, #0
/* FPU settings --------------------------------------------------------------*/
#if (__FPU_PRESENT == 1) && (__FPU_USED == 1)
  SCB->CPACR |= ((3UL << 10*2)|(3UL << 11*2));  /* set CP10 and CP11 Full Access */
 80005a0:	4b06      	ldr	r3, [pc, #24]	; (80005bc <SystemInit+0x20>)
 80005a2:	f8d3 3088 	ldr.w	r3, [r3, #136]	; 0x88
 80005a6:	4a05      	ldr	r2, [pc, #20]	; (80005bc <SystemInit+0x20>)
 80005a8:	f443 0370 	orr.w	r3, r3, #15728640	; 0xf00000
 80005ac:	f8c2 3088 	str.w	r3, [r2, #136]	; 0x88

  /* Configure the Vector Table location -------------------------------------*/
#if defined(USER_VECT_TAB_ADDRESS)
  SCB->VTOR = VECT_TAB_BASE_ADDRESS | VECT_TAB_OFFSET; /* Vector Table Relocation in Internal SRAM */
#endif /* USER_VECT_TAB_ADDRESS */
}
 80005b0:	bf00      	nop
 80005b2:	46bd      	mov	sp, r7
 80005b4:	f85d 7b04 	ldr.w	r7, [sp], #4
 80005b8:	4770      	bx	lr
 80005ba:	bf00      	nop
 80005bc:	e000ed00 	.word	0xe000ed00

080005c0 <Reset_Handler>:

    .section	.text.Reset_Handler
	.weak	Reset_Handler
	.type	Reset_Handler, %function
Reset_Handler:
  ldr   sp, =_estack    /* Atollic update: set stack pointer */
 80005c0:	f8df d034 	ldr.w	sp, [pc, #52]	; 80005f8 <LoopForever+0x2>
  
/* Call the clock system initialization function.*/
    bl  SystemInit
 80005c4:	f7ff ffea 	bl	800059c <SystemInit>

/* Copy the data segment initializers from flash to SRAM */
  ldr r0, =_sdata
 80005c8:	480c      	ldr	r0, [pc, #48]	; (80005fc <LoopForever+0x6>)
  ldr r1, =_edata
 80005ca:	490d      	ldr	r1, [pc, #52]	; (8000600 <LoopForever+0xa>)
  ldr r2, =_sidata
 80005cc:	4a0d      	ldr	r2, [pc, #52]	; (8000604 <LoopForever+0xe>)
  movs r3, #0
 80005ce:	2300      	movs	r3, #0
  b LoopCopyDataInit
 80005d0:	e002      	b.n	80005d8 <LoopCopyDataInit>

080005d2 <CopyDataInit>:

CopyDataInit:
  ldr r4, [r2, r3]
 80005d2:	58d4      	ldr	r4, [r2, r3]
  str r4, [r0, r3]
 80005d4:	50c4      	str	r4, [r0, r3]
  adds r3, r3, #4
 80005d6:	3304      	adds	r3, #4

080005d8 <LoopCopyDataInit>:

LoopCopyDataInit:
  adds r4, r0, r3
 80005d8:	18c4      	adds	r4, r0, r3
  cmp r4, r1
 80005da:	428c      	cmp	r4, r1
  bcc CopyDataInit
 80005dc:	d3f9      	bcc.n	80005d2 <CopyDataInit>
  
/* Zero fill the bss segment. */
  ldr r2, =_sbss
 80005de:	4a0a      	ldr	r2, [pc, #40]	; (8000608 <LoopForever+0x12>)
  ldr r4, =_ebss
 80005e0:	4c0a      	ldr	r4, [pc, #40]	; (800060c <LoopForever+0x16>)
  movs r3, #0
 80005e2:	2300      	movs	r3, #0
  b LoopFillZerobss
 80005e4:	e001      	b.n	80005ea <LoopFillZerobss>

080005e6 <FillZerobss>:

FillZerobss:
  str  r3, [r2]
 80005e6:	6013      	str	r3, [r2, #0]
  adds r2, r2, #4
 80005e8:	3204      	adds	r2, #4

080005ea <LoopFillZerobss>:

LoopFillZerobss:
  cmp r2, r4
 80005ea:	42a2      	cmp	r2, r4
  bcc FillZerobss
 80005ec:	d3fb      	bcc.n	80005e6 <FillZerobss>

/* Call static constructors */
    bl __libc_init_array
 80005ee:	f002 fdab 	bl	8003148 <__libc_init_array>
/* Call the application's entry point.*/
	bl	main
 80005f2:	f7ff fde9 	bl	80001c8 <main>

080005f6 <LoopForever>:

LoopForever:
    b LoopForever
 80005f6:	e7fe      	b.n	80005f6 <LoopForever>
  ldr   sp, =_estack    /* Atollic update: set stack pointer */
 80005f8:	20003000 	.word	0x20003000
  ldr r0, =_sdata
 80005fc:	20000000 	.word	0x20000000
  ldr r1, =_edata
 8000600:	2000000c 	.word	0x2000000c
  ldr r2, =_sidata
 8000604:	080031e8 	.word	0x080031e8
  ldr r2, =_sbss
 8000608:	2000000c 	.word	0x2000000c
  ldr r4, =_ebss
 800060c:	20000144 	.word	0x20000144

08000610 <ADC1_2_IRQHandler>:
 * @retval : None
*/
    .section	.text.Default_Handler,"ax",%progbits
Default_Handler:
Infinite_Loop:
	b	Infinite_Loop
 8000610:	e7fe      	b.n	8000610 <ADC1_2_IRQHandler>
	...

08000614 <HAL_Init>:
  *         In the default implementation,Systick is used as source of time base.
  *       The tick variable is incremented each 1ms in its ISR.
  * @retval HAL status
  */
HAL_StatusTypeDef HAL_Init(void)
{
 8000614:	b580      	push	{r7, lr}
 8000616:	af00      	add	r7, sp, #0
  /* Configure Flash prefetch */
#if (PREFETCH_ENABLE != 0U)
  __HAL_FLASH_PREFETCH_BUFFER_ENABLE();
 8000618:	4b08      	ldr	r3, [pc, #32]	; (800063c <HAL_Init+0x28>)
 800061a:	681b      	ldr	r3, [r3, #0]
 800061c:	4a07      	ldr	r2, [pc, #28]	; (800063c <HAL_Init+0x28>)
 800061e:	f043 0310 	orr.w	r3, r3, #16
 8000622:	6013      	str	r3, [r2, #0]
#endif /* PREFETCH_ENABLE */

  /* Set Interrupt Group Priority */
  HAL_NVIC_SetPriorityGrouping(NVIC_PRIORITYGROUP_4);
 8000624:	2003      	movs	r0, #3
 8000626:	f000 f92b 	bl	8000880 <HAL_NVIC_SetPriorityGrouping>

  /* Enable systick and configure 1ms tick (default clock after Reset is HSI) */
  HAL_InitTick(TICK_INT_PRIORITY);
 800062a:	2000      	movs	r0, #0
 800062c:	f000 f808 	bl	8000640 <HAL_InitTick>

  /* Init the low level hardware */
  HAL_MspInit();
 8000630:	f7ff feba 	bl	80003a8 <HAL_MspInit>

  /* Return function status */
  return HAL_OK;
 8000634:	2300      	movs	r3, #0
}
 8000636:	4618      	mov	r0, r3
 8000638:	bd80      	pop	{r7, pc}
 800063a:	bf00      	nop
 800063c:	40022000 	.word	0x40022000

08000640 <HAL_InitTick>:
  *         implementation  in user file.
  * @param TickPriority Tick interrupt priority.
  * @retval HAL status
  */
__weak HAL_StatusTypeDef HAL_InitTick(uint32_t TickPriority)
{
 8000640:	b580      	push	{r7, lr}
 8000642:	b082      	sub	sp, #8
 8000644:	af00      	add	r7, sp, #0
 8000646:	6078      	str	r0, [r7, #4]
  /* Configure the SysTick to have interrupt in 1ms time basis*/
  if (HAL_SYSTICK_Config(SystemCoreClock / (1000U / uwTickFreq)) > 0U)
 8000648:	4b12      	ldr	r3, [pc, #72]	; (8000694 <HAL_InitTick+0x54>)
 800064a:	681a      	ldr	r2, [r3, #0]
 800064c:	4b12      	ldr	r3, [pc, #72]	; (8000698 <HAL_InitTick+0x58>)
 800064e:	781b      	ldrb	r3, [r3, #0]
 8000650:	4619      	mov	r1, r3
 8000652:	f44f 737a 	mov.w	r3, #1000	; 0x3e8
 8000656:	fbb3 f3f1 	udiv	r3, r3, r1
 800065a:	fbb2 f3f3 	udiv	r3, r2, r3
 800065e:	4618      	mov	r0, r3
 8000660:	f000 f943 	bl	80008ea <HAL_SYSTICK_Config>
 8000664:	4603      	mov	r3, r0
 8000666:	2b00      	cmp	r3, #0
 8000668:	d001      	beq.n	800066e <HAL_InitTick+0x2e>
  {
    return HAL_ERROR;
 800066a:	2301      	movs	r3, #1
 800066c:	e00e      	b.n	800068c <HAL_InitTick+0x4c>
  }

  /* Configure the SysTick IRQ priority */
  if (TickPriority < (1UL << __NVIC_PRIO_BITS))
 800066e:	687b      	ldr	r3, [r7, #4]
 8000670:	2b0f      	cmp	r3, #15
 8000672:	d80a      	bhi.n	800068a <HAL_InitTick+0x4a>
  {
    HAL_NVIC_SetPriority(SysTick_IRQn, TickPriority, 0U);
 8000674:	2200      	movs	r2, #0
 8000676:	6879      	ldr	r1, [r7, #4]
 8000678:	f04f 30ff 	mov.w	r0, #4294967295
 800067c:	f000 f90b 	bl	8000896 <HAL_NVIC_SetPriority>
    uwTickPrio = TickPriority;
 8000680:	4a06      	ldr	r2, [pc, #24]	; (800069c <HAL_InitTick+0x5c>)
 8000682:	687b      	ldr	r3, [r7, #4]
 8000684:	6013      	str	r3, [r2, #0]
  else
  {
    return HAL_ERROR;
  }
   /* Return function status */
  return HAL_OK;
 8000686:	2300      	movs	r3, #0
 8000688:	e000      	b.n	800068c <HAL_InitTick+0x4c>
    return HAL_ERROR;
 800068a:	2301      	movs	r3, #1
}
 800068c:	4618      	mov	r0, r3
 800068e:	3708      	adds	r7, #8
 8000690:	46bd      	mov	sp, r7
 8000692:	bd80      	pop	{r7, pc}
 8000694:	20000000 	.word	0x20000000
 8000698:	20000008 	.word	0x20000008
 800069c:	20000004 	.word	0x20000004

080006a0 <HAL_IncTick>:
  * @note This function is declared as __weak to be overwritten in case of other 
  *         implementations  in user file.
  * @retval None
  */
__weak void HAL_IncTick(void)
{
 80006a0:	b480      	push	{r7}
 80006a2:	af00      	add	r7, sp, #0
  uwTick += uwTickFreq;
 80006a4:	4b06      	ldr	r3, [pc, #24]	; (80006c0 <HAL_IncTick+0x20>)
 80006a6:	781b      	ldrb	r3, [r3, #0]
 80006a8:	461a      	mov	r2, r3
 80006aa:	4b06      	ldr	r3, [pc, #24]	; (80006c4 <HAL_IncTick+0x24>)
 80006ac:	681b      	ldr	r3, [r3, #0]
 80006ae:	4413      	add	r3, r2
 80006b0:	4a04      	ldr	r2, [pc, #16]	; (80006c4 <HAL_IncTick+0x24>)
 80006b2:	6013      	str	r3, [r2, #0]
}
 80006b4:	bf00      	nop
 80006b6:	46bd      	mov	sp, r7
 80006b8:	f85d 7b04 	ldr.w	r7, [sp], #4
 80006bc:	4770      	bx	lr
 80006be:	bf00      	nop
 80006c0:	20000008 	.word	0x20000008
 80006c4:	20000140 	.word	0x20000140

080006c8 <HAL_GetTick>:
  * @note   The function is declared as __Weak  to be overwritten  in case of other 
  *         implementations  in user file.
  * @retval tick value
  */
__weak uint32_t HAL_GetTick(void)
{
 80006c8:	b480      	push	{r7}
 80006ca:	af00      	add	r7, sp, #0
  return uwTick;  
 80006cc:	4b03      	ldr	r3, [pc, #12]	; (80006dc <HAL_GetTick+0x14>)
 80006ce:	681b      	ldr	r3, [r3, #0]
}
 80006d0:	4618      	mov	r0, r3
 80006d2:	46bd      	mov	sp, r7
 80006d4:	f85d 7b04 	ldr.w	r7, [sp], #4
 80006d8:	4770      	bx	lr
 80006da:	bf00      	nop
 80006dc:	20000140 	.word	0x20000140

080006e0 <__NVIC_SetPriorityGrouping>:
           In case of a conflict between priority grouping and available
           priority bits (__NVIC_PRIO_BITS), the smallest possible priority group is set.
  \param [in]      PriorityGroup  Priority grouping field.
 */
__STATIC_INLINE void __NVIC_SetPriorityGrouping(uint32_t PriorityGroup)
{
 80006e0:	b480      	push	{r7}
 80006e2:	b085      	sub	sp, #20
 80006e4:	af00      	add	r7, sp, #0
 80006e6:	6078      	str	r0, [r7, #4]
  uint32_t reg_value;
  uint32_t PriorityGroupTmp = (PriorityGroup & (uint32_t)0x07UL);             /* only values 0..7 are used          */
 80006e8:	687b      	ldr	r3, [r7, #4]
 80006ea:	f003 0307 	and.w	r3, r3, #7
 80006ee:	60fb      	str	r3, [r7, #12]

  reg_value  =  SCB->AIRCR;                                                   /* read old register configuration    */
 80006f0:	4b0c      	ldr	r3, [pc, #48]	; (8000724 <__NVIC_SetPriorityGrouping+0x44>)
 80006f2:	68db      	ldr	r3, [r3, #12]
 80006f4:	60bb      	str	r3, [r7, #8]
  reg_value &= ~((uint32_t)(SCB_AIRCR_VECTKEY_Msk | SCB_AIRCR_PRIGROUP_Msk)); /* clear bits to change               */
 80006f6:	68ba      	ldr	r2, [r7, #8]
 80006f8:	f64f 03ff 	movw	r3, #63743	; 0xf8ff
 80006fc:	4013      	ands	r3, r2
 80006fe:	60bb      	str	r3, [r7, #8]
  reg_value  =  (reg_value                                   |
                ((uint32_t)0x5FAUL << SCB_AIRCR_VECTKEY_Pos) |
                (PriorityGroupTmp << SCB_AIRCR_PRIGROUP_Pos)  );              /* Insert write key and priority group */
 8000700:	68fb      	ldr	r3, [r7, #12]
 8000702:	021a      	lsls	r2, r3, #8
                ((uint32_t)0x5FAUL << SCB_AIRCR_VECTKEY_Pos) |
 8000704:	68bb      	ldr	r3, [r7, #8]
 8000706:	4313      	orrs	r3, r2
  reg_value  =  (reg_value                                   |
 8000708:	f043 63bf 	orr.w	r3, r3, #100139008	; 0x5f80000
 800070c:	f443 3300 	orr.w	r3, r3, #131072	; 0x20000
 8000710:	60bb      	str	r3, [r7, #8]
  SCB->AIRCR =  reg_value;
 8000712:	4a04      	ldr	r2, [pc, #16]	; (8000724 <__NVIC_SetPriorityGrouping+0x44>)
 8000714:	68bb      	ldr	r3, [r7, #8]
 8000716:	60d3      	str	r3, [r2, #12]
}
 8000718:	bf00      	nop
 800071a:	3714      	adds	r7, #20
 800071c:	46bd      	mov	sp, r7
 800071e:	f85d 7b04 	ldr.w	r7, [sp], #4
 8000722:	4770      	bx	lr
 8000724:	e000ed00 	.word	0xe000ed00

08000728 <__NVIC_GetPriorityGrouping>:
  \brief   Get Priority Grouping
  \details Reads the priority grouping field from the NVIC Interrupt Controller.
  \return                Priority grouping field (SCB->AIRCR [10:8] PRIGROUP field).
 */
__STATIC_INLINE uint32_t __NVIC_GetPriorityGrouping(void)
{
 8000728:	b480      	push	{r7}
 800072a:	af00      	add	r7, sp, #0
  return ((uint32_t)((SCB->AIRCR & SCB_AIRCR_PRIGROUP_Msk) >> SCB_AIRCR_PRIGROUP_Pos));
 800072c:	4b04      	ldr	r3, [pc, #16]	; (8000740 <__NVIC_GetPriorityGrouping+0x18>)
 800072e:	68db      	ldr	r3, [r3, #12]
 8000730:	0a1b      	lsrs	r3, r3, #8
 8000732:	f003 0307 	and.w	r3, r3, #7
}
 8000736:	4618      	mov	r0, r3
 8000738:	46bd      	mov	sp, r7
 800073a:	f85d 7b04 	ldr.w	r7, [sp], #4
 800073e:	4770      	bx	lr
 8000740:	e000ed00 	.word	0xe000ed00

08000744 <__NVIC_EnableIRQ>:
  \details Enables a device specific interrupt in the NVIC interrupt controller.
  \param [in]      IRQn  Device specific interrupt number.
  \note    IRQn must not be negative.
 */
__STATIC_INLINE void __NVIC_EnableIRQ(IRQn_Type IRQn)
{
 8000744:	b480      	push	{r7}
 8000746:	b083      	sub	sp, #12
 8000748:	af00      	add	r7, sp, #0
 800074a:	4603      	mov	r3, r0
 800074c:	71fb      	strb	r3, [r7, #7]
  if ((int32_t)(IRQn) >= 0)
 800074e:	f997 3007 	ldrsb.w	r3, [r7, #7]
 8000752:	2b00      	cmp	r3, #0
 8000754:	db0b      	blt.n	800076e <__NVIC_EnableIRQ+0x2a>
  {
    NVIC->ISER[(((uint32_t)IRQn) >> 5UL)] = (uint32_t)(1UL << (((uint32_t)IRQn) & 0x1FUL));
 8000756:	79fb      	ldrb	r3, [r7, #7]
 8000758:	f003 021f 	and.w	r2, r3, #31
 800075c:	4907      	ldr	r1, [pc, #28]	; (800077c <__NVIC_EnableIRQ+0x38>)
 800075e:	f997 3007 	ldrsb.w	r3, [r7, #7]
 8000762:	095b      	lsrs	r3, r3, #5
 8000764:	2001      	movs	r0, #1
 8000766:	fa00 f202 	lsl.w	r2, r0, r2
 800076a:	f841 2023 	str.w	r2, [r1, r3, lsl #2]
  }
}
 800076e:	bf00      	nop
 8000770:	370c      	adds	r7, #12
 8000772:	46bd      	mov	sp, r7
 8000774:	f85d 7b04 	ldr.w	r7, [sp], #4
 8000778:	4770      	bx	lr
 800077a:	bf00      	nop
 800077c:	e000e100 	.word	0xe000e100

08000780 <__NVIC_SetPriority>:
  \param [in]      IRQn  Interrupt number.
  \param [in]  priority  Priority to set.
  \note    The priority cannot be set for every processor exception.
 */
__STATIC_INLINE void __NVIC_SetPriority(IRQn_Type IRQn, uint32_t priority)
{
 8000780:	b480      	push	{r7}
 8000782:	b083      	sub	sp, #12
 8000784:	af00      	add	r7, sp, #0
 8000786:	4603      	mov	r3, r0
 8000788:	6039      	str	r1, [r7, #0]
 800078a:	71fb      	strb	r3, [r7, #7]
  if ((int32_t)(IRQn) >= 0)
 800078c:	f997 3007 	ldrsb.w	r3, [r7, #7]
 8000790:	2b00      	cmp	r3, #0
 8000792:	db0a      	blt.n	80007aa <__NVIC_SetPriority+0x2a>
  {
    NVIC->IP[((uint32_t)IRQn)]               = (uint8_t)((priority << (8U - __NVIC_PRIO_BITS)) & (uint32_t)0xFFUL);
 8000794:	683b      	ldr	r3, [r7, #0]
 8000796:	b2da      	uxtb	r2, r3
 8000798:	490c      	ldr	r1, [pc, #48]	; (80007cc <__NVIC_SetPriority+0x4c>)
 800079a:	f997 3007 	ldrsb.w	r3, [r7, #7]
 800079e:	0112      	lsls	r2, r2, #4
 80007a0:	b2d2      	uxtb	r2, r2
 80007a2:	440b      	add	r3, r1
 80007a4:	f883 2300 	strb.w	r2, [r3, #768]	; 0x300
  }
  else
  {
    SCB->SHP[(((uint32_t)IRQn) & 0xFUL)-4UL] = (uint8_t)((priority << (8U - __NVIC_PRIO_BITS)) & (uint32_t)0xFFUL);
  }
}
 80007a8:	e00a      	b.n	80007c0 <__NVIC_SetPriority+0x40>
    SCB->SHP[(((uint32_t)IRQn) & 0xFUL)-4UL] = (uint8_t)((priority << (8U - __NVIC_PRIO_BITS)) & (uint32_t)0xFFUL);
 80007aa:	683b      	ldr	r3, [r7, #0]
 80007ac:	b2da      	uxtb	r2, r3
 80007ae:	4908      	ldr	r1, [pc, #32]	; (80007d0 <__NVIC_SetPriority+0x50>)
 80007b0:	79fb      	ldrb	r3, [r7, #7]
 80007b2:	f003 030f 	and.w	r3, r3, #15
 80007b6:	3b04      	subs	r3, #4
 80007b8:	0112      	lsls	r2, r2, #4
 80007ba:	b2d2      	uxtb	r2, r2
 80007bc:	440b      	add	r3, r1
 80007be:	761a      	strb	r2, [r3, #24]
}
 80007c0:	bf00      	nop
 80007c2:	370c      	adds	r7, #12
 80007c4:	46bd      	mov	sp, r7
 80007c6:	f85d 7b04 	ldr.w	r7, [sp], #4
 80007ca:	4770      	bx	lr
 80007cc:	e000e100 	.word	0xe000e100
 80007d0:	e000ed00 	.word	0xe000ed00

080007d4 <NVIC_EncodePriority>:
  \param [in]   PreemptPriority  Preemptive priority value (starting from 0).
  \param [in]       SubPriority  Subpriority value (starting from 0).
  \return                        Encoded priority. Value can be used in the function \ref NVIC_SetPriority().
 */
__STATIC_INLINE uint32_t NVIC_EncodePriority (uint32_t PriorityGroup, uint32_t PreemptPriority, uint32_t SubPriority)
{
 80007d4:	b480      	push	{r7}
 80007d6:	b089      	sub	sp, #36	; 0x24
 80007d8:	af00      	add	r7, sp, #0
 80007da:	60f8      	str	r0, [r7, #12]
 80007dc:	60b9      	str	r1, [r7, #8]
 80007de:	607a      	str	r2, [r7, #4]
  uint32_t PriorityGroupTmp = (PriorityGroup & (uint32_t)0x07UL);   /* only values 0..7 are used          */
 80007e0:	68fb      	ldr	r3, [r7, #12]
 80007e2:	f003 0307 	and.w	r3, r3, #7
 80007e6:	61fb      	str	r3, [r7, #28]
  uint32_t PreemptPriorityBits;
  uint32_t SubPriorityBits;

  PreemptPriorityBits = ((7UL - PriorityGroupTmp) > (uint32_t)(__NVIC_PRIO_BITS)) ? (uint32_t)(__NVIC_PRIO_BITS) : (uint32_t)(7UL - PriorityGroupTmp);
 80007e8:	69fb      	ldr	r3, [r7, #28]
 80007ea:	f1c3 0307 	rsb	r3, r3, #7
 80007ee:	2b04      	cmp	r3, #4
 80007f0:	bf28      	it	cs
 80007f2:	2304      	movcs	r3, #4
 80007f4:	61bb      	str	r3, [r7, #24]
  SubPriorityBits     = ((PriorityGroupTmp + (uint32_t)(__NVIC_PRIO_BITS)) < (uint32_t)7UL) ? (uint32_t)0UL : (uint32_t)((PriorityGroupTmp - 7UL) + (uint32_t)(__NVIC_PRIO_BITS));
 80007f6:	69fb      	ldr	r3, [r7, #28]
 80007f8:	3304      	adds	r3, #4
 80007fa:	2b06      	cmp	r3, #6
 80007fc:	d902      	bls.n	8000804 <NVIC_EncodePriority+0x30>
 80007fe:	69fb      	ldr	r3, [r7, #28]
 8000800:	3b03      	subs	r3, #3
 8000802:	e000      	b.n	8000806 <NVIC_EncodePriority+0x32>
 8000804:	2300      	movs	r3, #0
 8000806:	617b      	str	r3, [r7, #20]

  return (
           ((PreemptPriority & (uint32_t)((1UL << (PreemptPriorityBits)) - 1UL)) << SubPriorityBits) |
 8000808:	f04f 32ff 	mov.w	r2, #4294967295
 800080c:	69bb      	ldr	r3, [r7, #24]
 800080e:	fa02 f303 	lsl.w	r3, r2, r3
 8000812:	43da      	mvns	r2, r3
 8000814:	68bb      	ldr	r3, [r7, #8]
 8000816:	401a      	ands	r2, r3
 8000818:	697b      	ldr	r3, [r7, #20]
 800081a:	409a      	lsls	r2, r3
           ((SubPriority     & (uint32_t)((1UL << (SubPriorityBits    )) - 1UL)))
 800081c:	f04f 31ff 	mov.w	r1, #4294967295
 8000820:	697b      	ldr	r3, [r7, #20]
 8000822:	fa01 f303 	lsl.w	r3, r1, r3
 8000826:	43d9      	mvns	r1, r3
 8000828:	687b      	ldr	r3, [r7, #4]
 800082a:	400b      	ands	r3, r1
           ((PreemptPriority & (uint32_t)((1UL << (PreemptPriorityBits)) - 1UL)) << SubPriorityBits) |
 800082c:	4313      	orrs	r3, r2
         );
}
 800082e:	4618      	mov	r0, r3
 8000830:	3724      	adds	r7, #36	; 0x24
 8000832:	46bd      	mov	sp, r7
 8000834:	f85d 7b04 	ldr.w	r7, [sp], #4
 8000838:	4770      	bx	lr
	...

0800083c <SysTick_Config>:
  \note    When the variable <b>__Vendor_SysTickConfig</b> is set to 1, then the
           function <b>SysTick_Config</b> is not included. In this case, the file <b><i>device</i>.h</b>
           must contain a vendor-specific implementation of this function.
 */
__STATIC_INLINE uint32_t SysTick_Config(uint32_t ticks)
{
 800083c:	b580      	push	{r7, lr}
 800083e:	b082      	sub	sp, #8
 8000840:	af00      	add	r7, sp, #0
 8000842:	6078      	str	r0, [r7, #4]
  if ((ticks - 1UL) > SysTick_LOAD_RELOAD_Msk)
 8000844:	687b      	ldr	r3, [r7, #4]
 8000846:	3b01      	subs	r3, #1
 8000848:	f1b3 7f80 	cmp.w	r3, #16777216	; 0x1000000
 800084c:	d301      	bcc.n	8000852 <SysTick_Config+0x16>
  {
    return (1UL);                                                   /* Reload value impossible */
 800084e:	2301      	movs	r3, #1
 8000850:	e00f      	b.n	8000872 <SysTick_Config+0x36>
  }

  SysTick->LOAD  = (uint32_t)(ticks - 1UL);                         /* set reload register */
 8000852:	4a0a      	ldr	r2, [pc, #40]	; (800087c <SysTick_Config+0x40>)
 8000854:	687b      	ldr	r3, [r7, #4]
 8000856:	3b01      	subs	r3, #1
 8000858:	6053      	str	r3, [r2, #4]
  NVIC_SetPriority (SysTick_IRQn, (1UL << __NVIC_PRIO_BITS) - 1UL); /* set Priority for Systick Interrupt */
 800085a:	210f      	movs	r1, #15
 800085c:	f04f 30ff 	mov.w	r0, #4294967295
 8000860:	f7ff ff8e 	bl	8000780 <__NVIC_SetPriority>
  SysTick->VAL   = 0UL;                                             /* Load the SysTick Counter Value */
 8000864:	4b05      	ldr	r3, [pc, #20]	; (800087c <SysTick_Config+0x40>)
 8000866:	2200      	movs	r2, #0
 8000868:	609a      	str	r2, [r3, #8]
  SysTick->CTRL  = SysTick_CTRL_CLKSOURCE_Msk |
 800086a:	4b04      	ldr	r3, [pc, #16]	; (800087c <SysTick_Config+0x40>)
 800086c:	2207      	movs	r2, #7
 800086e:	601a      	str	r2, [r3, #0]
                   SysTick_CTRL_TICKINT_Msk   |
                   SysTick_CTRL_ENABLE_Msk;                         /* Enable SysTick IRQ and SysTick Timer */
  return (0UL);                                                     /* Function successful */
 8000870:	2300      	movs	r3, #0
}
 8000872:	4618      	mov	r0, r3
 8000874:	3708      	adds	r7, #8
 8000876:	46bd      	mov	sp, r7
 8000878:	bd80      	pop	{r7, pc}
 800087a:	bf00      	nop
 800087c:	e000e010 	.word	0xe000e010

08000880 <HAL_NVIC_SetPriorityGrouping>:
  * @note   When the NVIC_PriorityGroup_0 is selected, IRQ pre-emption is no more possible.
  *         The pending IRQ priority will be managed only by the subpriority.
  * @retval None
  */
void HAL_NVIC_SetPriorityGrouping(uint32_t PriorityGroup)
{
 8000880:	b580      	push	{r7, lr}
 8000882:	b082      	sub	sp, #8
 8000884:	af00      	add	r7, sp, #0
 8000886:	6078      	str	r0, [r7, #4]
  /* Check the parameters */
  assert_param(IS_NVIC_PRIORITY_GROUP(PriorityGroup));

  /* Set the PRIGROUP[10:8] bits according to the PriorityGroup parameter value */
  NVIC_SetPriorityGrouping(PriorityGroup);
 8000888:	6878      	ldr	r0, [r7, #4]
 800088a:	f7ff ff29 	bl	80006e0 <__NVIC_SetPriorityGrouping>
}
 800088e:	bf00      	nop
 8000890:	3708      	adds	r7, #8
 8000892:	46bd      	mov	sp, r7
 8000894:	bd80      	pop	{r7, pc}

08000896 <HAL_NVIC_SetPriority>:
  *         This parameter can be a value between 0 and 15 as described in the table CORTEX_NVIC_Priority_Table
  *         A lower priority value indicates a higher priority.
  * @retval None
  */
void HAL_NVIC_SetPriority(IRQn_Type IRQn, uint32_t PreemptPriority, uint32_t SubPriority)
{
 8000896:	b580      	push	{r7, lr}
 8000898:	b086      	sub	sp, #24
 800089a:	af00      	add	r7, sp, #0
 800089c:	4603      	mov	r3, r0
 800089e:	60b9      	str	r1, [r7, #8]
 80008a0:	607a      	str	r2, [r7, #4]
 80008a2:	73fb      	strb	r3, [r7, #15]
  uint32_t prioritygroup = 0x00U;
 80008a4:	2300      	movs	r3, #0
 80008a6:	617b      	str	r3, [r7, #20]
  
  /* Check the parameters */
  assert_param(IS_NVIC_SUB_PRIORITY(SubPriority));
  assert_param(IS_NVIC_PREEMPTION_PRIORITY(PreemptPriority));
  
  prioritygroup = NVIC_GetPriorityGrouping();
 80008a8:	f7ff ff3e 	bl	8000728 <__NVIC_GetPriorityGrouping>
 80008ac:	6178      	str	r0, [r7, #20]
  
  NVIC_SetPriority(IRQn, NVIC_EncodePriority(prioritygroup, PreemptPriority, SubPriority));
 80008ae:	687a      	ldr	r2, [r7, #4]
 80008b0:	68b9      	ldr	r1, [r7, #8]
 80008b2:	6978      	ldr	r0, [r7, #20]
 80008b4:	f7ff ff8e 	bl	80007d4 <NVIC_EncodePriority>
 80008b8:	4602      	mov	r2, r0
 80008ba:	f997 300f 	ldrsb.w	r3, [r7, #15]
 80008be:	4611      	mov	r1, r2
 80008c0:	4618      	mov	r0, r3
 80008c2:	f7ff ff5d 	bl	8000780 <__NVIC_SetPriority>
}
 80008c6:	bf00      	nop
 80008c8:	3718      	adds	r7, #24
 80008ca:	46bd      	mov	sp, r7
 80008cc:	bd80      	pop	{r7, pc}

080008ce <HAL_NVIC_EnableIRQ>:
  *         This parameter can be an enumerator of IRQn_Type enumeration
  *         (For the complete STM32 Devices IRQ Channels list, please refer to the appropriate CMSIS device file (stm32f3xxxx.h))
  * @retval None
  */
void HAL_NVIC_EnableIRQ(IRQn_Type IRQn)
{
 80008ce:	b580      	push	{r7, lr}
 80008d0:	b082      	sub	sp, #8
 80008d2:	af00      	add	r7, sp, #0
 80008d4:	4603      	mov	r3, r0
 80008d6:	71fb      	strb	r3, [r7, #7]
  /* Check the parameters */
  assert_param(IS_NVIC_DEVICE_IRQ(IRQn));
  
  /* Enable interrupt */
  NVIC_EnableIRQ(IRQn);
 80008d8:	f997 3007 	ldrsb.w	r3, [r7, #7]
 80008dc:	4618      	mov	r0, r3
 80008de:	f7ff ff31 	bl	8000744 <__NVIC_EnableIRQ>
}
 80008e2:	bf00      	nop
 80008e4:	3708      	adds	r7, #8
 80008e6:	46bd      	mov	sp, r7
 80008e8:	bd80      	pop	{r7, pc}

080008ea <HAL_SYSTICK_Config>:
  * @param  TicksNumb Specifies the ticks Number of ticks between two interrupts.
  * @retval status:  - 0  Function succeeded.
  *                  - 1  Function failed.
  */
uint32_t HAL_SYSTICK_Config(uint32_t TicksNumb)
{
 80008ea:	b580      	push	{r7, lr}
 80008ec:	b082      	sub	sp, #8
 80008ee:	af00      	add	r7, sp, #0
 80008f0:	6078      	str	r0, [r7, #4]
   return SysTick_Config(TicksNumb);
 80008f2:	6878      	ldr	r0, [r7, #4]
 80008f4:	f7ff ffa2 	bl	800083c <SysTick_Config>
 80008f8:	4603      	mov	r3, r0
}
 80008fa:	4618      	mov	r0, r3
 80008fc:	3708      	adds	r7, #8
 80008fe:	46bd      	mov	sp, r7
 8000900:	bd80      	pop	{r7, pc}

08000902 <HAL_DMA_Init>:
  * @param  hdma Pointer to a DMA_HandleTypeDef structure that contains
  *               the configuration information for the specified DMA Channel.  
  * @retval HAL status
  */
HAL_StatusTypeDef HAL_DMA_Init(DMA_HandleTypeDef *hdma)
{ 
 8000902:	b580      	push	{r7, lr}
 8000904:	b084      	sub	sp, #16
 8000906:	af00      	add	r7, sp, #0
 8000908:	6078      	str	r0, [r7, #4]
  uint32_t tmp = 0U;
 800090a:	2300      	movs	r3, #0
 800090c:	60fb      	str	r3, [r7, #12]
  
  /* Check the DMA handle allocation */
  if(NULL == hdma)
 800090e:	687b      	ldr	r3, [r7, #4]
 8000910:	2b00      	cmp	r3, #0
 8000912:	d101      	bne.n	8000918 <HAL_DMA_Init+0x16>
  {
    return HAL_ERROR;
 8000914:	2301      	movs	r3, #1
 8000916:	e037      	b.n	8000988 <HAL_DMA_Init+0x86>
  assert_param(IS_DMA_MEMORY_DATA_SIZE(hdma->Init.MemDataAlignment));
  assert_param(IS_DMA_MODE(hdma->Init.Mode));
  assert_param(IS_DMA_PRIORITY(hdma->Init.Priority));
  
  /* Change DMA peripheral state */
  hdma->State = HAL_DMA_STATE_BUSY;
 8000918:	687b      	ldr	r3, [r7, #4]
 800091a:	2202      	movs	r2, #2
 800091c:	f883 2021 	strb.w	r2, [r3, #33]	; 0x21

  /* Get the CR register value */
  tmp = hdma->Instance->CCR;
 8000920:	687b      	ldr	r3, [r7, #4]
 8000922:	681b      	ldr	r3, [r3, #0]
 8000924:	681b      	ldr	r3, [r3, #0]
 8000926:	60fb      	str	r3, [r7, #12]
  
  /* Clear PL, MSIZE, PSIZE, MINC, PINC, CIRC, DIR bits */
  tmp &= ((uint32_t)~(DMA_CCR_PL    | DMA_CCR_MSIZE  | DMA_CCR_PSIZE  | \
 8000928:	68fb      	ldr	r3, [r7, #12]
 800092a:	f423 537f 	bic.w	r3, r3, #16320	; 0x3fc0
 800092e:	f023 0330 	bic.w	r3, r3, #48	; 0x30
 8000932:	60fb      	str	r3, [r7, #12]
                      DMA_CCR_MINC  | DMA_CCR_PINC   | DMA_CCR_CIRC   | \
                      DMA_CCR_DIR));
  
  /* Prepare the DMA Channel configuration */
  tmp |=  hdma->Init.Direction        |
 8000934:	687b      	ldr	r3, [r7, #4]
 8000936:	685a      	ldr	r2, [r3, #4]
          hdma->Init.PeriphInc           | hdma->Init.MemInc           |
 8000938:	687b      	ldr	r3, [r7, #4]
 800093a:	689b      	ldr	r3, [r3, #8]
  tmp |=  hdma->Init.Direction        |
 800093c:	431a      	orrs	r2, r3
          hdma->Init.PeriphInc           | hdma->Init.MemInc           |
 800093e:	687b      	ldr	r3, [r7, #4]
 8000940:	68db      	ldr	r3, [r3, #12]
 8000942:	431a      	orrs	r2, r3
          hdma->Init.PeriphDataAlignment | hdma->Init.MemDataAlignment |
 8000944:	687b      	ldr	r3, [r7, #4]
 8000946:	691b      	ldr	r3, [r3, #16]
          hdma->Init.PeriphInc           | hdma->Init.MemInc           |
 8000948:	431a      	orrs	r2, r3
          hdma->Init.PeriphDataAlignment | hdma->Init.MemDataAlignment |
 800094a:	687b      	ldr	r3, [r7, #4]
 800094c:	695b      	ldr	r3, [r3, #20]
 800094e:	431a      	orrs	r2, r3
          hdma->Init.Mode                | hdma->Init.Priority;
 8000950:	687b      	ldr	r3, [r7, #4]
 8000952:	699b      	ldr	r3, [r3, #24]
          hdma->Init.PeriphDataAlignment | hdma->Init.MemDataAlignment |
 8000954:	431a      	orrs	r2, r3
          hdma->Init.Mode                | hdma->Init.Priority;
 8000956:	687b      	ldr	r3, [r7, #4]
 8000958:	69db      	ldr	r3, [r3, #28]
 800095a:	4313      	orrs	r3, r2
  tmp |=  hdma->Init.Direction        |
 800095c:	68fa      	ldr	r2, [r7, #12]
 800095e:	4313      	orrs	r3, r2
 8000960:	60fb      	str	r3, [r7, #12]

  /* Write to DMA Channel CR register */
  hdma->Instance->CCR = tmp;  
 8000962:	687b      	ldr	r3, [r7, #4]
 8000964:	681b      	ldr	r3, [r3, #0]
 8000966:	68fa      	ldr	r2, [r7, #12]
 8000968:	601a      	str	r2, [r3, #0]
  
  /* Initialize DmaBaseAddress and ChannelIndex parameters used 
     by HAL_DMA_IRQHandler() and HAL_DMA_PollForTransfer() */
  DMA_CalcBaseAndBitshift(hdma);
 800096a:	6878      	ldr	r0, [r7, #4]
 800096c:	f000 f940 	bl	8000bf0 <DMA_CalcBaseAndBitshift>
  
  /* Initialise the error code */
  hdma->ErrorCode = HAL_DMA_ERROR_NONE;
 8000970:	687b      	ldr	r3, [r7, #4]
 8000972:	2200      	movs	r2, #0
 8000974:	639a      	str	r2, [r3, #56]	; 0x38

  /* Initialize the DMA state*/
  hdma->State = HAL_DMA_STATE_READY;
 8000976:	687b      	ldr	r3, [r7, #4]
 8000978:	2201      	movs	r2, #1
 800097a:	f883 2021 	strb.w	r2, [r3, #33]	; 0x21
  
  /* Allocate lock resource and initialize it */
  hdma->Lock = HAL_UNLOCKED;
 800097e:	687b      	ldr	r3, [r7, #4]
 8000980:	2200      	movs	r2, #0
 8000982:	f883 2020 	strb.w	r2, [r3, #32]
  
  return HAL_OK;
 8000986:	2300      	movs	r3, #0
}  
 8000988:	4618      	mov	r0, r3
 800098a:	3710      	adds	r7, #16
 800098c:	46bd      	mov	sp, r7
 800098e:	bd80      	pop	{r7, pc}

08000990 <HAL_DMA_Start_IT>:
  * @param  DstAddress The destination memory Buffer address
  * @param  DataLength The length of data to be transferred from source to destination
  * @retval HAL status
  */
HAL_StatusTypeDef HAL_DMA_Start_IT(DMA_HandleTypeDef *hdma, uint32_t SrcAddress, uint32_t DstAddress, uint32_t DataLength)
{
 8000990:	b580      	push	{r7, lr}
 8000992:	b086      	sub	sp, #24
 8000994:	af00      	add	r7, sp, #0
 8000996:	60f8      	str	r0, [r7, #12]
 8000998:	60b9      	str	r1, [r7, #8]
 800099a:	607a      	str	r2, [r7, #4]
 800099c:	603b      	str	r3, [r7, #0]
	HAL_StatusTypeDef status = HAL_OK;
 800099e:	2300      	movs	r3, #0
 80009a0:	75fb      	strb	r3, [r7, #23]

  /* Check the parameters */
  assert_param(IS_DMA_BUFFER_SIZE(DataLength));
  
  /* Process locked */
  __HAL_LOCK(hdma);
 80009a2:	68fb      	ldr	r3, [r7, #12]
 80009a4:	f893 3020 	ldrb.w	r3, [r3, #32]
 80009a8:	2b01      	cmp	r3, #1
 80009aa:	d101      	bne.n	80009b0 <HAL_DMA_Start_IT+0x20>
 80009ac:	2302      	movs	r3, #2
 80009ae:	e04a      	b.n	8000a46 <HAL_DMA_Start_IT+0xb6>
 80009b0:	68fb      	ldr	r3, [r7, #12]
 80009b2:	2201      	movs	r2, #1
 80009b4:	f883 2020 	strb.w	r2, [r3, #32]
  
  if(HAL_DMA_STATE_READY == hdma->State)
 80009b8:	68fb      	ldr	r3, [r7, #12]
 80009ba:	f893 3021 	ldrb.w	r3, [r3, #33]	; 0x21
 80009be:	2b01      	cmp	r3, #1
 80009c0:	d13a      	bne.n	8000a38 <HAL_DMA_Start_IT+0xa8>
  {
  	/* Change DMA peripheral state */  
  	hdma->State = HAL_DMA_STATE_BUSY;
 80009c2:	68fb      	ldr	r3, [r7, #12]
 80009c4:	2202      	movs	r2, #2
 80009c6:	f883 2021 	strb.w	r2, [r3, #33]	; 0x21
  	
  	hdma->ErrorCode = HAL_DMA_ERROR_NONE;
 80009ca:	68fb      	ldr	r3, [r7, #12]
 80009cc:	2200      	movs	r2, #0
 80009ce:	639a      	str	r2, [r3, #56]	; 0x38
  	
  	/* Disable the peripheral */
  	hdma->Instance->CCR &= ~DMA_CCR_EN;
 80009d0:	68fb      	ldr	r3, [r7, #12]
 80009d2:	681b      	ldr	r3, [r3, #0]
 80009d4:	681a      	ldr	r2, [r3, #0]
 80009d6:	68fb      	ldr	r3, [r7, #12]
 80009d8:	681b      	ldr	r3, [r3, #0]
 80009da:	f022 0201 	bic.w	r2, r2, #1
 80009de:	601a      	str	r2, [r3, #0]
  	
  	/* Configure the source, destination address and the data length */  
  	DMA_SetConfig(hdma, SrcAddress, DstAddress, DataLength);
 80009e0:	683b      	ldr	r3, [r7, #0]
 80009e2:	687a      	ldr	r2, [r7, #4]
 80009e4:	68b9      	ldr	r1, [r7, #8]
 80009e6:	68f8      	ldr	r0, [r7, #12]
 80009e8:	f000 f8d4 	bl	8000b94 <DMA_SetConfig>
  	
  	/* Enable the transfer complete, & transfer error interrupts */
  	/* Half transfer interrupt is optional: enable it only if associated callback is available */
    if(NULL != hdma->XferHalfCpltCallback )
 80009ec:	68fb      	ldr	r3, [r7, #12]
 80009ee:	6adb      	ldr	r3, [r3, #44]	; 0x2c
 80009f0:	2b00      	cmp	r3, #0
 80009f2:	d008      	beq.n	8000a06 <HAL_DMA_Start_IT+0x76>
    {
      hdma->Instance->CCR |= (DMA_IT_TC | DMA_IT_HT | DMA_IT_TE);
 80009f4:	68fb      	ldr	r3, [r7, #12]
 80009f6:	681b      	ldr	r3, [r3, #0]
 80009f8:	681a      	ldr	r2, [r3, #0]
 80009fa:	68fb      	ldr	r3, [r7, #12]
 80009fc:	681b      	ldr	r3, [r3, #0]
 80009fe:	f042 020e 	orr.w	r2, r2, #14
 8000a02:	601a      	str	r2, [r3, #0]
 8000a04:	e00f      	b.n	8000a26 <HAL_DMA_Start_IT+0x96>
    }
  	else
  	{
  		hdma->Instance->CCR |= (DMA_IT_TC | DMA_IT_TE);
 8000a06:	68fb      	ldr	r3, [r7, #12]
 8000a08:	681b      	ldr	r3, [r3, #0]
 8000a0a:	681a      	ldr	r2, [r3, #0]
 8000a0c:	68fb      	ldr	r3, [r7, #12]
 8000a0e:	681b      	ldr	r3, [r3, #0]
 8000a10:	f042 020a 	orr.w	r2, r2, #10
 8000a14:	601a      	str	r2, [r3, #0]
  		hdma->Instance->CCR &= ~DMA_IT_HT;
 8000a16:	68fb      	ldr	r3, [r7, #12]
 8000a18:	681b      	ldr	r3, [r3, #0]
 8000a1a:	681a      	ldr	r2, [r3, #0]
 8000a1c:	68fb      	ldr	r3, [r7, #12]
 8000a1e:	681b      	ldr	r3, [r3, #0]
 8000a20:	f022 0204 	bic.w	r2, r2, #4
 8000a24:	601a      	str	r2, [r3, #0]
  	}
  	
  	/* Enable the Peripheral */
  	hdma->Instance->CCR |= DMA_CCR_EN;
 8000a26:	68fb      	ldr	r3, [r7, #12]
 8000a28:	681b      	ldr	r3, [r3, #0]
 8000a2a:	681a      	ldr	r2, [r3, #0]
 8000a2c:	68fb      	ldr	r3, [r7, #12]
 8000a2e:	681b      	ldr	r3, [r3, #0]
 8000a30:	f042 0201 	orr.w	r2, r2, #1
 8000a34:	601a      	str	r2, [r3, #0]
 8000a36:	e005      	b.n	8000a44 <HAL_DMA_Start_IT+0xb4>
  }
  else
  {
  	/* Process Unlocked */
    __HAL_UNLOCK(hdma); 
 8000a38:	68fb      	ldr	r3, [r7, #12]
 8000a3a:	2200      	movs	r2, #0
 8000a3c:	f883 2020 	strb.w	r2, [r3, #32]
  
    /* Remain BUSY */
    status = HAL_BUSY;
 8000a40:	2302      	movs	r3, #2
 8000a42:	75fb      	strb	r3, [r7, #23]
  }     
  
  return status;    
 8000a44:	7dfb      	ldrb	r3, [r7, #23]
} 
 8000a46:	4618      	mov	r0, r3
 8000a48:	3718      	adds	r7, #24
 8000a4a:	46bd      	mov	sp, r7
 8000a4c:	bd80      	pop	{r7, pc}

08000a4e <HAL_DMA_IRQHandler>:
  * @param  hdma pointer to a DMA_HandleTypeDef structure that contains
  *               the configuration information for the specified DMA Channel.  
  * @retval None
  */
void HAL_DMA_IRQHandler(DMA_HandleTypeDef *hdma)
{
 8000a4e:	b580      	push	{r7, lr}
 8000a50:	b084      	sub	sp, #16
 8000a52:	af00      	add	r7, sp, #0
 8000a54:	6078      	str	r0, [r7, #4]
	uint32_t flag_it = hdma->DmaBaseAddress->ISR;
 8000a56:	687b      	ldr	r3, [r7, #4]
 8000a58:	6bdb      	ldr	r3, [r3, #60]	; 0x3c
 8000a5a:	681b      	ldr	r3, [r3, #0]
 8000a5c:	60fb      	str	r3, [r7, #12]
  uint32_t source_it = hdma->Instance->CCR;
 8000a5e:	687b      	ldr	r3, [r7, #4]
 8000a60:	681b      	ldr	r3, [r3, #0]
 8000a62:	681b      	ldr	r3, [r3, #0]
 8000a64:	60bb      	str	r3, [r7, #8]
          
  /* Half Transfer Complete Interrupt management ******************************/
  if ((RESET != (flag_it & (DMA_FLAG_HT1 << hdma->ChannelIndex))) && (RESET != (source_it & DMA_IT_HT)))
 8000a66:	687b      	ldr	r3, [r7, #4]
 8000a68:	6c1b      	ldr	r3, [r3, #64]	; 0x40
 8000a6a:	2204      	movs	r2, #4
 8000a6c:	409a      	lsls	r2, r3
 8000a6e:	68fb      	ldr	r3, [r7, #12]
 8000a70:	4013      	ands	r3, r2
 8000a72:	2b00      	cmp	r3, #0
 8000a74:	d024      	beq.n	8000ac0 <HAL_DMA_IRQHandler+0x72>
 8000a76:	68bb      	ldr	r3, [r7, #8]
 8000a78:	f003 0304 	and.w	r3, r3, #4
 8000a7c:	2b00      	cmp	r3, #0
 8000a7e:	d01f      	beq.n	8000ac0 <HAL_DMA_IRQHandler+0x72>
  {
  	/* Disable the half transfer interrupt if the DMA mode is not CIRCULAR */
  	if((hdma->Instance->CCR & DMA_CCR_CIRC) == 0U)
 8000a80:	687b      	ldr	r3, [r7, #4]
 8000a82:	681b      	ldr	r3, [r3, #0]
 8000a84:	681b      	ldr	r3, [r3, #0]
 8000a86:	f003 0320 	and.w	r3, r3, #32
 8000a8a:	2b00      	cmp	r3, #0
 8000a8c:	d107      	bne.n	8000a9e <HAL_DMA_IRQHandler+0x50>
  	{
  		/* Disable the half transfer interrupt */
  		hdma->Instance->CCR &= ~DMA_IT_HT;
 8000a8e:	687b      	ldr	r3, [r7, #4]
 8000a90:	681b      	ldr	r3, [r3, #0]
 8000a92:	681a      	ldr	r2, [r3, #0]
 8000a94:	687b      	ldr	r3, [r7, #4]
 8000a96:	681b      	ldr	r3, [r3, #0]
 8000a98:	f022 0204 	bic.w	r2, r2, #4
 8000a9c:	601a      	str	r2, [r3, #0]
  	}
  	
  	/* Clear the half transfer complete flag */
  	hdma->DmaBaseAddress->IFCR = DMA_FLAG_HT1 << hdma->ChannelIndex;
 8000a9e:	687b      	ldr	r3, [r7, #4]
 8000aa0:	6c1a      	ldr	r2, [r3, #64]	; 0x40
 8000aa2:	687b      	ldr	r3, [r7, #4]
 8000aa4:	6bdb      	ldr	r3, [r3, #60]	; 0x3c
 8000aa6:	2104      	movs	r1, #4
 8000aa8:	fa01 f202 	lsl.w	r2, r1, r2
 8000aac:	605a      	str	r2, [r3, #4]
  	
  	/* DMA peripheral state is not updated in Half Transfer */
  	/* State is updated only in Transfer Complete case */
  	
  	if(hdma->XferHalfCpltCallback != NULL)
 8000aae:	687b      	ldr	r3, [r7, #4]
 8000ab0:	6adb      	ldr	r3, [r3, #44]	; 0x2c
 8000ab2:	2b00      	cmp	r3, #0
 8000ab4:	d06a      	beq.n	8000b8c <HAL_DMA_IRQHandler+0x13e>
  	{
  		/* Half transfer callback */
  		hdma->XferHalfCpltCallback(hdma);
 8000ab6:	687b      	ldr	r3, [r7, #4]
 8000ab8:	6adb      	ldr	r3, [r3, #44]	; 0x2c
 8000aba:	6878      	ldr	r0, [r7, #4]
 8000abc:	4798      	blx	r3
  	if(hdma->XferHalfCpltCallback != NULL)
 8000abe:	e065      	b.n	8000b8c <HAL_DMA_IRQHandler+0x13e>
  	}
  }
  
  /* Transfer Complete Interrupt management ***********************************/
  else if ((RESET != (flag_it & (DMA_FLAG_TC1 << hdma->ChannelIndex))) && (RESET != (source_it & DMA_IT_TC)))
 8000ac0:	687b      	ldr	r3, [r7, #4]
 8000ac2:	6c1b      	ldr	r3, [r3, #64]	; 0x40
 8000ac4:	2202      	movs	r2, #2
 8000ac6:	409a      	lsls	r2, r3
 8000ac8:	68fb      	ldr	r3, [r7, #12]
 8000aca:	4013      	ands	r3, r2
 8000acc:	2b00      	cmp	r3, #0
 8000ace:	d02c      	beq.n	8000b2a <HAL_DMA_IRQHandler+0xdc>
 8000ad0:	68bb      	ldr	r3, [r7, #8]
 8000ad2:	f003 0302 	and.w	r3, r3, #2
 8000ad6:	2b00      	cmp	r3, #0
 8000ad8:	d027      	beq.n	8000b2a <HAL_DMA_IRQHandler+0xdc>
  {
  	if((hdma->Instance->CCR & DMA_CCR_CIRC) == 0U)
 8000ada:	687b      	ldr	r3, [r7, #4]
 8000adc:	681b      	ldr	r3, [r3, #0]
 8000ade:	681b      	ldr	r3, [r3, #0]
 8000ae0:	f003 0320 	and.w	r3, r3, #32
 8000ae4:	2b00      	cmp	r3, #0
 8000ae6:	d10b      	bne.n	8000b00 <HAL_DMA_IRQHandler+0xb2>
  	{
  		/* Disable the transfer complete  & transfer error interrupts */
  		/* if the DMA mode is not CIRCULAR */
  		hdma->Instance->CCR &= ~(DMA_IT_TC | DMA_IT_TE);
 8000ae8:	687b      	ldr	r3, [r7, #4]
 8000aea:	681b      	ldr	r3, [r3, #0]
 8000aec:	681a      	ldr	r2, [r3, #0]
 8000aee:	687b      	ldr	r3, [r7, #4]
 8000af0:	681b      	ldr	r3, [r3, #0]
 8000af2:	f022 020a 	bic.w	r2, r2, #10
 8000af6:	601a      	str	r2, [r3, #0]
  		
  		/* Change the DMA state */
  		hdma->State = HAL_DMA_STATE_READY;
 8000af8:	687b      	ldr	r3, [r7, #4]
 8000afa:	2201      	movs	r2, #1
 8000afc:	f883 2021 	strb.w	r2, [r3, #33]	; 0x21
  	}
  	
  	/* Clear the transfer complete flag */
  	hdma->DmaBaseAddress->IFCR = DMA_FLAG_TC1 << hdma->ChannelIndex;
 8000b00:	687b      	ldr	r3, [r7, #4]
 8000b02:	6c1a      	ldr	r2, [r3, #64]	; 0x40
 8000b04:	687b      	ldr	r3, [r7, #4]
 8000b06:	6bdb      	ldr	r3, [r3, #60]	; 0x3c
 8000b08:	2102      	movs	r1, #2
 8000b0a:	fa01 f202 	lsl.w	r2, r1, r2
 8000b0e:	605a      	str	r2, [r3, #4]
  	
  	/* Process Unlocked */
  	__HAL_UNLOCK(hdma);
 8000b10:	687b      	ldr	r3, [r7, #4]
 8000b12:	2200      	movs	r2, #0
 8000b14:	f883 2020 	strb.w	r2, [r3, #32]
  	
  	if(hdma->XferCpltCallback != NULL)
 8000b18:	687b      	ldr	r3, [r7, #4]
 8000b1a:	6a9b      	ldr	r3, [r3, #40]	; 0x28
 8000b1c:	2b00      	cmp	r3, #0
 8000b1e:	d035      	beq.n	8000b8c <HAL_DMA_IRQHandler+0x13e>
  	{
  		/* Transfer complete callback */
  		hdma->XferCpltCallback(hdma);
 8000b20:	687b      	ldr	r3, [r7, #4]
 8000b22:	6a9b      	ldr	r3, [r3, #40]	; 0x28
 8000b24:	6878      	ldr	r0, [r7, #4]
 8000b26:	4798      	blx	r3
  	if(hdma->XferCpltCallback != NULL)
 8000b28:	e030      	b.n	8000b8c <HAL_DMA_IRQHandler+0x13e>
  	}
  }
  
  /* Transfer Error Interrupt management ***************************************/
  else if (( RESET != (flag_it & (DMA_FLAG_TE1 << hdma->ChannelIndex))) && (RESET != (source_it & DMA_IT_TE)))
 8000b2a:	687b      	ldr	r3, [r7, #4]
 8000b2c:	6c1b      	ldr	r3, [r3, #64]	; 0x40
 8000b2e:	2208      	movs	r2, #8
 8000b30:	409a      	lsls	r2, r3
 8000b32:	68fb      	ldr	r3, [r7, #12]
 8000b34:	4013      	ands	r3, r2
 8000b36:	2b00      	cmp	r3, #0
 8000b38:	d028      	beq.n	8000b8c <HAL_DMA_IRQHandler+0x13e>
 8000b3a:	68bb      	ldr	r3, [r7, #8]
 8000b3c:	f003 0308 	and.w	r3, r3, #8
 8000b40:	2b00      	cmp	r3, #0
 8000b42:	d023      	beq.n	8000b8c <HAL_DMA_IRQHandler+0x13e>
  {
  	/* When a DMA transfer error occurs */
    /* A hardware clear of its EN bits is performed */
    /* Then, disable all DMA interrupts */
    hdma->Instance->CCR &= ~(DMA_IT_TC | DMA_IT_HT | DMA_IT_TE);
 8000b44:	687b      	ldr	r3, [r7, #4]
 8000b46:	681b      	ldr	r3, [r3, #0]
 8000b48:	681a      	ldr	r2, [r3, #0]
 8000b4a:	687b      	ldr	r3, [r7, #4]
 8000b4c:	681b      	ldr	r3, [r3, #0]
 8000b4e:	f022 020e 	bic.w	r2, r2, #14
 8000b52:	601a      	str	r2, [r3, #0]
    
    /* Clear all flags */
    hdma->DmaBaseAddress->IFCR = DMA_FLAG_GL1 << hdma->ChannelIndex;
 8000b54:	687b      	ldr	r3, [r7, #4]
 8000b56:	6c1a      	ldr	r2, [r3, #64]	; 0x40
 8000b58:	687b      	ldr	r3, [r7, #4]
 8000b5a:	6bdb      	ldr	r3, [r3, #60]	; 0x3c
 8000b5c:	2101      	movs	r1, #1
 8000b5e:	fa01 f202 	lsl.w	r2, r1, r2
 8000b62:	605a      	str	r2, [r3, #4]
    
    /* Update error code */
    hdma->ErrorCode = HAL_DMA_ERROR_TE;
 8000b64:	687b      	ldr	r3, [r7, #4]
 8000b66:	2201      	movs	r2, #1
 8000b68:	639a      	str	r2, [r3, #56]	; 0x38
    
    /* Change the DMA state */
    hdma->State = HAL_DMA_STATE_READY;    
 8000b6a:	687b      	ldr	r3, [r7, #4]
 8000b6c:	2201      	movs	r2, #1
 8000b6e:	f883 2021 	strb.w	r2, [r3, #33]	; 0x21
    
    /* Process Unlocked */
    __HAL_UNLOCK(hdma); 
 8000b72:	687b      	ldr	r3, [r7, #4]
 8000b74:	2200      	movs	r2, #0
 8000b76:	f883 2020 	strb.w	r2, [r3, #32]
    
    if(hdma->XferErrorCallback != NULL)
 8000b7a:	687b      	ldr	r3, [r7, #4]
 8000b7c:	6b1b      	ldr	r3, [r3, #48]	; 0x30
 8000b7e:	2b00      	cmp	r3, #0
 8000b80:	d004      	beq.n	8000b8c <HAL_DMA_IRQHandler+0x13e>
    {
    	/* Transfer error callback */
    	hdma->XferErrorCallback(hdma);
 8000b82:	687b      	ldr	r3, [r7, #4]
 8000b84:	6b1b      	ldr	r3, [r3, #48]	; 0x30
 8000b86:	6878      	ldr	r0, [r7, #4]
 8000b88:	4798      	blx	r3
    }
  }
}  
 8000b8a:	e7ff      	b.n	8000b8c <HAL_DMA_IRQHandler+0x13e>
 8000b8c:	bf00      	nop
 8000b8e:	3710      	adds	r7, #16
 8000b90:	46bd      	mov	sp, r7
 8000b92:	bd80      	pop	{r7, pc}

08000b94 <DMA_SetConfig>:
  * @param  DstAddress The destination memory Buffer address
  * @param  DataLength The length of data to be transferred from source to destination
  * @retval HAL status
  */
static void DMA_SetConfig(DMA_HandleTypeDef *hdma, uint32_t SrcAddress, uint32_t DstAddress, uint32_t DataLength)
{
 8000b94:	b480      	push	{r7}
 8000b96:	b085      	sub	sp, #20
 8000b98:	af00      	add	r7, sp, #0
 8000b9a:	60f8      	str	r0, [r7, #12]
 8000b9c:	60b9      	str	r1, [r7, #8]
 8000b9e:	607a      	str	r2, [r7, #4]
 8000ba0:	603b      	str	r3, [r7, #0]
	/* Clear all flags */
  hdma->DmaBaseAddress->IFCR  = (DMA_FLAG_GL1 << hdma->ChannelIndex);
 8000ba2:	68fb      	ldr	r3, [r7, #12]
 8000ba4:	6c1a      	ldr	r2, [r3, #64]	; 0x40
 8000ba6:	68fb      	ldr	r3, [r7, #12]
 8000ba8:	6bdb      	ldr	r3, [r3, #60]	; 0x3c
 8000baa:	2101      	movs	r1, #1
 8000bac:	fa01 f202 	lsl.w	r2, r1, r2
 8000bb0:	605a      	str	r2, [r3, #4]
  
  /* Configure DMA Channel data length */
  hdma->Instance->CNDTR = DataLength;
 8000bb2:	68fb      	ldr	r3, [r7, #12]
 8000bb4:	681b      	ldr	r3, [r3, #0]
 8000bb6:	683a      	ldr	r2, [r7, #0]
 8000bb8:	605a      	str	r2, [r3, #4]
  
  /* Peripheral to Memory */
  if((hdma->Init.Direction) == DMA_MEMORY_TO_PERIPH)
 8000bba:	68fb      	ldr	r3, [r7, #12]
 8000bbc:	685b      	ldr	r3, [r3, #4]
 8000bbe:	2b10      	cmp	r3, #16
 8000bc0:	d108      	bne.n	8000bd4 <DMA_SetConfig+0x40>
  {   
    /* Configure DMA Channel destination address */
    hdma->Instance->CPAR = DstAddress;
 8000bc2:	68fb      	ldr	r3, [r7, #12]
 8000bc4:	681b      	ldr	r3, [r3, #0]
 8000bc6:	687a      	ldr	r2, [r7, #4]
 8000bc8:	609a      	str	r2, [r3, #8]
    
    /* Configure DMA Channel source address */
    hdma->Instance->CMAR = SrcAddress;
 8000bca:	68fb      	ldr	r3, [r7, #12]
 8000bcc:	681b      	ldr	r3, [r3, #0]
 8000bce:	68ba      	ldr	r2, [r7, #8]
 8000bd0:	60da      	str	r2, [r3, #12]
    hdma->Instance->CPAR = SrcAddress;
    
    /* Configure DMA Channel destination address */
    hdma->Instance->CMAR = DstAddress;
  }
}
 8000bd2:	e007      	b.n	8000be4 <DMA_SetConfig+0x50>
    hdma->Instance->CPAR = SrcAddress;
 8000bd4:	68fb      	ldr	r3, [r7, #12]
 8000bd6:	681b      	ldr	r3, [r3, #0]
 8000bd8:	68ba      	ldr	r2, [r7, #8]
 8000bda:	609a      	str	r2, [r3, #8]
    hdma->Instance->CMAR = DstAddress;
 8000bdc:	68fb      	ldr	r3, [r7, #12]
 8000bde:	681b      	ldr	r3, [r3, #0]
 8000be0:	687a      	ldr	r2, [r7, #4]
 8000be2:	60da      	str	r2, [r3, #12]
}
 8000be4:	bf00      	nop
 8000be6:	3714      	adds	r7, #20
 8000be8:	46bd      	mov	sp, r7
 8000bea:	f85d 7b04 	ldr.w	r7, [sp], #4
 8000bee:	4770      	bx	lr

08000bf0 <DMA_CalcBaseAndBitshift>:
  * @param  hdma       pointer to a DMA_HandleTypeDef structure that contains
  *                     the configuration information for the specified DMA Stream. 
  * @retval None
  */
static void DMA_CalcBaseAndBitshift(DMA_HandleTypeDef *hdma)
{
 8000bf0:	b480      	push	{r7}
 8000bf2:	b083      	sub	sp, #12
 8000bf4:	af00      	add	r7, sp, #0
 8000bf6:	6078      	str	r0, [r7, #4]
    hdma->DmaBaseAddress = DMA2;
  }
#else
  /* calculation of the channel index */
  /* DMA1 */
  hdma->ChannelIndex = (((uint32_t)hdma->Instance - (uint32_t)DMA1_Channel1) / ((uint32_t)DMA1_Channel2 - (uint32_t)DMA1_Channel1)) << 2U;
 8000bf8:	687b      	ldr	r3, [r7, #4]
 8000bfa:	681b      	ldr	r3, [r3, #0]
 8000bfc:	461a      	mov	r2, r3
 8000bfe:	4b09      	ldr	r3, [pc, #36]	; (8000c24 <DMA_CalcBaseAndBitshift+0x34>)
 8000c00:	4413      	add	r3, r2
 8000c02:	4a09      	ldr	r2, [pc, #36]	; (8000c28 <DMA_CalcBaseAndBitshift+0x38>)
 8000c04:	fba2 2303 	umull	r2, r3, r2, r3
 8000c08:	091b      	lsrs	r3, r3, #4
 8000c0a:	009a      	lsls	r2, r3, #2
 8000c0c:	687b      	ldr	r3, [r7, #4]
 8000c0e:	641a      	str	r2, [r3, #64]	; 0x40
  hdma->DmaBaseAddress = DMA1;
 8000c10:	687b      	ldr	r3, [r7, #4]
 8000c12:	4a06      	ldr	r2, [pc, #24]	; (8000c2c <DMA_CalcBaseAndBitshift+0x3c>)
 8000c14:	63da      	str	r2, [r3, #60]	; 0x3c
#endif
}
 8000c16:	bf00      	nop
 8000c18:	370c      	adds	r7, #12
 8000c1a:	46bd      	mov	sp, r7
 8000c1c:	f85d 7b04 	ldr.w	r7, [sp], #4
 8000c20:	4770      	bx	lr
 8000c22:	bf00      	nop
 8000c24:	bffdfff8 	.word	0xbffdfff8
 8000c28:	cccccccd 	.word	0xcccccccd
 8000c2c:	40020000 	.word	0x40020000

08000c30 <HAL_GPIO_Init>:
  * @param  GPIO_Init pointer to a GPIO_InitTypeDef structure that contains
  *         the configuration information for the specified GPIO peripheral.
  * @retval None
  */
void HAL_GPIO_Init(GPIO_TypeDef  *GPIOx, GPIO_InitTypeDef *GPIO_Init)
{
 8000c30:	b480      	push	{r7}
 8000c32:	b087      	sub	sp, #28
 8000c34:	af00      	add	r7, sp, #0
 8000c36:	6078      	str	r0, [r7, #4]
 8000c38:	6039      	str	r1, [r7, #0]
  uint32_t position = 0x00u;
 8000c3a:	2300      	movs	r3, #0
 8000c3c:	617b      	str	r3, [r7, #20]
  assert_param(IS_GPIO_ALL_INSTANCE(GPIOx));
  assert_param(IS_GPIO_PIN(GPIO_Init->Pin));
  assert_param(IS_GPIO_MODE(GPIO_Init->Mode));

  /* Configure the port pins */
  while (((GPIO_Init->Pin) >> position) != 0x00u)
 8000c3e:	e14e      	b.n	8000ede <HAL_GPIO_Init+0x2ae>
  {
    /* Get current io position */
    iocurrent = (GPIO_Init->Pin) & (1uL << position);
 8000c40:	683b      	ldr	r3, [r7, #0]
 8000c42:	681a      	ldr	r2, [r3, #0]
 8000c44:	2101      	movs	r1, #1
 8000c46:	697b      	ldr	r3, [r7, #20]
 8000c48:	fa01 f303 	lsl.w	r3, r1, r3
 8000c4c:	4013      	ands	r3, r2
 8000c4e:	60fb      	str	r3, [r7, #12]

    if (iocurrent != 0x00u)
 8000c50:	68fb      	ldr	r3, [r7, #12]
 8000c52:	2b00      	cmp	r3, #0
 8000c54:	f000 8140 	beq.w	8000ed8 <HAL_GPIO_Init+0x2a8>
    {
      /*--------------------- GPIO Mode Configuration ------------------------*/
      /* In case of Output or Alternate function mode selection */
      if(((GPIO_Init->Mode & GPIO_MODE) == MODE_OUTPUT) || ((GPIO_Init->Mode & GPIO_MODE) == MODE_AF))
 8000c58:	683b      	ldr	r3, [r7, #0]
 8000c5a:	685b      	ldr	r3, [r3, #4]
 8000c5c:	f003 0303 	and.w	r3, r3, #3
 8000c60:	2b01      	cmp	r3, #1
 8000c62:	d005      	beq.n	8000c70 <HAL_GPIO_Init+0x40>
 8000c64:	683b      	ldr	r3, [r7, #0]
 8000c66:	685b      	ldr	r3, [r3, #4]
 8000c68:	f003 0303 	and.w	r3, r3, #3
 8000c6c:	2b02      	cmp	r3, #2
 8000c6e:	d130      	bne.n	8000cd2 <HAL_GPIO_Init+0xa2>
      {
        /* Check the Speed parameter */
        assert_param(IS_GPIO_SPEED(GPIO_Init->Speed));
        /* Configure the IO Speed */
        temp = GPIOx->OSPEEDR;
 8000c70:	687b      	ldr	r3, [r7, #4]
 8000c72:	689b      	ldr	r3, [r3, #8]
 8000c74:	613b      	str	r3, [r7, #16]
        temp &= ~(GPIO_OSPEEDER_OSPEEDR0 << (position * 2u));
 8000c76:	697b      	ldr	r3, [r7, #20]
 8000c78:	005b      	lsls	r3, r3, #1
 8000c7a:	2203      	movs	r2, #3
 8000c7c:	fa02 f303 	lsl.w	r3, r2, r3
 8000c80:	43db      	mvns	r3, r3
 8000c82:	693a      	ldr	r2, [r7, #16]
 8000c84:	4013      	ands	r3, r2
 8000c86:	613b      	str	r3, [r7, #16]
        temp |= (GPIO_Init->Speed << (position * 2u));
 8000c88:	683b      	ldr	r3, [r7, #0]
 8000c8a:	68da      	ldr	r2, [r3, #12]
 8000c8c:	697b      	ldr	r3, [r7, #20]
 8000c8e:	005b      	lsls	r3, r3, #1
 8000c90:	fa02 f303 	lsl.w	r3, r2, r3
 8000c94:	693a      	ldr	r2, [r7, #16]
 8000c96:	4313      	orrs	r3, r2
 8000c98:	613b      	str	r3, [r7, #16]
        GPIOx->OSPEEDR = temp;
 8000c9a:	687b      	ldr	r3, [r7, #4]
 8000c9c:	693a      	ldr	r2, [r7, #16]
 8000c9e:	609a      	str	r2, [r3, #8]

        /* Configure the IO Output Type */
        temp = GPIOx->OTYPER;
 8000ca0:	687b      	ldr	r3, [r7, #4]
 8000ca2:	685b      	ldr	r3, [r3, #4]
 8000ca4:	613b      	str	r3, [r7, #16]
        temp &= ~(GPIO_OTYPER_OT_0 << position) ;
 8000ca6:	2201      	movs	r2, #1
 8000ca8:	697b      	ldr	r3, [r7, #20]
 8000caa:	fa02 f303 	lsl.w	r3, r2, r3
 8000cae:	43db      	mvns	r3, r3
 8000cb0:	693a      	ldr	r2, [r7, #16]
 8000cb2:	4013      	ands	r3, r2
 8000cb4:	613b      	str	r3, [r7, #16]
        temp |= (((GPIO_Init->Mode & OUTPUT_TYPE) >> OUTPUT_TYPE_Pos) << position);
 8000cb6:	683b      	ldr	r3, [r7, #0]
 8000cb8:	685b      	ldr	r3, [r3, #4]
 8000cba:	091b      	lsrs	r3, r3, #4
 8000cbc:	f003 0201 	and.w	r2, r3, #1
 8000cc0:	697b      	ldr	r3, [r7, #20]
 8000cc2:	fa02 f303 	lsl.w	r3, r2, r3
 8000cc6:	693a      	ldr	r2, [r7, #16]
 8000cc8:	4313      	orrs	r3, r2
 8000cca:	613b      	str	r3, [r7, #16]
        GPIOx->OTYPER = temp;
 8000ccc:	687b      	ldr	r3, [r7, #4]
 8000cce:	693a      	ldr	r2, [r7, #16]
 8000cd0:	605a      	str	r2, [r3, #4]
      }

      if((GPIO_Init->Mode & GPIO_MODE) != MODE_ANALOG)
 8000cd2:	683b      	ldr	r3, [r7, #0]
 8000cd4:	685b      	ldr	r3, [r3, #4]
 8000cd6:	f003 0303 	and.w	r3, r3, #3
 8000cda:	2b03      	cmp	r3, #3
 8000cdc:	d017      	beq.n	8000d0e <HAL_GPIO_Init+0xde>
      {
        /* Check the Pull parameter */
        assert_param(IS_GPIO_PULL(GPIO_Init->Pull));

        /* Activate the Pull-up or Pull down resistor for the current IO */
        temp = GPIOx->PUPDR;
 8000cde:	687b      	ldr	r3, [r7, #4]
 8000ce0:	68db      	ldr	r3, [r3, #12]
 8000ce2:	613b      	str	r3, [r7, #16]
        temp &= ~(GPIO_PUPDR_PUPDR0 << (position * 2u));
 8000ce4:	697b      	ldr	r3, [r7, #20]
 8000ce6:	005b      	lsls	r3, r3, #1
 8000ce8:	2203      	movs	r2, #3
 8000cea:	fa02 f303 	lsl.w	r3, r2, r3
 8000cee:	43db      	mvns	r3, r3
 8000cf0:	693a      	ldr	r2, [r7, #16]
 8000cf2:	4013      	ands	r3, r2
 8000cf4:	613b      	str	r3, [r7, #16]
        temp |= ((GPIO_Init->Pull) << (position * 2u));
 8000cf6:	683b      	ldr	r3, [r7, #0]
 8000cf8:	689a      	ldr	r2, [r3, #8]
 8000cfa:	697b      	ldr	r3, [r7, #20]
 8000cfc:	005b      	lsls	r3, r3, #1
 8000cfe:	fa02 f303 	lsl.w	r3, r2, r3
 8000d02:	693a      	ldr	r2, [r7, #16]
 8000d04:	4313      	orrs	r3, r2
 8000d06:	613b      	str	r3, [r7, #16]
        GPIOx->PUPDR = temp;
 8000d08:	687b      	ldr	r3, [r7, #4]
 8000d0a:	693a      	ldr	r2, [r7, #16]
 8000d0c:	60da      	str	r2, [r3, #12]
      }

      /*--------------------- GPIO Mode Configuration ------------------------*/
      /* In case of Alternate function mode selection */
      if((GPIO_Init->Mode & GPIO_MODE) == MODE_AF)
 8000d0e:	683b      	ldr	r3, [r7, #0]
 8000d10:	685b      	ldr	r3, [r3, #4]
 8000d12:	f003 0303 	and.w	r3, r3, #3
 8000d16:	2b02      	cmp	r3, #2
 8000d18:	d123      	bne.n	8000d62 <HAL_GPIO_Init+0x132>
        /* Check the Alternate function parameters */
        assert_param(IS_GPIO_AF_INSTANCE(GPIOx));
        assert_param(IS_GPIO_AF(GPIO_Init->Alternate));

        /* Configure Alternate function mapped with the current IO */
        temp = GPIOx->AFR[position >> 3u];
 8000d1a:	697b      	ldr	r3, [r7, #20]
 8000d1c:	08da      	lsrs	r2, r3, #3
 8000d1e:	687b      	ldr	r3, [r7, #4]
 8000d20:	3208      	adds	r2, #8
 8000d22:	f853 3022 	ldr.w	r3, [r3, r2, lsl #2]
 8000d26:	613b      	str	r3, [r7, #16]
        temp &= ~(0xFu << ((position & 0x07u) * 4u));
 8000d28:	697b      	ldr	r3, [r7, #20]
 8000d2a:	f003 0307 	and.w	r3, r3, #7
 8000d2e:	009b      	lsls	r3, r3, #2
 8000d30:	220f      	movs	r2, #15
 8000d32:	fa02 f303 	lsl.w	r3, r2, r3
 8000d36:	43db      	mvns	r3, r3
 8000d38:	693a      	ldr	r2, [r7, #16]
 8000d3a:	4013      	ands	r3, r2
 8000d3c:	613b      	str	r3, [r7, #16]
        temp |= ((GPIO_Init->Alternate) << ((position & 0x07u) * 4u));
 8000d3e:	683b      	ldr	r3, [r7, #0]
 8000d40:	691a      	ldr	r2, [r3, #16]
 8000d42:	697b      	ldr	r3, [r7, #20]
 8000d44:	f003 0307 	and.w	r3, r3, #7
 8000d48:	009b      	lsls	r3, r3, #2
 8000d4a:	fa02 f303 	lsl.w	r3, r2, r3
 8000d4e:	693a      	ldr	r2, [r7, #16]
 8000d50:	4313      	orrs	r3, r2
 8000d52:	613b      	str	r3, [r7, #16]
        GPIOx->AFR[position >> 3u] = temp;
 8000d54:	697b      	ldr	r3, [r7, #20]
 8000d56:	08da      	lsrs	r2, r3, #3
 8000d58:	687b      	ldr	r3, [r7, #4]
 8000d5a:	3208      	adds	r2, #8
 8000d5c:	6939      	ldr	r1, [r7, #16]
 8000d5e:	f843 1022 	str.w	r1, [r3, r2, lsl #2]
      }

      /* Configure IO Direction mode (Input, Output, Alternate or Analog) */
      temp = GPIOx->MODER;
 8000d62:	687b      	ldr	r3, [r7, #4]
 8000d64:	681b      	ldr	r3, [r3, #0]
 8000d66:	613b      	str	r3, [r7, #16]
      temp &= ~(GPIO_MODER_MODER0 << (position * 2u));
 8000d68:	697b      	ldr	r3, [r7, #20]
 8000d6a:	005b      	lsls	r3, r3, #1
 8000d6c:	2203      	movs	r2, #3
 8000d6e:	fa02 f303 	lsl.w	r3, r2, r3
 8000d72:	43db      	mvns	r3, r3
 8000d74:	693a      	ldr	r2, [r7, #16]
 8000d76:	4013      	ands	r3, r2
 8000d78:	613b      	str	r3, [r7, #16]
      temp |= ((GPIO_Init->Mode & GPIO_MODE) << (position * 2u));
 8000d7a:	683b      	ldr	r3, [r7, #0]
 8000d7c:	685b      	ldr	r3, [r3, #4]
 8000d7e:	f003 0203 	and.w	r2, r3, #3
 8000d82:	697b      	ldr	r3, [r7, #20]
 8000d84:	005b      	lsls	r3, r3, #1
 8000d86:	fa02 f303 	lsl.w	r3, r2, r3
 8000d8a:	693a      	ldr	r2, [r7, #16]
 8000d8c:	4313      	orrs	r3, r2
 8000d8e:	613b      	str	r3, [r7, #16]
      GPIOx->MODER = temp;
 8000d90:	687b      	ldr	r3, [r7, #4]
 8000d92:	693a      	ldr	r2, [r7, #16]
 8000d94:	601a      	str	r2, [r3, #0]

      /*--------------------- EXTI Mode Configuration ------------------------*/
      /* Configure the External Interrupt or event for the current IO */
      if((GPIO_Init->Mode & EXTI_MODE) != 0x00u)
 8000d96:	683b      	ldr	r3, [r7, #0]
 8000d98:	685b      	ldr	r3, [r3, #4]
 8000d9a:	f403 3340 	and.w	r3, r3, #196608	; 0x30000
 8000d9e:	2b00      	cmp	r3, #0
 8000da0:	f000 809a 	beq.w	8000ed8 <HAL_GPIO_Init+0x2a8>
      {
        /* Enable SYSCFG Clock */
        __HAL_RCC_SYSCFG_CLK_ENABLE();
 8000da4:	4b55      	ldr	r3, [pc, #340]	; (8000efc <HAL_GPIO_Init+0x2cc>)
 8000da6:	699b      	ldr	r3, [r3, #24]
 8000da8:	4a54      	ldr	r2, [pc, #336]	; (8000efc <HAL_GPIO_Init+0x2cc>)
 8000daa:	f043 0301 	orr.w	r3, r3, #1
 8000dae:	6193      	str	r3, [r2, #24]
 8000db0:	4b52      	ldr	r3, [pc, #328]	; (8000efc <HAL_GPIO_Init+0x2cc>)
 8000db2:	699b      	ldr	r3, [r3, #24]
 8000db4:	f003 0301 	and.w	r3, r3, #1
 8000db8:	60bb      	str	r3, [r7, #8]
 8000dba:	68bb      	ldr	r3, [r7, #8]

        temp = SYSCFG->EXTICR[position >> 2u];
 8000dbc:	4a50      	ldr	r2, [pc, #320]	; (8000f00 <HAL_GPIO_Init+0x2d0>)
 8000dbe:	697b      	ldr	r3, [r7, #20]
 8000dc0:	089b      	lsrs	r3, r3, #2
 8000dc2:	3302      	adds	r3, #2
 8000dc4:	f852 3023 	ldr.w	r3, [r2, r3, lsl #2]
 8000dc8:	613b      	str	r3, [r7, #16]
        temp &= ~(0x0FuL << (4u * (position & 0x03u)));
 8000dca:	697b      	ldr	r3, [r7, #20]
 8000dcc:	f003 0303 	and.w	r3, r3, #3
 8000dd0:	009b      	lsls	r3, r3, #2
 8000dd2:	220f      	movs	r2, #15
 8000dd4:	fa02 f303 	lsl.w	r3, r2, r3
 8000dd8:	43db      	mvns	r3, r3
 8000dda:	693a      	ldr	r2, [r7, #16]
 8000ddc:	4013      	ands	r3, r2
 8000dde:	613b      	str	r3, [r7, #16]
        temp |= (GPIO_GET_INDEX(GPIOx) << (4u * (position & 0x03u)));
 8000de0:	687b      	ldr	r3, [r7, #4]
 8000de2:	f1b3 4f90 	cmp.w	r3, #1207959552	; 0x48000000
 8000de6:	d013      	beq.n	8000e10 <HAL_GPIO_Init+0x1e0>
 8000de8:	687b      	ldr	r3, [r7, #4]
 8000dea:	4a46      	ldr	r2, [pc, #280]	; (8000f04 <HAL_GPIO_Init+0x2d4>)
 8000dec:	4293      	cmp	r3, r2
 8000dee:	d00d      	beq.n	8000e0c <HAL_GPIO_Init+0x1dc>
 8000df0:	687b      	ldr	r3, [r7, #4]
 8000df2:	4a45      	ldr	r2, [pc, #276]	; (8000f08 <HAL_GPIO_Init+0x2d8>)
 8000df4:	4293      	cmp	r3, r2
 8000df6:	d007      	beq.n	8000e08 <HAL_GPIO_Init+0x1d8>
 8000df8:	687b      	ldr	r3, [r7, #4]
 8000dfa:	4a44      	ldr	r2, [pc, #272]	; (8000f0c <HAL_GPIO_Init+0x2dc>)
 8000dfc:	4293      	cmp	r3, r2
 8000dfe:	d101      	bne.n	8000e04 <HAL_GPIO_Init+0x1d4>
 8000e00:	2303      	movs	r3, #3
 8000e02:	e006      	b.n	8000e12 <HAL_GPIO_Init+0x1e2>
 8000e04:	2305      	movs	r3, #5
 8000e06:	e004      	b.n	8000e12 <HAL_GPIO_Init+0x1e2>
 8000e08:	2302      	movs	r3, #2
 8000e0a:	e002      	b.n	8000e12 <HAL_GPIO_Init+0x1e2>
 8000e0c:	2301      	movs	r3, #1
 8000e0e:	e000      	b.n	8000e12 <HAL_GPIO_Init+0x1e2>
 8000e10:	2300      	movs	r3, #0
 8000e12:	697a      	ldr	r2, [r7, #20]
 8000e14:	f002 0203 	and.w	r2, r2, #3
 8000e18:	0092      	lsls	r2, r2, #2
 8000e1a:	4093      	lsls	r3, r2
 8000e1c:	693a      	ldr	r2, [r7, #16]
 8000e1e:	4313      	orrs	r3, r2
 8000e20:	613b      	str	r3, [r7, #16]
        SYSCFG->EXTICR[position >> 2u] = temp;
 8000e22:	4937      	ldr	r1, [pc, #220]	; (8000f00 <HAL_GPIO_Init+0x2d0>)
 8000e24:	697b      	ldr	r3, [r7, #20]
 8000e26:	089b      	lsrs	r3, r3, #2
 8000e28:	3302      	adds	r3, #2
 8000e2a:	693a      	ldr	r2, [r7, #16]
 8000e2c:	f841 2023 	str.w	r2, [r1, r3, lsl #2]

        /* Clear Rising Falling edge configuration */
        temp = EXTI->RTSR;
 8000e30:	4b37      	ldr	r3, [pc, #220]	; (8000f10 <HAL_GPIO_Init+0x2e0>)
 8000e32:	689b      	ldr	r3, [r3, #8]
 8000e34:	613b      	str	r3, [r7, #16]
        temp &= ~(iocurrent);
 8000e36:	68fb      	ldr	r3, [r7, #12]
 8000e38:	43db      	mvns	r3, r3
 8000e3a:	693a      	ldr	r2, [r7, #16]
 8000e3c:	4013      	ands	r3, r2
 8000e3e:	613b      	str	r3, [r7, #16]
        if((GPIO_Init->Mode & TRIGGER_RISING) != 0x00u)
 8000e40:	683b      	ldr	r3, [r7, #0]
 8000e42:	685b      	ldr	r3, [r3, #4]
 8000e44:	f403 1380 	and.w	r3, r3, #1048576	; 0x100000
 8000e48:	2b00      	cmp	r3, #0
 8000e4a:	d003      	beq.n	8000e54 <HAL_GPIO_Init+0x224>
        {
          temp |= iocurrent;
 8000e4c:	693a      	ldr	r2, [r7, #16]
 8000e4e:	68fb      	ldr	r3, [r7, #12]
 8000e50:	4313      	orrs	r3, r2
 8000e52:	613b      	str	r3, [r7, #16]
        }
        EXTI->RTSR = temp;
 8000e54:	4a2e      	ldr	r2, [pc, #184]	; (8000f10 <HAL_GPIO_Init+0x2e0>)
 8000e56:	693b      	ldr	r3, [r7, #16]
 8000e58:	6093      	str	r3, [r2, #8]

        temp = EXTI->FTSR;
 8000e5a:	4b2d      	ldr	r3, [pc, #180]	; (8000f10 <HAL_GPIO_Init+0x2e0>)
 8000e5c:	68db      	ldr	r3, [r3, #12]
 8000e5e:	613b      	str	r3, [r7, #16]
        temp &= ~(iocurrent);
 8000e60:	68fb      	ldr	r3, [r7, #12]
 8000e62:	43db      	mvns	r3, r3
 8000e64:	693a      	ldr	r2, [r7, #16]
 8000e66:	4013      	ands	r3, r2
 8000e68:	613b      	str	r3, [r7, #16]
        if((GPIO_Init->Mode & TRIGGER_FALLING) != 0x00u)
 8000e6a:	683b      	ldr	r3, [r7, #0]
 8000e6c:	685b      	ldr	r3, [r3, #4]
 8000e6e:	f403 1300 	and.w	r3, r3, #2097152	; 0x200000
 8000e72:	2b00      	cmp	r3, #0
 8000e74:	d003      	beq.n	8000e7e <HAL_GPIO_Init+0x24e>
        {
          temp |= iocurrent;
 8000e76:	693a      	ldr	r2, [r7, #16]
 8000e78:	68fb      	ldr	r3, [r7, #12]
 8000e7a:	4313      	orrs	r3, r2
 8000e7c:	613b      	str	r3, [r7, #16]
        }
        EXTI->FTSR = temp;
 8000e7e:	4a24      	ldr	r2, [pc, #144]	; (8000f10 <HAL_GPIO_Init+0x2e0>)
 8000e80:	693b      	ldr	r3, [r7, #16]
 8000e82:	60d3      	str	r3, [r2, #12]

        temp = EXTI->EMR;
 8000e84:	4b22      	ldr	r3, [pc, #136]	; (8000f10 <HAL_GPIO_Init+0x2e0>)
 8000e86:	685b      	ldr	r3, [r3, #4]
 8000e88:	613b      	str	r3, [r7, #16]
        temp &= ~(iocurrent);
 8000e8a:	68fb      	ldr	r3, [r7, #12]
 8000e8c:	43db      	mvns	r3, r3
 8000e8e:	693a      	ldr	r2, [r7, #16]
 8000e90:	4013      	ands	r3, r2
 8000e92:	613b      	str	r3, [r7, #16]
        if((GPIO_Init->Mode & EXTI_EVT) != 0x00u)
 8000e94:	683b      	ldr	r3, [r7, #0]
 8000e96:	685b      	ldr	r3, [r3, #4]
 8000e98:	f403 3300 	and.w	r3, r3, #131072	; 0x20000
 8000e9c:	2b00      	cmp	r3, #0
 8000e9e:	d003      	beq.n	8000ea8 <HAL_GPIO_Init+0x278>
        {
          temp |= iocurrent;
 8000ea0:	693a      	ldr	r2, [r7, #16]
 8000ea2:	68fb      	ldr	r3, [r7, #12]
 8000ea4:	4313      	orrs	r3, r2
 8000ea6:	613b      	str	r3, [r7, #16]
        }
        EXTI->EMR = temp;
 8000ea8:	4a19      	ldr	r2, [pc, #100]	; (8000f10 <HAL_GPIO_Init+0x2e0>)
 8000eaa:	693b      	ldr	r3, [r7, #16]
 8000eac:	6053      	str	r3, [r2, #4]

        /* Clear EXTI line configuration */
        temp = EXTI->IMR;
 8000eae:	4b18      	ldr	r3, [pc, #96]	; (8000f10 <HAL_GPIO_Init+0x2e0>)
 8000eb0:	681b      	ldr	r3, [r3, #0]
 8000eb2:	613b      	str	r3, [r7, #16]
        temp &= ~(iocurrent);
 8000eb4:	68fb      	ldr	r3, [r7, #12]
 8000eb6:	43db      	mvns	r3, r3
 8000eb8:	693a      	ldr	r2, [r7, #16]
 8000eba:	4013      	ands	r3, r2
 8000ebc:	613b      	str	r3, [r7, #16]
        if((GPIO_Init->Mode & EXTI_IT) != 0x00u)
 8000ebe:	683b      	ldr	r3, [r7, #0]
 8000ec0:	685b      	ldr	r3, [r3, #4]
 8000ec2:	f403 3380 	and.w	r3, r3, #65536	; 0x10000
 8000ec6:	2b00      	cmp	r3, #0
 8000ec8:	d003      	beq.n	8000ed2 <HAL_GPIO_Init+0x2a2>
        {
          temp |= iocurrent;
 8000eca:	693a      	ldr	r2, [r7, #16]
 8000ecc:	68fb      	ldr	r3, [r7, #12]
 8000ece:	4313      	orrs	r3, r2
 8000ed0:	613b      	str	r3, [r7, #16]
        }
        EXTI->IMR = temp;
 8000ed2:	4a0f      	ldr	r2, [pc, #60]	; (8000f10 <HAL_GPIO_Init+0x2e0>)
 8000ed4:	693b      	ldr	r3, [r7, #16]
 8000ed6:	6013      	str	r3, [r2, #0]
      }
    }

    position++;
 8000ed8:	697b      	ldr	r3, [r7, #20]
 8000eda:	3301      	adds	r3, #1
 8000edc:	617b      	str	r3, [r7, #20]
  while (((GPIO_Init->Pin) >> position) != 0x00u)
 8000ede:	683b      	ldr	r3, [r7, #0]
 8000ee0:	681a      	ldr	r2, [r3, #0]
 8000ee2:	697b      	ldr	r3, [r7, #20]
 8000ee4:	fa22 f303 	lsr.w	r3, r2, r3
 8000ee8:	2b00      	cmp	r3, #0
 8000eea:	f47f aea9 	bne.w	8000c40 <HAL_GPIO_Init+0x10>
  }
}
 8000eee:	bf00      	nop
 8000ef0:	bf00      	nop
 8000ef2:	371c      	adds	r7, #28
 8000ef4:	46bd      	mov	sp, r7
 8000ef6:	f85d 7b04 	ldr.w	r7, [sp], #4
 8000efa:	4770      	bx	lr
 8000efc:	40021000 	.word	0x40021000
 8000f00:	40010000 	.word	0x40010000
 8000f04:	48000400 	.word	0x48000400
 8000f08:	48000800 	.word	0x48000800
 8000f0c:	48000c00 	.word	0x48000c00
 8000f10:	40010400 	.word	0x40010400

08000f14 <HAL_RCC_OscConfig>:
  *         supported by this macro. User should request a transition to HSE Off
  *         first and then HSE On or HSE Bypass.
  * @retval HAL status
  */
HAL_StatusTypeDef HAL_RCC_OscConfig(RCC_OscInitTypeDef  *RCC_OscInitStruct)
{
 8000f14:	b580      	push	{r7, lr}
 8000f16:	f5ad 7d00 	sub.w	sp, sp, #512	; 0x200
 8000f1a:	af00      	add	r7, sp, #0
 8000f1c:	f507 7300 	add.w	r3, r7, #512	; 0x200
 8000f20:	f5a3 73fe 	sub.w	r3, r3, #508	; 0x1fc
 8000f24:	6018      	str	r0, [r3, #0]
#if defined(RCC_CFGR_PLLSRC_HSI_PREDIV)
  uint32_t pll_config2;
#endif /* RCC_CFGR_PLLSRC_HSI_PREDIV */

  /* Check Null pointer */
  if(RCC_OscInitStruct == NULL)
 8000f26:	f507 7300 	add.w	r3, r7, #512	; 0x200
 8000f2a:	f5a3 73fe 	sub.w	r3, r3, #508	; 0x1fc
 8000f2e:	681b      	ldr	r3, [r3, #0]
 8000f30:	2b00      	cmp	r3, #0
 8000f32:	d102      	bne.n	8000f3a <HAL_RCC_OscConfig+0x26>
  {
    return HAL_ERROR;
 8000f34:	2301      	movs	r3, #1
 8000f36:	f001 b823 	b.w	8001f80 <HAL_RCC_OscConfig+0x106c>

  /* Check the parameters */
  assert_param(IS_RCC_OSCILLATORTYPE(RCC_OscInitStruct->OscillatorType));

  /*------------------------------- HSE Configuration ------------------------*/ 
  if(((RCC_OscInitStruct->OscillatorType) & RCC_OSCILLATORTYPE_HSE) == RCC_OSCILLATORTYPE_HSE)
 8000f3a:	f507 7300 	add.w	r3, r7, #512	; 0x200
 8000f3e:	f5a3 73fe 	sub.w	r3, r3, #508	; 0x1fc
 8000f42:	681b      	ldr	r3, [r3, #0]
 8000f44:	681b      	ldr	r3, [r3, #0]
 8000f46:	f003 0301 	and.w	r3, r3, #1
 8000f4a:	2b00      	cmp	r3, #0
 8000f4c:	f000 817d 	beq.w	800124a <HAL_RCC_OscConfig+0x336>
  {
    /* Check the parameters */
    assert_param(IS_RCC_HSE(RCC_OscInitStruct->HSEState));

    /* When the HSE is used as system clock or clock source for PLL in these cases it is not allowed to be disabled */
    if((__HAL_RCC_GET_SYSCLK_SOURCE() == RCC_SYSCLKSOURCE_STATUS_HSE) 
 8000f50:	4bbc      	ldr	r3, [pc, #752]	; (8001244 <HAL_RCC_OscConfig+0x330>)
 8000f52:	685b      	ldr	r3, [r3, #4]
 8000f54:	f003 030c 	and.w	r3, r3, #12
 8000f58:	2b04      	cmp	r3, #4
 8000f5a:	d00c      	beq.n	8000f76 <HAL_RCC_OscConfig+0x62>
       || ((__HAL_RCC_GET_SYSCLK_SOURCE() == RCC_SYSCLKSOURCE_STATUS_PLLCLK) && (__HAL_RCC_GET_PLL_OSCSOURCE() == RCC_PLLSOURCE_HSE)))
 8000f5c:	4bb9      	ldr	r3, [pc, #740]	; (8001244 <HAL_RCC_OscConfig+0x330>)
 8000f5e:	685b      	ldr	r3, [r3, #4]
 8000f60:	f003 030c 	and.w	r3, r3, #12
 8000f64:	2b08      	cmp	r3, #8
 8000f66:	d15c      	bne.n	8001022 <HAL_RCC_OscConfig+0x10e>
 8000f68:	4bb6      	ldr	r3, [pc, #728]	; (8001244 <HAL_RCC_OscConfig+0x330>)
 8000f6a:	685b      	ldr	r3, [r3, #4]
 8000f6c:	f403 3380 	and.w	r3, r3, #65536	; 0x10000
 8000f70:	f5b3 3f80 	cmp.w	r3, #65536	; 0x10000
 8000f74:	d155      	bne.n	8001022 <HAL_RCC_OscConfig+0x10e>
 8000f76:	f44f 3300 	mov.w	r3, #131072	; 0x20000
 8000f7a:	f8c7 31f0 	str.w	r3, [r7, #496]	; 0x1f0
  uint32_t result;

#if ((defined (__ARM_ARCH_7M__      ) && (__ARM_ARCH_7M__      == 1)) || \
     (defined (__ARM_ARCH_7EM__     ) && (__ARM_ARCH_7EM__     == 1)) || \
     (defined (__ARM_ARCH_8M_MAIN__ ) && (__ARM_ARCH_8M_MAIN__ == 1))    )
   __ASM volatile ("rbit %0, %1" : "=r" (result) : "r" (value) );
 8000f7e:	f8d7 31f0 	ldr.w	r3, [r7, #496]	; 0x1f0
 8000f82:	fa93 f3a3 	rbit	r3, r3
 8000f86:	f8c7 31ec 	str.w	r3, [r7, #492]	; 0x1ec
    result |= value & 1U;
    s--;
  }
  result <<= s;                        /* shift when v's highest bits are zero */
#endif
  return result;
 8000f8a:	f8d7 31ec 	ldr.w	r3, [r7, #492]	; 0x1ec
    {
      if((__HAL_RCC_GET_FLAG(RCC_FLAG_HSERDY) != RESET) && (RCC_OscInitStruct->HSEState == RCC_HSE_OFF))
 8000f8e:	fab3 f383 	clz	r3, r3
 8000f92:	b2db      	uxtb	r3, r3
 8000f94:	095b      	lsrs	r3, r3, #5
 8000f96:	b2db      	uxtb	r3, r3
 8000f98:	f043 0301 	orr.w	r3, r3, #1
 8000f9c:	b2db      	uxtb	r3, r3
 8000f9e:	2b01      	cmp	r3, #1
 8000fa0:	d102      	bne.n	8000fa8 <HAL_RCC_OscConfig+0x94>
 8000fa2:	4ba8      	ldr	r3, [pc, #672]	; (8001244 <HAL_RCC_OscConfig+0x330>)
 8000fa4:	681b      	ldr	r3, [r3, #0]
 8000fa6:	e015      	b.n	8000fd4 <HAL_RCC_OscConfig+0xc0>
 8000fa8:	f44f 3300 	mov.w	r3, #131072	; 0x20000
 8000fac:	f8c7 31e8 	str.w	r3, [r7, #488]	; 0x1e8
   __ASM volatile ("rbit %0, %1" : "=r" (result) : "r" (value) );
 8000fb0:	f8d7 31e8 	ldr.w	r3, [r7, #488]	; 0x1e8
 8000fb4:	fa93 f3a3 	rbit	r3, r3
 8000fb8:	f8c7 31e4 	str.w	r3, [r7, #484]	; 0x1e4
 8000fbc:	f44f 3300 	mov.w	r3, #131072	; 0x20000
 8000fc0:	f8c7 31e0 	str.w	r3, [r7, #480]	; 0x1e0
 8000fc4:	f8d7 31e0 	ldr.w	r3, [r7, #480]	; 0x1e0
 8000fc8:	fa93 f3a3 	rbit	r3, r3
 8000fcc:	f8c7 31dc 	str.w	r3, [r7, #476]	; 0x1dc
 8000fd0:	4b9c      	ldr	r3, [pc, #624]	; (8001244 <HAL_RCC_OscConfig+0x330>)
 8000fd2:	6a5b      	ldr	r3, [r3, #36]	; 0x24
 8000fd4:	f44f 3200 	mov.w	r2, #131072	; 0x20000
 8000fd8:	f8c7 21d8 	str.w	r2, [r7, #472]	; 0x1d8
 8000fdc:	f8d7 21d8 	ldr.w	r2, [r7, #472]	; 0x1d8
 8000fe0:	fa92 f2a2 	rbit	r2, r2
 8000fe4:	f8c7 21d4 	str.w	r2, [r7, #468]	; 0x1d4
  return result;
 8000fe8:	f8d7 21d4 	ldr.w	r2, [r7, #468]	; 0x1d4
 8000fec:	fab2 f282 	clz	r2, r2
 8000ff0:	b2d2      	uxtb	r2, r2
 8000ff2:	f042 0220 	orr.w	r2, r2, #32
 8000ff6:	b2d2      	uxtb	r2, r2
 8000ff8:	f002 021f 	and.w	r2, r2, #31
 8000ffc:	2101      	movs	r1, #1
 8000ffe:	fa01 f202 	lsl.w	r2, r1, r2
 8001002:	4013      	ands	r3, r2
 8001004:	2b00      	cmp	r3, #0
 8001006:	f000 811f 	beq.w	8001248 <HAL_RCC_OscConfig+0x334>
 800100a:	f507 7300 	add.w	r3, r7, #512	; 0x200
 800100e:	f5a3 73fe 	sub.w	r3, r3, #508	; 0x1fc
 8001012:	681b      	ldr	r3, [r3, #0]
 8001014:	685b      	ldr	r3, [r3, #4]
 8001016:	2b00      	cmp	r3, #0
 8001018:	f040 8116 	bne.w	8001248 <HAL_RCC_OscConfig+0x334>
      {
        return HAL_ERROR;
 800101c:	2301      	movs	r3, #1
 800101e:	f000 bfaf 	b.w	8001f80 <HAL_RCC_OscConfig+0x106c>
      }
    }
    else
    {
      /* Set the new HSE configuration ---------------------------------------*/
      __HAL_RCC_HSE_CONFIG(RCC_OscInitStruct->HSEState);
 8001022:	f507 7300 	add.w	r3, r7, #512	; 0x200
 8001026:	f5a3 73fe 	sub.w	r3, r3, #508	; 0x1fc
 800102a:	681b      	ldr	r3, [r3, #0]
 800102c:	685b      	ldr	r3, [r3, #4]
 800102e:	f5b3 3f80 	cmp.w	r3, #65536	; 0x10000
 8001032:	d106      	bne.n	8001042 <HAL_RCC_OscConfig+0x12e>
 8001034:	4b83      	ldr	r3, [pc, #524]	; (8001244 <HAL_RCC_OscConfig+0x330>)
 8001036:	681b      	ldr	r3, [r3, #0]
 8001038:	4a82      	ldr	r2, [pc, #520]	; (8001244 <HAL_RCC_OscConfig+0x330>)
 800103a:	f443 3380 	orr.w	r3, r3, #65536	; 0x10000
 800103e:	6013      	str	r3, [r2, #0]
 8001040:	e036      	b.n	80010b0 <HAL_RCC_OscConfig+0x19c>
 8001042:	f507 7300 	add.w	r3, r7, #512	; 0x200
 8001046:	f5a3 73fe 	sub.w	r3, r3, #508	; 0x1fc
 800104a:	681b      	ldr	r3, [r3, #0]
 800104c:	685b      	ldr	r3, [r3, #4]
 800104e:	2b00      	cmp	r3, #0
 8001050:	d10c      	bne.n	800106c <HAL_RCC_OscConfig+0x158>
 8001052:	4b7c      	ldr	r3, [pc, #496]	; (8001244 <HAL_RCC_OscConfig+0x330>)
 8001054:	681b      	ldr	r3, [r3, #0]
 8001056:	4a7b      	ldr	r2, [pc, #492]	; (8001244 <HAL_RCC_OscConfig+0x330>)
 8001058:	f423 3380 	bic.w	r3, r3, #65536	; 0x10000
 800105c:	6013      	str	r3, [r2, #0]
 800105e:	4b79      	ldr	r3, [pc, #484]	; (8001244 <HAL_RCC_OscConfig+0x330>)
 8001060:	681b      	ldr	r3, [r3, #0]
 8001062:	4a78      	ldr	r2, [pc, #480]	; (8001244 <HAL_RCC_OscConfig+0x330>)
 8001064:	f423 2380 	bic.w	r3, r3, #262144	; 0x40000
 8001068:	6013      	str	r3, [r2, #0]
 800106a:	e021      	b.n	80010b0 <HAL_RCC_OscConfig+0x19c>
 800106c:	f507 7300 	add.w	r3, r7, #512	; 0x200
 8001070:	f5a3 73fe 	sub.w	r3, r3, #508	; 0x1fc
 8001074:	681b      	ldr	r3, [r3, #0]
 8001076:	685b      	ldr	r3, [r3, #4]
 8001078:	f5b3 2fa0 	cmp.w	r3, #327680	; 0x50000
 800107c:	d10c      	bne.n	8001098 <HAL_RCC_OscConfig+0x184>
 800107e:	4b71      	ldr	r3, [pc, #452]	; (8001244 <HAL_RCC_OscConfig+0x330>)
 8001080:	681b      	ldr	r3, [r3, #0]
 8001082:	4a70      	ldr	r2, [pc, #448]	; (8001244 <HAL_RCC_OscConfig+0x330>)
 8001084:	f443 2380 	orr.w	r3, r3, #262144	; 0x40000
 8001088:	6013      	str	r3, [r2, #0]
 800108a:	4b6e      	ldr	r3, [pc, #440]	; (8001244 <HAL_RCC_OscConfig+0x330>)
 800108c:	681b      	ldr	r3, [r3, #0]
 800108e:	4a6d      	ldr	r2, [pc, #436]	; (8001244 <HAL_RCC_OscConfig+0x330>)
 8001090:	f443 3380 	orr.w	r3, r3, #65536	; 0x10000
 8001094:	6013      	str	r3, [r2, #0]
 8001096:	e00b      	b.n	80010b0 <HAL_RCC_OscConfig+0x19c>
 8001098:	4b6a      	ldr	r3, [pc, #424]	; (8001244 <HAL_RCC_OscConfig+0x330>)
 800109a:	681b      	ldr	r3, [r3, #0]
 800109c:	4a69      	ldr	r2, [pc, #420]	; (8001244 <HAL_RCC_OscConfig+0x330>)
 800109e:	f423 3380 	bic.w	r3, r3, #65536	; 0x10000
 80010a2:	6013      	str	r3, [r2, #0]
 80010a4:	4b67      	ldr	r3, [pc, #412]	; (8001244 <HAL_RCC_OscConfig+0x330>)
 80010a6:	681b      	ldr	r3, [r3, #0]
 80010a8:	4a66      	ldr	r2, [pc, #408]	; (8001244 <HAL_RCC_OscConfig+0x330>)
 80010aa:	f423 2380 	bic.w	r3, r3, #262144	; 0x40000
 80010ae:	6013      	str	r3, [r2, #0]
      
#if defined(RCC_CFGR_PLLSRC_HSI_DIV2)
      /* Configure the HSE predivision factor --------------------------------*/
      __HAL_RCC_HSE_PREDIV_CONFIG(RCC_OscInitStruct->HSEPredivValue);
 80010b0:	4b64      	ldr	r3, [pc, #400]	; (8001244 <HAL_RCC_OscConfig+0x330>)
 80010b2:	6adb      	ldr	r3, [r3, #44]	; 0x2c
 80010b4:	f023 020f 	bic.w	r2, r3, #15
 80010b8:	f507 7300 	add.w	r3, r7, #512	; 0x200
 80010bc:	f5a3 73fe 	sub.w	r3, r3, #508	; 0x1fc
 80010c0:	681b      	ldr	r3, [r3, #0]
 80010c2:	689b      	ldr	r3, [r3, #8]
 80010c4:	495f      	ldr	r1, [pc, #380]	; (8001244 <HAL_RCC_OscConfig+0x330>)
 80010c6:	4313      	orrs	r3, r2
 80010c8:	62cb      	str	r3, [r1, #44]	; 0x2c
#endif /* RCC_CFGR_PLLSRC_HSI_DIV2 */

       /* Check the HSE State */
      if(RCC_OscInitStruct->HSEState != RCC_HSE_OFF)
 80010ca:	f507 7300 	add.w	r3, r7, #512	; 0x200
 80010ce:	f5a3 73fe 	sub.w	r3, r3, #508	; 0x1fc
 80010d2:	681b      	ldr	r3, [r3, #0]
 80010d4:	685b      	ldr	r3, [r3, #4]
 80010d6:	2b00      	cmp	r3, #0
 80010d8:	d059      	beq.n	800118e <HAL_RCC_OscConfig+0x27a>
      {
        /* Get Start Tick */
        tickstart = HAL_GetTick();
 80010da:	f7ff faf5 	bl	80006c8 <HAL_GetTick>
 80010de:	f8c7 01f8 	str.w	r0, [r7, #504]	; 0x1f8
        
        /* Wait till HSE is ready */
        while(__HAL_RCC_GET_FLAG(RCC_FLAG_HSERDY) == RESET)
 80010e2:	e00a      	b.n	80010fa <HAL_RCC_OscConfig+0x1e6>
        {
          if((HAL_GetTick() - tickstart ) > HSE_TIMEOUT_VALUE)
 80010e4:	f7ff faf0 	bl	80006c8 <HAL_GetTick>
 80010e8:	4602      	mov	r2, r0
 80010ea:	f8d7 31f8 	ldr.w	r3, [r7, #504]	; 0x1f8
 80010ee:	1ad3      	subs	r3, r2, r3
 80010f0:	2b64      	cmp	r3, #100	; 0x64
 80010f2:	d902      	bls.n	80010fa <HAL_RCC_OscConfig+0x1e6>
          {
            return HAL_TIMEOUT;
 80010f4:	2303      	movs	r3, #3
 80010f6:	f000 bf43 	b.w	8001f80 <HAL_RCC_OscConfig+0x106c>
 80010fa:	f44f 3300 	mov.w	r3, #131072	; 0x20000
 80010fe:	f8c7 31d0 	str.w	r3, [r7, #464]	; 0x1d0
   __ASM volatile ("rbit %0, %1" : "=r" (result) : "r" (value) );
 8001102:	f8d7 31d0 	ldr.w	r3, [r7, #464]	; 0x1d0
 8001106:	fa93 f3a3 	rbit	r3, r3
 800110a:	f8c7 31cc 	str.w	r3, [r7, #460]	; 0x1cc
  return result;
 800110e:	f8d7 31cc 	ldr.w	r3, [r7, #460]	; 0x1cc
        while(__HAL_RCC_GET_FLAG(RCC_FLAG_HSERDY) == RESET)
 8001112:	fab3 f383 	clz	r3, r3
 8001116:	b2db      	uxtb	r3, r3
 8001118:	095b      	lsrs	r3, r3, #5
 800111a:	b2db      	uxtb	r3, r3
 800111c:	f043 0301 	orr.w	r3, r3, #1
 8001120:	b2db      	uxtb	r3, r3
 8001122:	2b01      	cmp	r3, #1
 8001124:	d102      	bne.n	800112c <HAL_RCC_OscConfig+0x218>
 8001126:	4b47      	ldr	r3, [pc, #284]	; (8001244 <HAL_RCC_OscConfig+0x330>)
 8001128:	681b      	ldr	r3, [r3, #0]
 800112a:	e015      	b.n	8001158 <HAL_RCC_OscConfig+0x244>
 800112c:	f44f 3300 	mov.w	r3, #131072	; 0x20000
 8001130:	f8c7 31c8 	str.w	r3, [r7, #456]	; 0x1c8
   __ASM volatile ("rbit %0, %1" : "=r" (result) : "r" (value) );
 8001134:	f8d7 31c8 	ldr.w	r3, [r7, #456]	; 0x1c8
 8001138:	fa93 f3a3 	rbit	r3, r3
 800113c:	f8c7 31c4 	str.w	r3, [r7, #452]	; 0x1c4
 8001140:	f44f 3300 	mov.w	r3, #131072	; 0x20000
 8001144:	f8c7 31c0 	str.w	r3, [r7, #448]	; 0x1c0
 8001148:	f8d7 31c0 	ldr.w	r3, [r7, #448]	; 0x1c0
 800114c:	fa93 f3a3 	rbit	r3, r3
 8001150:	f8c7 31bc 	str.w	r3, [r7, #444]	; 0x1bc
 8001154:	4b3b      	ldr	r3, [pc, #236]	; (8001244 <HAL_RCC_OscConfig+0x330>)
 8001156:	6a5b      	ldr	r3, [r3, #36]	; 0x24
 8001158:	f44f 3200 	mov.w	r2, #131072	; 0x20000
 800115c:	f8c7 21b8 	str.w	r2, [r7, #440]	; 0x1b8
 8001160:	f8d7 21b8 	ldr.w	r2, [r7, #440]	; 0x1b8
 8001164:	fa92 f2a2 	rbit	r2, r2
 8001168:	f8c7 21b4 	str.w	r2, [r7, #436]	; 0x1b4
  return result;
 800116c:	f8d7 21b4 	ldr.w	r2, [r7, #436]	; 0x1b4
 8001170:	fab2 f282 	clz	r2, r2
 8001174:	b2d2      	uxtb	r2, r2
 8001176:	f042 0220 	orr.w	r2, r2, #32
 800117a:	b2d2      	uxtb	r2, r2
 800117c:	f002 021f 	and.w	r2, r2, #31
 8001180:	2101      	movs	r1, #1
 8001182:	fa01 f202 	lsl.w	r2, r1, r2
 8001186:	4013      	ands	r3, r2
 8001188:	2b00      	cmp	r3, #0
 800118a:	d0ab      	beq.n	80010e4 <HAL_RCC_OscConfig+0x1d0>
 800118c:	e05d      	b.n	800124a <HAL_RCC_OscConfig+0x336>
        }
      }
      else
      {
        /* Get Start Tick */
        tickstart = HAL_GetTick();
 800118e:	f7ff fa9b 	bl	80006c8 <HAL_GetTick>
 8001192:	f8c7 01f8 	str.w	r0, [r7, #504]	; 0x1f8
        
        /* Wait till HSE is disabled */
        while(__HAL_RCC_GET_FLAG(RCC_FLAG_HSERDY) != RESET)
 8001196:	e00a      	b.n	80011ae <HAL_RCC_OscConfig+0x29a>
        {
           if((HAL_GetTick() - tickstart ) > HSE_TIMEOUT_VALUE)
 8001198:	f7ff fa96 	bl	80006c8 <HAL_GetTick>
 800119c:	4602      	mov	r2, r0
 800119e:	f8d7 31f8 	ldr.w	r3, [r7, #504]	; 0x1f8
 80011a2:	1ad3      	subs	r3, r2, r3
 80011a4:	2b64      	cmp	r3, #100	; 0x64
 80011a6:	d902      	bls.n	80011ae <HAL_RCC_OscConfig+0x29a>
          {
            return HAL_TIMEOUT;
 80011a8:	2303      	movs	r3, #3
 80011aa:	f000 bee9 	b.w	8001f80 <HAL_RCC_OscConfig+0x106c>
 80011ae:	f44f 3300 	mov.w	r3, #131072	; 0x20000
 80011b2:	f8c7 31b0 	str.w	r3, [r7, #432]	; 0x1b0
   __ASM volatile ("rbit %0, %1" : "=r" (result) : "r" (value) );
 80011b6:	f8d7 31b0 	ldr.w	r3, [r7, #432]	; 0x1b0
 80011ba:	fa93 f3a3 	rbit	r3, r3
 80011be:	f8c7 31ac 	str.w	r3, [r7, #428]	; 0x1ac
  return result;
 80011c2:	f8d7 31ac 	ldr.w	r3, [r7, #428]	; 0x1ac
        while(__HAL_RCC_GET_FLAG(RCC_FLAG_HSERDY) != RESET)
 80011c6:	fab3 f383 	clz	r3, r3
 80011ca:	b2db      	uxtb	r3, r3
 80011cc:	095b      	lsrs	r3, r3, #5
 80011ce:	b2db      	uxtb	r3, r3
 80011d0:	f043 0301 	orr.w	r3, r3, #1
 80011d4:	b2db      	uxtb	r3, r3
 80011d6:	2b01      	cmp	r3, #1
 80011d8:	d102      	bne.n	80011e0 <HAL_RCC_OscConfig+0x2cc>
 80011da:	4b1a      	ldr	r3, [pc, #104]	; (8001244 <HAL_RCC_OscConfig+0x330>)
 80011dc:	681b      	ldr	r3, [r3, #0]
 80011de:	e015      	b.n	800120c <HAL_RCC_OscConfig+0x2f8>
 80011e0:	f44f 3300 	mov.w	r3, #131072	; 0x20000
 80011e4:	f8c7 31a8 	str.w	r3, [r7, #424]	; 0x1a8
   __ASM volatile ("rbit %0, %1" : "=r" (result) : "r" (value) );
 80011e8:	f8d7 31a8 	ldr.w	r3, [r7, #424]	; 0x1a8
 80011ec:	fa93 f3a3 	rbit	r3, r3
 80011f0:	f8c7 31a4 	str.w	r3, [r7, #420]	; 0x1a4
 80011f4:	f44f 3300 	mov.w	r3, #131072	; 0x20000
 80011f8:	f8c7 31a0 	str.w	r3, [r7, #416]	; 0x1a0
 80011fc:	f8d7 31a0 	ldr.w	r3, [r7, #416]	; 0x1a0
 8001200:	fa93 f3a3 	rbit	r3, r3
 8001204:	f8c7 319c 	str.w	r3, [r7, #412]	; 0x19c
 8001208:	4b0e      	ldr	r3, [pc, #56]	; (8001244 <HAL_RCC_OscConfig+0x330>)
 800120a:	6a5b      	ldr	r3, [r3, #36]	; 0x24
 800120c:	f44f 3200 	mov.w	r2, #131072	; 0x20000
 8001210:	f8c7 2198 	str.w	r2, [r7, #408]	; 0x198
 8001214:	f8d7 2198 	ldr.w	r2, [r7, #408]	; 0x198
 8001218:	fa92 f2a2 	rbit	r2, r2
 800121c:	f8c7 2194 	str.w	r2, [r7, #404]	; 0x194
  return result;
 8001220:	f8d7 2194 	ldr.w	r2, [r7, #404]	; 0x194
 8001224:	fab2 f282 	clz	r2, r2
 8001228:	b2d2      	uxtb	r2, r2
 800122a:	f042 0220 	orr.w	r2, r2, #32
 800122e:	b2d2      	uxtb	r2, r2
 8001230:	f002 021f 	and.w	r2, r2, #31
 8001234:	2101      	movs	r1, #1
 8001236:	fa01 f202 	lsl.w	r2, r1, r2
 800123a:	4013      	ands	r3, r2
 800123c:	2b00      	cmp	r3, #0
 800123e:	d1ab      	bne.n	8001198 <HAL_RCC_OscConfig+0x284>
 8001240:	e003      	b.n	800124a <HAL_RCC_OscConfig+0x336>
 8001242:	bf00      	nop
 8001244:	40021000 	.word	0x40021000
      if((__HAL_RCC_GET_FLAG(RCC_FLAG_HSERDY) != RESET) && (RCC_OscInitStruct->HSEState == RCC_HSE_OFF))
 8001248:	bf00      	nop
        }
      }
    }
  }
  /*----------------------------- HSI Configuration --------------------------*/ 
  if(((RCC_OscInitStruct->OscillatorType) & RCC_OSCILLATORTYPE_HSI) == RCC_OSCILLATORTYPE_HSI)
 800124a:	f507 7300 	add.w	r3, r7, #512	; 0x200
 800124e:	f5a3 73fe 	sub.w	r3, r3, #508	; 0x1fc
 8001252:	681b      	ldr	r3, [r3, #0]
 8001254:	681b      	ldr	r3, [r3, #0]
 8001256:	f003 0302 	and.w	r3, r3, #2
 800125a:	2b00      	cmp	r3, #0
 800125c:	f000 817d 	beq.w	800155a <HAL_RCC_OscConfig+0x646>
    /* Check the parameters */
    assert_param(IS_RCC_HSI(RCC_OscInitStruct->HSIState));
    assert_param(IS_RCC_CALIBRATION_VALUE(RCC_OscInitStruct->HSICalibrationValue));
    
    /* Check if HSI is used as system clock or as PLL source when PLL is selected as system clock */ 
    if((__HAL_RCC_GET_SYSCLK_SOURCE() == RCC_SYSCLKSOURCE_STATUS_HSI) 
 8001260:	4ba6      	ldr	r3, [pc, #664]	; (80014fc <HAL_RCC_OscConfig+0x5e8>)
 8001262:	685b      	ldr	r3, [r3, #4]
 8001264:	f003 030c 	and.w	r3, r3, #12
 8001268:	2b00      	cmp	r3, #0
 800126a:	d00b      	beq.n	8001284 <HAL_RCC_OscConfig+0x370>
       || ((__HAL_RCC_GET_SYSCLK_SOURCE() == RCC_SYSCLKSOURCE_STATUS_PLLCLK) && (__HAL_RCC_GET_PLL_OSCSOURCE() == RCC_PLLSOURCE_HSI)))
 800126c:	4ba3      	ldr	r3, [pc, #652]	; (80014fc <HAL_RCC_OscConfig+0x5e8>)
 800126e:	685b      	ldr	r3, [r3, #4]
 8001270:	f003 030c 	and.w	r3, r3, #12
 8001274:	2b08      	cmp	r3, #8
 8001276:	d172      	bne.n	800135e <HAL_RCC_OscConfig+0x44a>
 8001278:	4ba0      	ldr	r3, [pc, #640]	; (80014fc <HAL_RCC_OscConfig+0x5e8>)
 800127a:	685b      	ldr	r3, [r3, #4]
 800127c:	f403 3380 	and.w	r3, r3, #65536	; 0x10000
 8001280:	2b00      	cmp	r3, #0
 8001282:	d16c      	bne.n	800135e <HAL_RCC_OscConfig+0x44a>
 8001284:	2302      	movs	r3, #2
 8001286:	f8c7 3190 	str.w	r3, [r7, #400]	; 0x190
   __ASM volatile ("rbit %0, %1" : "=r" (result) : "r" (value) );
 800128a:	f8d7 3190 	ldr.w	r3, [r7, #400]	; 0x190
 800128e:	fa93 f3a3 	rbit	r3, r3
 8001292:	f8c7 318c 	str.w	r3, [r7, #396]	; 0x18c
  return result;
 8001296:	f8d7 318c 	ldr.w	r3, [r7, #396]	; 0x18c
    {
      /* When HSI is used as system clock it will not disabled */
      if((__HAL_RCC_GET_FLAG(RCC_FLAG_HSIRDY) != RESET) && (RCC_OscInitStruct->HSIState != RCC_HSI_ON))
 800129a:	fab3 f383 	clz	r3, r3
 800129e:	b2db      	uxtb	r3, r3
 80012a0:	095b      	lsrs	r3, r3, #5
 80012a2:	b2db      	uxtb	r3, r3
 80012a4:	f043 0301 	orr.w	r3, r3, #1
 80012a8:	b2db      	uxtb	r3, r3
 80012aa:	2b01      	cmp	r3, #1
 80012ac:	d102      	bne.n	80012b4 <HAL_RCC_OscConfig+0x3a0>
 80012ae:	4b93      	ldr	r3, [pc, #588]	; (80014fc <HAL_RCC_OscConfig+0x5e8>)
 80012b0:	681b      	ldr	r3, [r3, #0]
 80012b2:	e013      	b.n	80012dc <HAL_RCC_OscConfig+0x3c8>
 80012b4:	2302      	movs	r3, #2
 80012b6:	f8c7 3188 	str.w	r3, [r7, #392]	; 0x188
   __ASM volatile ("rbit %0, %1" : "=r" (result) : "r" (value) );
 80012ba:	f8d7 3188 	ldr.w	r3, [r7, #392]	; 0x188
 80012be:	fa93 f3a3 	rbit	r3, r3
 80012c2:	f8c7 3184 	str.w	r3, [r7, #388]	; 0x184
 80012c6:	2302      	movs	r3, #2
 80012c8:	f8c7 3180 	str.w	r3, [r7, #384]	; 0x180
 80012cc:	f8d7 3180 	ldr.w	r3, [r7, #384]	; 0x180
 80012d0:	fa93 f3a3 	rbit	r3, r3
 80012d4:	f8c7 317c 	str.w	r3, [r7, #380]	; 0x17c
 80012d8:	4b88      	ldr	r3, [pc, #544]	; (80014fc <HAL_RCC_OscConfig+0x5e8>)
 80012da:	6a5b      	ldr	r3, [r3, #36]	; 0x24
 80012dc:	2202      	movs	r2, #2
 80012de:	f8c7 2178 	str.w	r2, [r7, #376]	; 0x178
 80012e2:	f8d7 2178 	ldr.w	r2, [r7, #376]	; 0x178
 80012e6:	fa92 f2a2 	rbit	r2, r2
 80012ea:	f8c7 2174 	str.w	r2, [r7, #372]	; 0x174
  return result;
 80012ee:	f8d7 2174 	ldr.w	r2, [r7, #372]	; 0x174
 80012f2:	fab2 f282 	clz	r2, r2
 80012f6:	b2d2      	uxtb	r2, r2
 80012f8:	f042 0220 	orr.w	r2, r2, #32
 80012fc:	b2d2      	uxtb	r2, r2
 80012fe:	f002 021f 	and.w	r2, r2, #31
 8001302:	2101      	movs	r1, #1
 8001304:	fa01 f202 	lsl.w	r2, r1, r2
 8001308:	4013      	ands	r3, r2
 800130a:	2b00      	cmp	r3, #0
 800130c:	d00a      	beq.n	8001324 <HAL_RCC_OscConfig+0x410>
 800130e:	f507 7300 	add.w	r3, r7, #512	; 0x200
 8001312:	f5a3 73fe 	sub.w	r3, r3, #508	; 0x1fc
 8001316:	681b      	ldr	r3, [r3, #0]
 8001318:	691b      	ldr	r3, [r3, #16]
 800131a:	2b01      	cmp	r3, #1
 800131c:	d002      	beq.n	8001324 <HAL_RCC_OscConfig+0x410>
      {
        return HAL_ERROR;
 800131e:	2301      	movs	r3, #1
 8001320:	f000 be2e 	b.w	8001f80 <HAL_RCC_OscConfig+0x106c>
      }
      /* Otherwise, just the calibration is allowed */
      else
      {
        /* Adjusts the Internal High Speed oscillator (HSI) calibration value.*/
        __HAL_RCC_HSI_CALIBRATIONVALUE_ADJUST(RCC_OscInitStruct->HSICalibrationValue);
 8001324:	4b75      	ldr	r3, [pc, #468]	; (80014fc <HAL_RCC_OscConfig+0x5e8>)
 8001326:	681b      	ldr	r3, [r3, #0]
 8001328:	f023 02f8 	bic.w	r2, r3, #248	; 0xf8
 800132c:	f507 7300 	add.w	r3, r7, #512	; 0x200
 8001330:	f5a3 73fe 	sub.w	r3, r3, #508	; 0x1fc
 8001334:	681b      	ldr	r3, [r3, #0]
 8001336:	695b      	ldr	r3, [r3, #20]
 8001338:	21f8      	movs	r1, #248	; 0xf8
 800133a:	f8c7 1170 	str.w	r1, [r7, #368]	; 0x170
   __ASM volatile ("rbit %0, %1" : "=r" (result) : "r" (value) );
 800133e:	f8d7 1170 	ldr.w	r1, [r7, #368]	; 0x170
 8001342:	fa91 f1a1 	rbit	r1, r1
 8001346:	f8c7 116c 	str.w	r1, [r7, #364]	; 0x16c
  return result;
 800134a:	f8d7 116c 	ldr.w	r1, [r7, #364]	; 0x16c
 800134e:	fab1 f181 	clz	r1, r1
 8001352:	b2c9      	uxtb	r1, r1
 8001354:	408b      	lsls	r3, r1
 8001356:	4969      	ldr	r1, [pc, #420]	; (80014fc <HAL_RCC_OscConfig+0x5e8>)
 8001358:	4313      	orrs	r3, r2
 800135a:	600b      	str	r3, [r1, #0]
      if((__HAL_RCC_GET_FLAG(RCC_FLAG_HSIRDY) != RESET) && (RCC_OscInitStruct->HSIState != RCC_HSI_ON))
 800135c:	e0fd      	b.n	800155a <HAL_RCC_OscConfig+0x646>
      }
    }
    else
    {
      /* Check the HSI State */
      if(RCC_OscInitStruct->HSIState != RCC_HSI_OFF)
 800135e:	f507 7300 	add.w	r3, r7, #512	; 0x200
 8001362:	f5a3 73fe 	sub.w	r3, r3, #508	; 0x1fc
 8001366:	681b      	ldr	r3, [r3, #0]
 8001368:	691b      	ldr	r3, [r3, #16]
 800136a:	2b00      	cmp	r3, #0
 800136c:	f000 8088 	beq.w	8001480 <HAL_RCC_OscConfig+0x56c>
 8001370:	2301      	movs	r3, #1
 8001372:	f8c7 3168 	str.w	r3, [r7, #360]	; 0x168
   __ASM volatile ("rbit %0, %1" : "=r" (result) : "r" (value) );
 8001376:	f8d7 3168 	ldr.w	r3, [r7, #360]	; 0x168
 800137a:	fa93 f3a3 	rbit	r3, r3
 800137e:	f8c7 3164 	str.w	r3, [r7, #356]	; 0x164
  return result;
 8001382:	f8d7 3164 	ldr.w	r3, [r7, #356]	; 0x164
      {
       /* Enable the Internal High Speed oscillator (HSI). */
        __HAL_RCC_HSI_ENABLE();
 8001386:	fab3 f383 	clz	r3, r3
 800138a:	b2db      	uxtb	r3, r3
 800138c:	f103 5384 	add.w	r3, r3, #276824064	; 0x10800000
 8001390:	f503 1384 	add.w	r3, r3, #1081344	; 0x108000
 8001394:	009b      	lsls	r3, r3, #2
 8001396:	461a      	mov	r2, r3
 8001398:	2301      	movs	r3, #1
 800139a:	6013      	str	r3, [r2, #0]
        
        /* Get Start Tick */
        tickstart = HAL_GetTick();
 800139c:	f7ff f994 	bl	80006c8 <HAL_GetTick>
 80013a0:	f8c7 01f8 	str.w	r0, [r7, #504]	; 0x1f8
        
        /* Wait till HSI is ready */
        while(__HAL_RCC_GET_FLAG(RCC_FLAG_HSIRDY) == RESET)
 80013a4:	e00a      	b.n	80013bc <HAL_RCC_OscConfig+0x4a8>
        {
          if((HAL_GetTick() - tickstart ) > HSI_TIMEOUT_VALUE)
 80013a6:	f7ff f98f 	bl	80006c8 <HAL_GetTick>
 80013aa:	4602      	mov	r2, r0
 80013ac:	f8d7 31f8 	ldr.w	r3, [r7, #504]	; 0x1f8
 80013b0:	1ad3      	subs	r3, r2, r3
 80013b2:	2b02      	cmp	r3, #2
 80013b4:	d902      	bls.n	80013bc <HAL_RCC_OscConfig+0x4a8>
          {
            return HAL_TIMEOUT;
 80013b6:	2303      	movs	r3, #3
 80013b8:	f000 bde2 	b.w	8001f80 <HAL_RCC_OscConfig+0x106c>
 80013bc:	2302      	movs	r3, #2
 80013be:	f8c7 3160 	str.w	r3, [r7, #352]	; 0x160
   __ASM volatile ("rbit %0, %1" : "=r" (result) : "r" (value) );
 80013c2:	f8d7 3160 	ldr.w	r3, [r7, #352]	; 0x160
 80013c6:	fa93 f3a3 	rbit	r3, r3
 80013ca:	f8c7 315c 	str.w	r3, [r7, #348]	; 0x15c
  return result;
 80013ce:	f8d7 315c 	ldr.w	r3, [r7, #348]	; 0x15c
        while(__HAL_RCC_GET_FLAG(RCC_FLAG_HSIRDY) == RESET)
 80013d2:	fab3 f383 	clz	r3, r3
 80013d6:	b2db      	uxtb	r3, r3
 80013d8:	095b      	lsrs	r3, r3, #5
 80013da:	b2db      	uxtb	r3, r3
 80013dc:	f043 0301 	orr.w	r3, r3, #1
 80013e0:	b2db      	uxtb	r3, r3
 80013e2:	2b01      	cmp	r3, #1
 80013e4:	d102      	bne.n	80013ec <HAL_RCC_OscConfig+0x4d8>
 80013e6:	4b45      	ldr	r3, [pc, #276]	; (80014fc <HAL_RCC_OscConfig+0x5e8>)
 80013e8:	681b      	ldr	r3, [r3, #0]
 80013ea:	e013      	b.n	8001414 <HAL_RCC_OscConfig+0x500>
 80013ec:	2302      	movs	r3, #2
 80013ee:	f8c7 3158 	str.w	r3, [r7, #344]	; 0x158
   __ASM volatile ("rbit %0, %1" : "=r" (result) : "r" (value) );
 80013f2:	f8d7 3158 	ldr.w	r3, [r7, #344]	; 0x158
 80013f6:	fa93 f3a3 	rbit	r3, r3
 80013fa:	f8c7 3154 	str.w	r3, [r7, #340]	; 0x154
 80013fe:	2302      	movs	r3, #2
 8001400:	f8c7 3150 	str.w	r3, [r7, #336]	; 0x150
 8001404:	f8d7 3150 	ldr.w	r3, [r7, #336]	; 0x150
 8001408:	fa93 f3a3 	rbit	r3, r3
 800140c:	f8c7 314c 	str.w	r3, [r7, #332]	; 0x14c
 8001410:	4b3a      	ldr	r3, [pc, #232]	; (80014fc <HAL_RCC_OscConfig+0x5e8>)
 8001412:	6a5b      	ldr	r3, [r3, #36]	; 0x24
 8001414:	2202      	movs	r2, #2
 8001416:	f8c7 2148 	str.w	r2, [r7, #328]	; 0x148
 800141a:	f8d7 2148 	ldr.w	r2, [r7, #328]	; 0x148
 800141e:	fa92 f2a2 	rbit	r2, r2
 8001422:	f8c7 2144 	str.w	r2, [r7, #324]	; 0x144
  return result;
 8001426:	f8d7 2144 	ldr.w	r2, [r7, #324]	; 0x144
 800142a:	fab2 f282 	clz	r2, r2
 800142e:	b2d2      	uxtb	r2, r2
 8001430:	f042 0220 	orr.w	r2, r2, #32
 8001434:	b2d2      	uxtb	r2, r2
 8001436:	f002 021f 	and.w	r2, r2, #31
 800143a:	2101      	movs	r1, #1
 800143c:	fa01 f202 	lsl.w	r2, r1, r2
 8001440:	4013      	ands	r3, r2
 8001442:	2b00      	cmp	r3, #0
 8001444:	d0af      	beq.n	80013a6 <HAL_RCC_OscConfig+0x492>
          }
        }
                
        /* Adjusts the Internal High Speed oscillator (HSI) calibration value.*/
        __HAL_RCC_HSI_CALIBRATIONVALUE_ADJUST(RCC_OscInitStruct->HSICalibrationValue);
 8001446:	4b2d      	ldr	r3, [pc, #180]	; (80014fc <HAL_RCC_OscConfig+0x5e8>)
 8001448:	681b      	ldr	r3, [r3, #0]
 800144a:	f023 02f8 	bic.w	r2, r3, #248	; 0xf8
 800144e:	f507 7300 	add.w	r3, r7, #512	; 0x200
 8001452:	f5a3 73fe 	sub.w	r3, r3, #508	; 0x1fc
 8001456:	681b      	ldr	r3, [r3, #0]
 8001458:	695b      	ldr	r3, [r3, #20]
 800145a:	21f8      	movs	r1, #248	; 0xf8
 800145c:	f8c7 1140 	str.w	r1, [r7, #320]	; 0x140
   __ASM volatile ("rbit %0, %1" : "=r" (result) : "r" (value) );
 8001460:	f8d7 1140 	ldr.w	r1, [r7, #320]	; 0x140
 8001464:	fa91 f1a1 	rbit	r1, r1
 8001468:	f8c7 113c 	str.w	r1, [r7, #316]	; 0x13c
  return result;
 800146c:	f8d7 113c 	ldr.w	r1, [r7, #316]	; 0x13c
 8001470:	fab1 f181 	clz	r1, r1
 8001474:	b2c9      	uxtb	r1, r1
 8001476:	408b      	lsls	r3, r1
 8001478:	4920      	ldr	r1, [pc, #128]	; (80014fc <HAL_RCC_OscConfig+0x5e8>)
 800147a:	4313      	orrs	r3, r2
 800147c:	600b      	str	r3, [r1, #0]
 800147e:	e06c      	b.n	800155a <HAL_RCC_OscConfig+0x646>
 8001480:	2301      	movs	r3, #1
 8001482:	f8c7 3138 	str.w	r3, [r7, #312]	; 0x138
   __ASM volatile ("rbit %0, %1" : "=r" (result) : "r" (value) );
 8001486:	f8d7 3138 	ldr.w	r3, [r7, #312]	; 0x138
 800148a:	fa93 f3a3 	rbit	r3, r3
 800148e:	f8c7 3134 	str.w	r3, [r7, #308]	; 0x134
  return result;
 8001492:	f8d7 3134 	ldr.w	r3, [r7, #308]	; 0x134
      }
      else
      {
        /* Disable the Internal High Speed oscillator (HSI). */
        __HAL_RCC_HSI_DISABLE();
 8001496:	fab3 f383 	clz	r3, r3
 800149a:	b2db      	uxtb	r3, r3
 800149c:	f103 5384 	add.w	r3, r3, #276824064	; 0x10800000
 80014a0:	f503 1384 	add.w	r3, r3, #1081344	; 0x108000
 80014a4:	009b      	lsls	r3, r3, #2
 80014a6:	461a      	mov	r2, r3
 80014a8:	2300      	movs	r3, #0
 80014aa:	6013      	str	r3, [r2, #0]
        
        /* Get Start Tick */
        tickstart = HAL_GetTick();
 80014ac:	f7ff f90c 	bl	80006c8 <HAL_GetTick>
 80014b0:	f8c7 01f8 	str.w	r0, [r7, #504]	; 0x1f8
        
        /* Wait till HSI is disabled */
        while(__HAL_RCC_GET_FLAG(RCC_FLAG_HSIRDY) != RESET)
 80014b4:	e00a      	b.n	80014cc <HAL_RCC_OscConfig+0x5b8>
        {
          if((HAL_GetTick() - tickstart ) > HSI_TIMEOUT_VALUE)
 80014b6:	f7ff f907 	bl	80006c8 <HAL_GetTick>
 80014ba:	4602      	mov	r2, r0
 80014bc:	f8d7 31f8 	ldr.w	r3, [r7, #504]	; 0x1f8
 80014c0:	1ad3      	subs	r3, r2, r3
 80014c2:	2b02      	cmp	r3, #2
 80014c4:	d902      	bls.n	80014cc <HAL_RCC_OscConfig+0x5b8>
          {
            return HAL_TIMEOUT;
 80014c6:	2303      	movs	r3, #3
 80014c8:	f000 bd5a 	b.w	8001f80 <HAL_RCC_OscConfig+0x106c>
 80014cc:	2302      	movs	r3, #2
 80014ce:	f8c7 3130 	str.w	r3, [r7, #304]	; 0x130
   __ASM volatile ("rbit %0, %1" : "=r" (result) : "r" (value) );
 80014d2:	f8d7 3130 	ldr.w	r3, [r7, #304]	; 0x130
 80014d6:	fa93 f3a3 	rbit	r3, r3
 80014da:	f8c7 312c 	str.w	r3, [r7, #300]	; 0x12c
  return result;
 80014de:	f8d7 312c 	ldr.w	r3, [r7, #300]	; 0x12c
        while(__HAL_RCC_GET_FLAG(RCC_FLAG_HSIRDY) != RESET)
 80014e2:	fab3 f383 	clz	r3, r3
 80014e6:	b2db      	uxtb	r3, r3
 80014e8:	095b      	lsrs	r3, r3, #5
 80014ea:	b2db      	uxtb	r3, r3
 80014ec:	f043 0301 	orr.w	r3, r3, #1
 80014f0:	b2db      	uxtb	r3, r3
 80014f2:	2b01      	cmp	r3, #1
 80014f4:	d104      	bne.n	8001500 <HAL_RCC_OscConfig+0x5ec>
 80014f6:	4b01      	ldr	r3, [pc, #4]	; (80014fc <HAL_RCC_OscConfig+0x5e8>)
 80014f8:	681b      	ldr	r3, [r3, #0]
 80014fa:	e015      	b.n	8001528 <HAL_RCC_OscConfig+0x614>
 80014fc:	40021000 	.word	0x40021000
 8001500:	2302      	movs	r3, #2
 8001502:	f8c7 3128 	str.w	r3, [r7, #296]	; 0x128
   __ASM volatile ("rbit %0, %1" : "=r" (result) : "r" (value) );
 8001506:	f8d7 3128 	ldr.w	r3, [r7, #296]	; 0x128
 800150a:	fa93 f3a3 	rbit	r3, r3
 800150e:	f8c7 3124 	str.w	r3, [r7, #292]	; 0x124
 8001512:	2302      	movs	r3, #2
 8001514:	f8c7 3120 	str.w	r3, [r7, #288]	; 0x120
 8001518:	f8d7 3120 	ldr.w	r3, [r7, #288]	; 0x120
 800151c:	fa93 f3a3 	rbit	r3, r3
 8001520:	f8c7 311c 	str.w	r3, [r7, #284]	; 0x11c
 8001524:	4bc8      	ldr	r3, [pc, #800]	; (8001848 <HAL_RCC_OscConfig+0x934>)
 8001526:	6a5b      	ldr	r3, [r3, #36]	; 0x24
 8001528:	2202      	movs	r2, #2
 800152a:	f8c7 2118 	str.w	r2, [r7, #280]	; 0x118
 800152e:	f8d7 2118 	ldr.w	r2, [r7, #280]	; 0x118
 8001532:	fa92 f2a2 	rbit	r2, r2
 8001536:	f8c7 2114 	str.w	r2, [r7, #276]	; 0x114
  return result;
 800153a:	f8d7 2114 	ldr.w	r2, [r7, #276]	; 0x114
 800153e:	fab2 f282 	clz	r2, r2
 8001542:	b2d2      	uxtb	r2, r2
 8001544:	f042 0220 	orr.w	r2, r2, #32
 8001548:	b2d2      	uxtb	r2, r2
 800154a:	f002 021f 	and.w	r2, r2, #31
 800154e:	2101      	movs	r1, #1
 8001550:	fa01 f202 	lsl.w	r2, r1, r2
 8001554:	4013      	ands	r3, r2
 8001556:	2b00      	cmp	r3, #0
 8001558:	d1ad      	bne.n	80014b6 <HAL_RCC_OscConfig+0x5a2>
        }
      }
    }
  }
  /*------------------------------ LSI Configuration -------------------------*/ 
  if(((RCC_OscInitStruct->OscillatorType) & RCC_OSCILLATORTYPE_LSI) == RCC_OSCILLATORTYPE_LSI)
 800155a:	f507 7300 	add.w	r3, r7, #512	; 0x200
 800155e:	f5a3 73fe 	sub.w	r3, r3, #508	; 0x1fc
 8001562:	681b      	ldr	r3, [r3, #0]
 8001564:	681b      	ldr	r3, [r3, #0]
 8001566:	f003 0308 	and.w	r3, r3, #8
 800156a:	2b00      	cmp	r3, #0
 800156c:	f000 8110 	beq.w	8001790 <HAL_RCC_OscConfig+0x87c>
  {
    /* Check the parameters */
    assert_param(IS_RCC_LSI(RCC_OscInitStruct->LSIState));
    
    /* Check the LSI State */
    if(RCC_OscInitStruct->LSIState != RCC_LSI_OFF)
 8001570:	f507 7300 	add.w	r3, r7, #512	; 0x200
 8001574:	f5a3 73fe 	sub.w	r3, r3, #508	; 0x1fc
 8001578:	681b      	ldr	r3, [r3, #0]
 800157a:	699b      	ldr	r3, [r3, #24]
 800157c:	2b00      	cmp	r3, #0
 800157e:	d079      	beq.n	8001674 <HAL_RCC_OscConfig+0x760>
 8001580:	2301      	movs	r3, #1
 8001582:	f8c7 3110 	str.w	r3, [r7, #272]	; 0x110
   __ASM volatile ("rbit %0, %1" : "=r" (result) : "r" (value) );
 8001586:	f8d7 3110 	ldr.w	r3, [r7, #272]	; 0x110
 800158a:	fa93 f3a3 	rbit	r3, r3
 800158e:	f8c7 310c 	str.w	r3, [r7, #268]	; 0x10c
  return result;
 8001592:	f8d7 310c 	ldr.w	r3, [r7, #268]	; 0x10c
    {
      /* Enable the Internal Low Speed oscillator (LSI). */
      __HAL_RCC_LSI_ENABLE();
 8001596:	fab3 f383 	clz	r3, r3
 800159a:	b2db      	uxtb	r3, r3
 800159c:	461a      	mov	r2, r3
 800159e:	4bab      	ldr	r3, [pc, #684]	; (800184c <HAL_RCC_OscConfig+0x938>)
 80015a0:	4413      	add	r3, r2
 80015a2:	009b      	lsls	r3, r3, #2
 80015a4:	461a      	mov	r2, r3
 80015a6:	2301      	movs	r3, #1
 80015a8:	6013      	str	r3, [r2, #0]
      
      /* Get Start Tick */
      tickstart = HAL_GetTick();
 80015aa:	f7ff f88d 	bl	80006c8 <HAL_GetTick>
 80015ae:	f8c7 01f8 	str.w	r0, [r7, #504]	; 0x1f8
      
      /* Wait till LSI is ready */  
      while(__HAL_RCC_GET_FLAG(RCC_FLAG_LSIRDY) == RESET)
 80015b2:	e00a      	b.n	80015ca <HAL_RCC_OscConfig+0x6b6>
      {
        if((HAL_GetTick() - tickstart ) > LSI_TIMEOUT_VALUE)
 80015b4:	f7ff f888 	bl	80006c8 <HAL_GetTick>
 80015b8:	4602      	mov	r2, r0
 80015ba:	f8d7 31f8 	ldr.w	r3, [r7, #504]	; 0x1f8
 80015be:	1ad3      	subs	r3, r2, r3
 80015c0:	2b02      	cmp	r3, #2
 80015c2:	d902      	bls.n	80015ca <HAL_RCC_OscConfig+0x6b6>
        {
          return HAL_TIMEOUT;
 80015c4:	2303      	movs	r3, #3
 80015c6:	f000 bcdb 	b.w	8001f80 <HAL_RCC_OscConfig+0x106c>
 80015ca:	2302      	movs	r3, #2
 80015cc:	f8c7 3108 	str.w	r3, [r7, #264]	; 0x108
   __ASM volatile ("rbit %0, %1" : "=r" (result) : "r" (value) );
 80015d0:	f8d7 3108 	ldr.w	r3, [r7, #264]	; 0x108
 80015d4:	fa93 f3a3 	rbit	r3, r3
 80015d8:	f8c7 3104 	str.w	r3, [r7, #260]	; 0x104
 80015dc:	f507 7300 	add.w	r3, r7, #512	; 0x200
 80015e0:	f5a3 7380 	sub.w	r3, r3, #256	; 0x100
 80015e4:	2202      	movs	r2, #2
 80015e6:	601a      	str	r2, [r3, #0]
 80015e8:	f507 7300 	add.w	r3, r7, #512	; 0x200
 80015ec:	f5a3 7380 	sub.w	r3, r3, #256	; 0x100
 80015f0:	681b      	ldr	r3, [r3, #0]
 80015f2:	fa93 f2a3 	rbit	r2, r3
 80015f6:	f507 7300 	add.w	r3, r7, #512	; 0x200
 80015fa:	f5a3 7382 	sub.w	r3, r3, #260	; 0x104
 80015fe:	601a      	str	r2, [r3, #0]
 8001600:	f507 7300 	add.w	r3, r7, #512	; 0x200
 8001604:	f5a3 7384 	sub.w	r3, r3, #264	; 0x108
 8001608:	2202      	movs	r2, #2
 800160a:	601a      	str	r2, [r3, #0]
 800160c:	f507 7300 	add.w	r3, r7, #512	; 0x200
 8001610:	f5a3 7384 	sub.w	r3, r3, #264	; 0x108
 8001614:	681b      	ldr	r3, [r3, #0]
 8001616:	fa93 f2a3 	rbit	r2, r3
 800161a:	f507 7300 	add.w	r3, r7, #512	; 0x200
 800161e:	f5a3 7386 	sub.w	r3, r3, #268	; 0x10c
 8001622:	601a      	str	r2, [r3, #0]
      while(__HAL_RCC_GET_FLAG(RCC_FLAG_LSIRDY) == RESET)
 8001624:	4b88      	ldr	r3, [pc, #544]	; (8001848 <HAL_RCC_OscConfig+0x934>)
 8001626:	6a5a      	ldr	r2, [r3, #36]	; 0x24
 8001628:	f507 7300 	add.w	r3, r7, #512	; 0x200
 800162c:	f5a3 7388 	sub.w	r3, r3, #272	; 0x110
 8001630:	2102      	movs	r1, #2
 8001632:	6019      	str	r1, [r3, #0]
 8001634:	f507 7300 	add.w	r3, r7, #512	; 0x200
 8001638:	f5a3 7388 	sub.w	r3, r3, #272	; 0x110
 800163c:	681b      	ldr	r3, [r3, #0]
 800163e:	fa93 f1a3 	rbit	r1, r3
 8001642:	f507 7300 	add.w	r3, r7, #512	; 0x200
 8001646:	f5a3 738a 	sub.w	r3, r3, #276	; 0x114
 800164a:	6019      	str	r1, [r3, #0]
  return result;
 800164c:	f507 7300 	add.w	r3, r7, #512	; 0x200
 8001650:	f5a3 738a 	sub.w	r3, r3, #276	; 0x114
 8001654:	681b      	ldr	r3, [r3, #0]
 8001656:	fab3 f383 	clz	r3, r3
 800165a:	b2db      	uxtb	r3, r3
 800165c:	f043 0360 	orr.w	r3, r3, #96	; 0x60
 8001660:	b2db      	uxtb	r3, r3
 8001662:	f003 031f 	and.w	r3, r3, #31
 8001666:	2101      	movs	r1, #1
 8001668:	fa01 f303 	lsl.w	r3, r1, r3
 800166c:	4013      	ands	r3, r2
 800166e:	2b00      	cmp	r3, #0
 8001670:	d0a0      	beq.n	80015b4 <HAL_RCC_OscConfig+0x6a0>
 8001672:	e08d      	b.n	8001790 <HAL_RCC_OscConfig+0x87c>
 8001674:	f507 7300 	add.w	r3, r7, #512	; 0x200
 8001678:	f5a3 738c 	sub.w	r3, r3, #280	; 0x118
 800167c:	2201      	movs	r2, #1
 800167e:	601a      	str	r2, [r3, #0]
   __ASM volatile ("rbit %0, %1" : "=r" (result) : "r" (value) );
 8001680:	f507 7300 	add.w	r3, r7, #512	; 0x200
 8001684:	f5a3 738c 	sub.w	r3, r3, #280	; 0x118
 8001688:	681b      	ldr	r3, [r3, #0]
 800168a:	fa93 f2a3 	rbit	r2, r3
 800168e:	f507 7300 	add.w	r3, r7, #512	; 0x200
 8001692:	f5a3 738e 	sub.w	r3, r3, #284	; 0x11c
 8001696:	601a      	str	r2, [r3, #0]
  return result;
 8001698:	f507 7300 	add.w	r3, r7, #512	; 0x200
 800169c:	f5a3 738e 	sub.w	r3, r3, #284	; 0x11c
 80016a0:	681b      	ldr	r3, [r3, #0]
      }
    }
    else
    {
      /* Disable the Internal Low Speed oscillator (LSI). */
      __HAL_RCC_LSI_DISABLE();
 80016a2:	fab3 f383 	clz	r3, r3
 80016a6:	b2db      	uxtb	r3, r3
 80016a8:	461a      	mov	r2, r3
 80016aa:	4b68      	ldr	r3, [pc, #416]	; (800184c <HAL_RCC_OscConfig+0x938>)
 80016ac:	4413      	add	r3, r2
 80016ae:	009b      	lsls	r3, r3, #2
 80016b0:	461a      	mov	r2, r3
 80016b2:	2300      	movs	r3, #0
 80016b4:	6013      	str	r3, [r2, #0]
      
      /* Get Start Tick */
      tickstart = HAL_GetTick();
 80016b6:	f7ff f807 	bl	80006c8 <HAL_GetTick>
 80016ba:	f8c7 01f8 	str.w	r0, [r7, #504]	; 0x1f8
      
      /* Wait till LSI is disabled */  
      while(__HAL_RCC_GET_FLAG(RCC_FLAG_LSIRDY) != RESET)
 80016be:	e00a      	b.n	80016d6 <HAL_RCC_OscConfig+0x7c2>
      {
        if((HAL_GetTick() - tickstart ) > LSI_TIMEOUT_VALUE)
 80016c0:	f7ff f802 	bl	80006c8 <HAL_GetTick>
 80016c4:	4602      	mov	r2, r0
 80016c6:	f8d7 31f8 	ldr.w	r3, [r7, #504]	; 0x1f8
 80016ca:	1ad3      	subs	r3, r2, r3
 80016cc:	2b02      	cmp	r3, #2
 80016ce:	d902      	bls.n	80016d6 <HAL_RCC_OscConfig+0x7c2>
        {
          return HAL_TIMEOUT;
 80016d0:	2303      	movs	r3, #3
 80016d2:	f000 bc55 	b.w	8001f80 <HAL_RCC_OscConfig+0x106c>
 80016d6:	f507 7300 	add.w	r3, r7, #512	; 0x200
 80016da:	f5a3 7390 	sub.w	r3, r3, #288	; 0x120
 80016de:	2202      	movs	r2, #2
 80016e0:	601a      	str	r2, [r3, #0]
   __ASM volatile ("rbit %0, %1" : "=r" (result) : "r" (value) );
 80016e2:	f507 7300 	add.w	r3, r7, #512	; 0x200
 80016e6:	f5a3 7390 	sub.w	r3, r3, #288	; 0x120
 80016ea:	681b      	ldr	r3, [r3, #0]
 80016ec:	fa93 f2a3 	rbit	r2, r3
 80016f0:	f507 7300 	add.w	r3, r7, #512	; 0x200
 80016f4:	f5a3 7392 	sub.w	r3, r3, #292	; 0x124
 80016f8:	601a      	str	r2, [r3, #0]
 80016fa:	f507 7300 	add.w	r3, r7, #512	; 0x200
 80016fe:	f5a3 7394 	sub.w	r3, r3, #296	; 0x128
 8001702:	2202      	movs	r2, #2
 8001704:	601a      	str	r2, [r3, #0]
 8001706:	f507 7300 	add.w	r3, r7, #512	; 0x200
 800170a:	f5a3 7394 	sub.w	r3, r3, #296	; 0x128
 800170e:	681b      	ldr	r3, [r3, #0]
 8001710:	fa93 f2a3 	rbit	r2, r3
 8001714:	f507 7300 	add.w	r3, r7, #512	; 0x200
 8001718:	f5a3 7396 	sub.w	r3, r3, #300	; 0x12c
 800171c:	601a      	str	r2, [r3, #0]
 800171e:	f507 7300 	add.w	r3, r7, #512	; 0x200
 8001722:	f5a3 7398 	sub.w	r3, r3, #304	; 0x130
 8001726:	2202      	movs	r2, #2
 8001728:	601a      	str	r2, [r3, #0]
 800172a:	f507 7300 	add.w	r3, r7, #512	; 0x200
 800172e:	f5a3 7398 	sub.w	r3, r3, #304	; 0x130
 8001732:	681b      	ldr	r3, [r3, #0]
 8001734:	fa93 f2a3 	rbit	r2, r3
 8001738:	f507 7300 	add.w	r3, r7, #512	; 0x200
 800173c:	f5a3 739a 	sub.w	r3, r3, #308	; 0x134
 8001740:	601a      	str	r2, [r3, #0]
      while(__HAL_RCC_GET_FLAG(RCC_FLAG_LSIRDY) != RESET)
 8001742:	4b41      	ldr	r3, [pc, #260]	; (8001848 <HAL_RCC_OscConfig+0x934>)
 8001744:	6a5a      	ldr	r2, [r3, #36]	; 0x24
 8001746:	f507 7300 	add.w	r3, r7, #512	; 0x200
 800174a:	f5a3 739c 	sub.w	r3, r3, #312	; 0x138
 800174e:	2102      	movs	r1, #2
 8001750:	6019      	str	r1, [r3, #0]
 8001752:	f507 7300 	add.w	r3, r7, #512	; 0x200
 8001756:	f5a3 739c 	sub.w	r3, r3, #312	; 0x138
 800175a:	681b      	ldr	r3, [r3, #0]
 800175c:	fa93 f1a3 	rbit	r1, r3
 8001760:	f507 7300 	add.w	r3, r7, #512	; 0x200
 8001764:	f5a3 739e 	sub.w	r3, r3, #316	; 0x13c
 8001768:	6019      	str	r1, [r3, #0]
  return result;
 800176a:	f507 7300 	add.w	r3, r7, #512	; 0x200
 800176e:	f5a3 739e 	sub.w	r3, r3, #316	; 0x13c
 8001772:	681b      	ldr	r3, [r3, #0]
 8001774:	fab3 f383 	clz	r3, r3
 8001778:	b2db      	uxtb	r3, r3
 800177a:	f043 0360 	orr.w	r3, r3, #96	; 0x60
 800177e:	b2db      	uxtb	r3, r3
 8001780:	f003 031f 	and.w	r3, r3, #31
 8001784:	2101      	movs	r1, #1
 8001786:	fa01 f303 	lsl.w	r3, r1, r3
 800178a:	4013      	ands	r3, r2
 800178c:	2b00      	cmp	r3, #0
 800178e:	d197      	bne.n	80016c0 <HAL_RCC_OscConfig+0x7ac>
        }
      }
    }
  }
  /*------------------------------ LSE Configuration -------------------------*/ 
  if(((RCC_OscInitStruct->OscillatorType) & RCC_OSCILLATORTYPE_LSE) == RCC_OSCILLATORTYPE_LSE)
 8001790:	f507 7300 	add.w	r3, r7, #512	; 0x200
 8001794:	f5a3 73fe 	sub.w	r3, r3, #508	; 0x1fc
 8001798:	681b      	ldr	r3, [r3, #0]
 800179a:	681b      	ldr	r3, [r3, #0]
 800179c:	f003 0304 	and.w	r3, r3, #4
 80017a0:	2b00      	cmp	r3, #0
 80017a2:	f000 81a1 	beq.w	8001ae8 <HAL_RCC_OscConfig+0xbd4>
  {
    FlagStatus       pwrclkchanged = RESET;
 80017a6:	2300      	movs	r3, #0
 80017a8:	f887 31ff 	strb.w	r3, [r7, #511]	; 0x1ff
    /* Check the parameters */
    assert_param(IS_RCC_LSE(RCC_OscInitStruct->LSEState));

    /* Update LSE configuration in Backup Domain control register    */
    /* Requires to enable write access to Backup Domain of necessary */
    if(__HAL_RCC_PWR_IS_CLK_DISABLED())
 80017ac:	4b26      	ldr	r3, [pc, #152]	; (8001848 <HAL_RCC_OscConfig+0x934>)
 80017ae:	69db      	ldr	r3, [r3, #28]
 80017b0:	f003 5380 	and.w	r3, r3, #268435456	; 0x10000000
 80017b4:	2b00      	cmp	r3, #0
 80017b6:	d116      	bne.n	80017e6 <HAL_RCC_OscConfig+0x8d2>
    {
      __HAL_RCC_PWR_CLK_ENABLE();
 80017b8:	4b23      	ldr	r3, [pc, #140]	; (8001848 <HAL_RCC_OscConfig+0x934>)
 80017ba:	69db      	ldr	r3, [r3, #28]
 80017bc:	4a22      	ldr	r2, [pc, #136]	; (8001848 <HAL_RCC_OscConfig+0x934>)
 80017be:	f043 5380 	orr.w	r3, r3, #268435456	; 0x10000000
 80017c2:	61d3      	str	r3, [r2, #28]
 80017c4:	4b20      	ldr	r3, [pc, #128]	; (8001848 <HAL_RCC_OscConfig+0x934>)
 80017c6:	69db      	ldr	r3, [r3, #28]
 80017c8:	f003 5280 	and.w	r2, r3, #268435456	; 0x10000000
 80017cc:	f507 7300 	add.w	r3, r7, #512	; 0x200
 80017d0:	f5a3 73fc 	sub.w	r3, r3, #504	; 0x1f8
 80017d4:	601a      	str	r2, [r3, #0]
 80017d6:	f507 7300 	add.w	r3, r7, #512	; 0x200
 80017da:	f5a3 73fc 	sub.w	r3, r3, #504	; 0x1f8
 80017de:	681b      	ldr	r3, [r3, #0]
      pwrclkchanged = SET;
 80017e0:	2301      	movs	r3, #1
 80017e2:	f887 31ff 	strb.w	r3, [r7, #511]	; 0x1ff
    }
    
    if(HAL_IS_BIT_CLR(PWR->CR, PWR_CR_DBP))
 80017e6:	4b1a      	ldr	r3, [pc, #104]	; (8001850 <HAL_RCC_OscConfig+0x93c>)
 80017e8:	681b      	ldr	r3, [r3, #0]
 80017ea:	f403 7380 	and.w	r3, r3, #256	; 0x100
 80017ee:	2b00      	cmp	r3, #0
 80017f0:	d11a      	bne.n	8001828 <HAL_RCC_OscConfig+0x914>
    {
      /* Enable write access to Backup domain */
      SET_BIT(PWR->CR, PWR_CR_DBP);
 80017f2:	4b17      	ldr	r3, [pc, #92]	; (8001850 <HAL_RCC_OscConfig+0x93c>)
 80017f4:	681b      	ldr	r3, [r3, #0]
 80017f6:	4a16      	ldr	r2, [pc, #88]	; (8001850 <HAL_RCC_OscConfig+0x93c>)
 80017f8:	f443 7380 	orr.w	r3, r3, #256	; 0x100
 80017fc:	6013      	str	r3, [r2, #0]
      
      /* Wait for Backup domain Write protection disable */
      tickstart = HAL_GetTick();
 80017fe:	f7fe ff63 	bl	80006c8 <HAL_GetTick>
 8001802:	f8c7 01f8 	str.w	r0, [r7, #504]	; 0x1f8

      while(HAL_IS_BIT_CLR(PWR->CR, PWR_CR_DBP))
 8001806:	e009      	b.n	800181c <HAL_RCC_OscConfig+0x908>
      {
        if((HAL_GetTick() - tickstart) > RCC_DBP_TIMEOUT_VALUE)
 8001808:	f7fe ff5e 	bl	80006c8 <HAL_GetTick>
 800180c:	4602      	mov	r2, r0
 800180e:	f8d7 31f8 	ldr.w	r3, [r7, #504]	; 0x1f8
 8001812:	1ad3      	subs	r3, r2, r3
 8001814:	2b64      	cmp	r3, #100	; 0x64
 8001816:	d901      	bls.n	800181c <HAL_RCC_OscConfig+0x908>
        {
          return HAL_TIMEOUT;
 8001818:	2303      	movs	r3, #3
 800181a:	e3b1      	b.n	8001f80 <HAL_RCC_OscConfig+0x106c>
      while(HAL_IS_BIT_CLR(PWR->CR, PWR_CR_DBP))
 800181c:	4b0c      	ldr	r3, [pc, #48]	; (8001850 <HAL_RCC_OscConfig+0x93c>)
 800181e:	681b      	ldr	r3, [r3, #0]
 8001820:	f403 7380 	and.w	r3, r3, #256	; 0x100
 8001824:	2b00      	cmp	r3, #0
 8001826:	d0ef      	beq.n	8001808 <HAL_RCC_OscConfig+0x8f4>
        }
      }
    }

    /* Set the new LSE configuration -----------------------------------------*/
    __HAL_RCC_LSE_CONFIG(RCC_OscInitStruct->LSEState);
 8001828:	f507 7300 	add.w	r3, r7, #512	; 0x200
 800182c:	f5a3 73fe 	sub.w	r3, r3, #508	; 0x1fc
 8001830:	681b      	ldr	r3, [r3, #0]
 8001832:	68db      	ldr	r3, [r3, #12]
 8001834:	2b01      	cmp	r3, #1
 8001836:	d10d      	bne.n	8001854 <HAL_RCC_OscConfig+0x940>
 8001838:	4b03      	ldr	r3, [pc, #12]	; (8001848 <HAL_RCC_OscConfig+0x934>)
 800183a:	6a1b      	ldr	r3, [r3, #32]
 800183c:	4a02      	ldr	r2, [pc, #8]	; (8001848 <HAL_RCC_OscConfig+0x934>)
 800183e:	f043 0301 	orr.w	r3, r3, #1
 8001842:	6213      	str	r3, [r2, #32]
 8001844:	e03c      	b.n	80018c0 <HAL_RCC_OscConfig+0x9ac>
 8001846:	bf00      	nop
 8001848:	40021000 	.word	0x40021000
 800184c:	10908120 	.word	0x10908120
 8001850:	40007000 	.word	0x40007000
 8001854:	f507 7300 	add.w	r3, r7, #512	; 0x200
 8001858:	f5a3 73fe 	sub.w	r3, r3, #508	; 0x1fc
 800185c:	681b      	ldr	r3, [r3, #0]
 800185e:	68db      	ldr	r3, [r3, #12]
 8001860:	2b00      	cmp	r3, #0
 8001862:	d10c      	bne.n	800187e <HAL_RCC_OscConfig+0x96a>
 8001864:	4bc1      	ldr	r3, [pc, #772]	; (8001b6c <HAL_RCC_OscConfig+0xc58>)
 8001866:	6a1b      	ldr	r3, [r3, #32]
 8001868:	4ac0      	ldr	r2, [pc, #768]	; (8001b6c <HAL_RCC_OscConfig+0xc58>)
 800186a:	f023 0301 	bic.w	r3, r3, #1
 800186e:	6213      	str	r3, [r2, #32]
 8001870:	4bbe      	ldr	r3, [pc, #760]	; (8001b6c <HAL_RCC_OscConfig+0xc58>)
 8001872:	6a1b      	ldr	r3, [r3, #32]
 8001874:	4abd      	ldr	r2, [pc, #756]	; (8001b6c <HAL_RCC_OscConfig+0xc58>)
 8001876:	f023 0304 	bic.w	r3, r3, #4
 800187a:	6213      	str	r3, [r2, #32]
 800187c:	e020      	b.n	80018c0 <HAL_RCC_OscConfig+0x9ac>
 800187e:	f507 7300 	add.w	r3, r7, #512	; 0x200
 8001882:	f5a3 73fe 	sub.w	r3, r3, #508	; 0x1fc
 8001886:	681b      	ldr	r3, [r3, #0]
 8001888:	68db      	ldr	r3, [r3, #12]
 800188a:	2b05      	cmp	r3, #5
 800188c:	d10c      	bne.n	80018a8 <HAL_RCC_OscConfig+0x994>
 800188e:	4bb7      	ldr	r3, [pc, #732]	; (8001b6c <HAL_RCC_OscConfig+0xc58>)
 8001890:	6a1b      	ldr	r3, [r3, #32]
 8001892:	4ab6      	ldr	r2, [pc, #728]	; (8001b6c <HAL_RCC_OscConfig+0xc58>)
 8001894:	f043 0304 	orr.w	r3, r3, #4
 8001898:	6213      	str	r3, [r2, #32]
 800189a:	4bb4      	ldr	r3, [pc, #720]	; (8001b6c <HAL_RCC_OscConfig+0xc58>)
 800189c:	6a1b      	ldr	r3, [r3, #32]
 800189e:	4ab3      	ldr	r2, [pc, #716]	; (8001b6c <HAL_RCC_OscConfig+0xc58>)
 80018a0:	f043 0301 	orr.w	r3, r3, #1
 80018a4:	6213      	str	r3, [r2, #32]
 80018a6:	e00b      	b.n	80018c0 <HAL_RCC_OscConfig+0x9ac>
 80018a8:	4bb0      	ldr	r3, [pc, #704]	; (8001b6c <HAL_RCC_OscConfig+0xc58>)
 80018aa:	6a1b      	ldr	r3, [r3, #32]
 80018ac:	4aaf      	ldr	r2, [pc, #700]	; (8001b6c <HAL_RCC_OscConfig+0xc58>)
 80018ae:	f023 0301 	bic.w	r3, r3, #1
 80018b2:	6213      	str	r3, [r2, #32]
 80018b4:	4bad      	ldr	r3, [pc, #692]	; (8001b6c <HAL_RCC_OscConfig+0xc58>)
 80018b6:	6a1b      	ldr	r3, [r3, #32]
 80018b8:	4aac      	ldr	r2, [pc, #688]	; (8001b6c <HAL_RCC_OscConfig+0xc58>)
 80018ba:	f023 0304 	bic.w	r3, r3, #4
 80018be:	6213      	str	r3, [r2, #32]
    /* Check the LSE State */
    if(RCC_OscInitStruct->LSEState != RCC_LSE_OFF)
 80018c0:	f507 7300 	add.w	r3, r7, #512	; 0x200
 80018c4:	f5a3 73fe 	sub.w	r3, r3, #508	; 0x1fc
 80018c8:	681b      	ldr	r3, [r3, #0]
 80018ca:	68db      	ldr	r3, [r3, #12]
 80018cc:	2b00      	cmp	r3, #0
 80018ce:	f000 8081 	beq.w	80019d4 <HAL_RCC_OscConfig+0xac0>
    {
      /* Get Start Tick */
      tickstart = HAL_GetTick();
 80018d2:	f7fe fef9 	bl	80006c8 <HAL_GetTick>
 80018d6:	f8c7 01f8 	str.w	r0, [r7, #504]	; 0x1f8
      
      /* Wait till LSE is ready */  
      while(__HAL_RCC_GET_FLAG(RCC_FLAG_LSERDY) == RESET)
 80018da:	e00b      	b.n	80018f4 <HAL_RCC_OscConfig+0x9e0>
      {
        if((HAL_GetTick() - tickstart ) > RCC_LSE_TIMEOUT_VALUE)
 80018dc:	f7fe fef4 	bl	80006c8 <HAL_GetTick>
 80018e0:	4602      	mov	r2, r0
 80018e2:	f8d7 31f8 	ldr.w	r3, [r7, #504]	; 0x1f8
 80018e6:	1ad3      	subs	r3, r2, r3
 80018e8:	f241 3288 	movw	r2, #5000	; 0x1388
 80018ec:	4293      	cmp	r3, r2
 80018ee:	d901      	bls.n	80018f4 <HAL_RCC_OscConfig+0x9e0>
        {
          return HAL_TIMEOUT;
 80018f0:	2303      	movs	r3, #3
 80018f2:	e345      	b.n	8001f80 <HAL_RCC_OscConfig+0x106c>
 80018f4:	f507 7300 	add.w	r3, r7, #512	; 0x200
 80018f8:	f5a3 73a0 	sub.w	r3, r3, #320	; 0x140
 80018fc:	2202      	movs	r2, #2
 80018fe:	601a      	str	r2, [r3, #0]
   __ASM volatile ("rbit %0, %1" : "=r" (result) : "r" (value) );
 8001900:	f507 7300 	add.w	r3, r7, #512	; 0x200
 8001904:	f5a3 73a0 	sub.w	r3, r3, #320	; 0x140
 8001908:	681b      	ldr	r3, [r3, #0]
 800190a:	fa93 f2a3 	rbit	r2, r3
 800190e:	f507 7300 	add.w	r3, r7, #512	; 0x200
 8001912:	f5a3 73a2 	sub.w	r3, r3, #324	; 0x144
 8001916:	601a      	str	r2, [r3, #0]
 8001918:	f507 7300 	add.w	r3, r7, #512	; 0x200
 800191c:	f5a3 73a4 	sub.w	r3, r3, #328	; 0x148
 8001920:	2202      	movs	r2, #2
 8001922:	601a      	str	r2, [r3, #0]
 8001924:	f507 7300 	add.w	r3, r7, #512	; 0x200
 8001928:	f5a3 73a4 	sub.w	r3, r3, #328	; 0x148
 800192c:	681b      	ldr	r3, [r3, #0]
 800192e:	fa93 f2a3 	rbit	r2, r3
 8001932:	f507 7300 	add.w	r3, r7, #512	; 0x200
 8001936:	f5a3 73a6 	sub.w	r3, r3, #332	; 0x14c
 800193a:	601a      	str	r2, [r3, #0]
  return result;
 800193c:	f507 7300 	add.w	r3, r7, #512	; 0x200
 8001940:	f5a3 73a6 	sub.w	r3, r3, #332	; 0x14c
 8001944:	681b      	ldr	r3, [r3, #0]
      while(__HAL_RCC_GET_FLAG(RCC_FLAG_LSERDY) == RESET)
 8001946:	fab3 f383 	clz	r3, r3
 800194a:	b2db      	uxtb	r3, r3
 800194c:	095b      	lsrs	r3, r3, #5
 800194e:	b2db      	uxtb	r3, r3
 8001950:	f043 0302 	orr.w	r3, r3, #2
 8001954:	b2db      	uxtb	r3, r3
 8001956:	2b02      	cmp	r3, #2
 8001958:	d102      	bne.n	8001960 <HAL_RCC_OscConfig+0xa4c>
 800195a:	4b84      	ldr	r3, [pc, #528]	; (8001b6c <HAL_RCC_OscConfig+0xc58>)
 800195c:	6a1b      	ldr	r3, [r3, #32]
 800195e:	e013      	b.n	8001988 <HAL_RCC_OscConfig+0xa74>
 8001960:	f507 7300 	add.w	r3, r7, #512	; 0x200
 8001964:	f5a3 73a8 	sub.w	r3, r3, #336	; 0x150
 8001968:	2202      	movs	r2, #2
 800196a:	601a      	str	r2, [r3, #0]
   __ASM volatile ("rbit %0, %1" : "=r" (result) : "r" (value) );
 800196c:	f507 7300 	add.w	r3, r7, #512	; 0x200
 8001970:	f5a3 73a8 	sub.w	r3, r3, #336	; 0x150
 8001974:	681b      	ldr	r3, [r3, #0]
 8001976:	fa93 f2a3 	rbit	r2, r3
 800197a:	f507 7300 	add.w	r3, r7, #512	; 0x200
 800197e:	f5a3 73aa 	sub.w	r3, r3, #340	; 0x154
 8001982:	601a      	str	r2, [r3, #0]
 8001984:	4b79      	ldr	r3, [pc, #484]	; (8001b6c <HAL_RCC_OscConfig+0xc58>)
 8001986:	6a5b      	ldr	r3, [r3, #36]	; 0x24
 8001988:	f507 7200 	add.w	r2, r7, #512	; 0x200
 800198c:	f5a2 72ac 	sub.w	r2, r2, #344	; 0x158
 8001990:	2102      	movs	r1, #2
 8001992:	6011      	str	r1, [r2, #0]
 8001994:	f507 7200 	add.w	r2, r7, #512	; 0x200
 8001998:	f5a2 72ac 	sub.w	r2, r2, #344	; 0x158
 800199c:	6812      	ldr	r2, [r2, #0]
 800199e:	fa92 f1a2 	rbit	r1, r2
 80019a2:	f507 7200 	add.w	r2, r7, #512	; 0x200
 80019a6:	f5a2 72ae 	sub.w	r2, r2, #348	; 0x15c
 80019aa:	6011      	str	r1, [r2, #0]
  return result;
 80019ac:	f507 7200 	add.w	r2, r7, #512	; 0x200
 80019b0:	f5a2 72ae 	sub.w	r2, r2, #348	; 0x15c
 80019b4:	6812      	ldr	r2, [r2, #0]
 80019b6:	fab2 f282 	clz	r2, r2
 80019ba:	b2d2      	uxtb	r2, r2
 80019bc:	f042 0240 	orr.w	r2, r2, #64	; 0x40
 80019c0:	b2d2      	uxtb	r2, r2
 80019c2:	f002 021f 	and.w	r2, r2, #31
 80019c6:	2101      	movs	r1, #1
 80019c8:	fa01 f202 	lsl.w	r2, r1, r2
 80019cc:	4013      	ands	r3, r2
 80019ce:	2b00      	cmp	r3, #0
 80019d0:	d084      	beq.n	80018dc <HAL_RCC_OscConfig+0x9c8>
 80019d2:	e07f      	b.n	8001ad4 <HAL_RCC_OscConfig+0xbc0>
      }
    }
    else
    {
      /* Get Start Tick */
      tickstart = HAL_GetTick();
 80019d4:	f7fe fe78 	bl	80006c8 <HAL_GetTick>
 80019d8:	f8c7 01f8 	str.w	r0, [r7, #504]	; 0x1f8
      
      /* Wait till LSE is disabled */  
      while(__HAL_RCC_GET_FLAG(RCC_FLAG_LSERDY) != RESET)
 80019dc:	e00b      	b.n	80019f6 <HAL_RCC_OscConfig+0xae2>
      {
        if((HAL_GetTick() - tickstart ) > RCC_LSE_TIMEOUT_VALUE)
 80019de:	f7fe fe73 	bl	80006c8 <HAL_GetTick>
 80019e2:	4602      	mov	r2, r0
 80019e4:	f8d7 31f8 	ldr.w	r3, [r7, #504]	; 0x1f8
 80019e8:	1ad3      	subs	r3, r2, r3
 80019ea:	f241 3288 	movw	r2, #5000	; 0x1388
 80019ee:	4293      	cmp	r3, r2
 80019f0:	d901      	bls.n	80019f6 <HAL_RCC_OscConfig+0xae2>
        {
          return HAL_TIMEOUT;
 80019f2:	2303      	movs	r3, #3
 80019f4:	e2c4      	b.n	8001f80 <HAL_RCC_OscConfig+0x106c>
 80019f6:	f507 7300 	add.w	r3, r7, #512	; 0x200
 80019fa:	f5a3 73b0 	sub.w	r3, r3, #352	; 0x160
 80019fe:	2202      	movs	r2, #2
 8001a00:	601a      	str	r2, [r3, #0]
   __ASM volatile ("rbit %0, %1" : "=r" (result) : "r" (value) );
 8001a02:	f507 7300 	add.w	r3, r7, #512	; 0x200
 8001a06:	f5a3 73b0 	sub.w	r3, r3, #352	; 0x160
 8001a0a:	681b      	ldr	r3, [r3, #0]
 8001a0c:	fa93 f2a3 	rbit	r2, r3
 8001a10:	f507 7300 	add.w	r3, r7, #512	; 0x200
 8001a14:	f5a3 73b2 	sub.w	r3, r3, #356	; 0x164
 8001a18:	601a      	str	r2, [r3, #0]
 8001a1a:	f507 7300 	add.w	r3, r7, #512	; 0x200
 8001a1e:	f5a3 73b4 	sub.w	r3, r3, #360	; 0x168
 8001a22:	2202      	movs	r2, #2
 8001a24:	601a      	str	r2, [r3, #0]
 8001a26:	f507 7300 	add.w	r3, r7, #512	; 0x200
 8001a2a:	f5a3 73b4 	sub.w	r3, r3, #360	; 0x168
 8001a2e:	681b      	ldr	r3, [r3, #0]
 8001a30:	fa93 f2a3 	rbit	r2, r3
 8001a34:	f507 7300 	add.w	r3, r7, #512	; 0x200
 8001a38:	f5a3 73b6 	sub.w	r3, r3, #364	; 0x16c
 8001a3c:	601a      	str	r2, [r3, #0]
  return result;
 8001a3e:	f507 7300 	add.w	r3, r7, #512	; 0x200
 8001a42:	f5a3 73b6 	sub.w	r3, r3, #364	; 0x16c
 8001a46:	681b      	ldr	r3, [r3, #0]
      while(__HAL_RCC_GET_FLAG(RCC_FLAG_LSERDY) != RESET)
 8001a48:	fab3 f383 	clz	r3, r3
 8001a4c:	b2db      	uxtb	r3, r3
 8001a4e:	095b      	lsrs	r3, r3, #5
 8001a50:	b2db      	uxtb	r3, r3
 8001a52:	f043 0302 	orr.w	r3, r3, #2
 8001a56:	b2db      	uxtb	r3, r3
 8001a58:	2b02      	cmp	r3, #2
 8001a5a:	d102      	bne.n	8001a62 <HAL_RCC_OscConfig+0xb4e>
 8001a5c:	4b43      	ldr	r3, [pc, #268]	; (8001b6c <HAL_RCC_OscConfig+0xc58>)
 8001a5e:	6a1b      	ldr	r3, [r3, #32]
 8001a60:	e013      	b.n	8001a8a <HAL_RCC_OscConfig+0xb76>
 8001a62:	f507 7300 	add.w	r3, r7, #512	; 0x200
 8001a66:	f5a3 73b8 	sub.w	r3, r3, #368	; 0x170
 8001a6a:	2202      	movs	r2, #2
 8001a6c:	601a      	str	r2, [r3, #0]
   __ASM volatile ("rbit %0, %1" : "=r" (result) : "r" (value) );
 8001a6e:	f507 7300 	add.w	r3, r7, #512	; 0x200
 8001a72:	f5a3 73b8 	sub.w	r3, r3, #368	; 0x170
 8001a76:	681b      	ldr	r3, [r3, #0]
 8001a78:	fa93 f2a3 	rbit	r2, r3
 8001a7c:	f507 7300 	add.w	r3, r7, #512	; 0x200
 8001a80:	f5a3 73ba 	sub.w	r3, r3, #372	; 0x174
 8001a84:	601a      	str	r2, [r3, #0]
 8001a86:	4b39      	ldr	r3, [pc, #228]	; (8001b6c <HAL_RCC_OscConfig+0xc58>)
 8001a88:	6a5b      	ldr	r3, [r3, #36]	; 0x24
 8001a8a:	f507 7200 	add.w	r2, r7, #512	; 0x200
 8001a8e:	f5a2 72bc 	sub.w	r2, r2, #376	; 0x178
 8001a92:	2102      	movs	r1, #2
 8001a94:	6011      	str	r1, [r2, #0]
 8001a96:	f507 7200 	add.w	r2, r7, #512	; 0x200
 8001a9a:	f5a2 72bc 	sub.w	r2, r2, #376	; 0x178
 8001a9e:	6812      	ldr	r2, [r2, #0]
 8001aa0:	fa92 f1a2 	rbit	r1, r2
 8001aa4:	f507 7200 	add.w	r2, r7, #512	; 0x200
 8001aa8:	f5a2 72be 	sub.w	r2, r2, #380	; 0x17c
 8001aac:	6011      	str	r1, [r2, #0]
  return result;
 8001aae:	f507 7200 	add.w	r2, r7, #512	; 0x200
 8001ab2:	f5a2 72be 	sub.w	r2, r2, #380	; 0x17c
 8001ab6:	6812      	ldr	r2, [r2, #0]
 8001ab8:	fab2 f282 	clz	r2, r2
 8001abc:	b2d2      	uxtb	r2, r2
 8001abe:	f042 0240 	orr.w	r2, r2, #64	; 0x40
 8001ac2:	b2d2      	uxtb	r2, r2
 8001ac4:	f002 021f 	and.w	r2, r2, #31
 8001ac8:	2101      	movs	r1, #1
 8001aca:	fa01 f202 	lsl.w	r2, r1, r2
 8001ace:	4013      	ands	r3, r2
 8001ad0:	2b00      	cmp	r3, #0
 8001ad2:	d184      	bne.n	80019de <HAL_RCC_OscConfig+0xaca>
        }
      }
    }

    /* Require to disable power clock if necessary */
    if(pwrclkchanged == SET)
 8001ad4:	f897 31ff 	ldrb.w	r3, [r7, #511]	; 0x1ff
 8001ad8:	2b01      	cmp	r3, #1
 8001ada:	d105      	bne.n	8001ae8 <HAL_RCC_OscConfig+0xbd4>
    {
      __HAL_RCC_PWR_CLK_DISABLE();
 8001adc:	4b23      	ldr	r3, [pc, #140]	; (8001b6c <HAL_RCC_OscConfig+0xc58>)
 8001ade:	69db      	ldr	r3, [r3, #28]
 8001ae0:	4a22      	ldr	r2, [pc, #136]	; (8001b6c <HAL_RCC_OscConfig+0xc58>)
 8001ae2:	f023 5380 	bic.w	r3, r3, #268435456	; 0x10000000
 8001ae6:	61d3      	str	r3, [r2, #28]
  }

  /*-------------------------------- PLL Configuration -----------------------*/
  /* Check the parameters */
  assert_param(IS_RCC_PLL(RCC_OscInitStruct->PLL.PLLState));
  if ((RCC_OscInitStruct->PLL.PLLState) != RCC_PLL_NONE)
 8001ae8:	f507 7300 	add.w	r3, r7, #512	; 0x200
 8001aec:	f5a3 73fe 	sub.w	r3, r3, #508	; 0x1fc
 8001af0:	681b      	ldr	r3, [r3, #0]
 8001af2:	69db      	ldr	r3, [r3, #28]
 8001af4:	2b00      	cmp	r3, #0
 8001af6:	f000 8242 	beq.w	8001f7e <HAL_RCC_OscConfig+0x106a>
  {
    /* Check if the PLL is used as system clock or not */
    if(__HAL_RCC_GET_SYSCLK_SOURCE() != RCC_SYSCLKSOURCE_STATUS_PLLCLK)
 8001afa:	4b1c      	ldr	r3, [pc, #112]	; (8001b6c <HAL_RCC_OscConfig+0xc58>)
 8001afc:	685b      	ldr	r3, [r3, #4]
 8001afe:	f003 030c 	and.w	r3, r3, #12
 8001b02:	2b08      	cmp	r3, #8
 8001b04:	f000 8213 	beq.w	8001f2e <HAL_RCC_OscConfig+0x101a>
    { 
      if((RCC_OscInitStruct->PLL.PLLState) == RCC_PLL_ON)
 8001b08:	f507 7300 	add.w	r3, r7, #512	; 0x200
 8001b0c:	f5a3 73fe 	sub.w	r3, r3, #508	; 0x1fc
 8001b10:	681b      	ldr	r3, [r3, #0]
 8001b12:	69db      	ldr	r3, [r3, #28]
 8001b14:	2b02      	cmp	r3, #2
 8001b16:	f040 8162 	bne.w	8001dde <HAL_RCC_OscConfig+0xeca>
 8001b1a:	f507 7300 	add.w	r3, r7, #512	; 0x200
 8001b1e:	f5a3 73c0 	sub.w	r3, r3, #384	; 0x180
 8001b22:	f04f 7280 	mov.w	r2, #16777216	; 0x1000000
 8001b26:	601a      	str	r2, [r3, #0]
   __ASM volatile ("rbit %0, %1" : "=r" (result) : "r" (value) );
 8001b28:	f507 7300 	add.w	r3, r7, #512	; 0x200
 8001b2c:	f5a3 73c0 	sub.w	r3, r3, #384	; 0x180
 8001b30:	681b      	ldr	r3, [r3, #0]
 8001b32:	fa93 f2a3 	rbit	r2, r3
 8001b36:	f507 7300 	add.w	r3, r7, #512	; 0x200
 8001b3a:	f5a3 73c2 	sub.w	r3, r3, #388	; 0x184
 8001b3e:	601a      	str	r2, [r3, #0]
  return result;
 8001b40:	f507 7300 	add.w	r3, r7, #512	; 0x200
 8001b44:	f5a3 73c2 	sub.w	r3, r3, #388	; 0x184
 8001b48:	681b      	ldr	r3, [r3, #0]
#if   defined(RCC_CFGR_PLLSRC_HSI_PREDIV)
        assert_param(IS_RCC_PREDIV(RCC_OscInitStruct->PLL.PREDIV));
#endif
  
        /* Disable the main PLL. */
        __HAL_RCC_PLL_DISABLE();
 8001b4a:	fab3 f383 	clz	r3, r3
 8001b4e:	b2db      	uxtb	r3, r3
 8001b50:	f103 5384 	add.w	r3, r3, #276824064	; 0x10800000
 8001b54:	f503 1384 	add.w	r3, r3, #1081344	; 0x108000
 8001b58:	009b      	lsls	r3, r3, #2
 8001b5a:	461a      	mov	r2, r3
 8001b5c:	2300      	movs	r3, #0
 8001b5e:	6013      	str	r3, [r2, #0]
        
        /* Get Start Tick */
        tickstart = HAL_GetTick();
 8001b60:	f7fe fdb2 	bl	80006c8 <HAL_GetTick>
 8001b64:	f8c7 01f8 	str.w	r0, [r7, #504]	; 0x1f8
        
        /* Wait till PLL is disabled */
        while(__HAL_RCC_GET_FLAG(RCC_FLAG_PLLRDY)  != RESET)
 8001b68:	e00c      	b.n	8001b84 <HAL_RCC_OscConfig+0xc70>
 8001b6a:	bf00      	nop
 8001b6c:	40021000 	.word	0x40021000
        {
          if((HAL_GetTick() - tickstart ) > PLL_TIMEOUT_VALUE)
 8001b70:	f7fe fdaa 	bl	80006c8 <HAL_GetTick>
 8001b74:	4602      	mov	r2, r0
 8001b76:	f8d7 31f8 	ldr.w	r3, [r7, #504]	; 0x1f8
 8001b7a:	1ad3      	subs	r3, r2, r3
 8001b7c:	2b02      	cmp	r3, #2
 8001b7e:	d901      	bls.n	8001b84 <HAL_RCC_OscConfig+0xc70>
          {
            return HAL_TIMEOUT;
 8001b80:	2303      	movs	r3, #3
 8001b82:	e1fd      	b.n	8001f80 <HAL_RCC_OscConfig+0x106c>
 8001b84:	f507 7300 	add.w	r3, r7, #512	; 0x200
 8001b88:	f5a3 73c4 	sub.w	r3, r3, #392	; 0x188
 8001b8c:	f04f 7200 	mov.w	r2, #33554432	; 0x2000000
 8001b90:	601a      	str	r2, [r3, #0]
   __ASM volatile ("rbit %0, %1" : "=r" (result) : "r" (value) );
 8001b92:	f507 7300 	add.w	r3, r7, #512	; 0x200
 8001b96:	f5a3 73c4 	sub.w	r3, r3, #392	; 0x188
 8001b9a:	681b      	ldr	r3, [r3, #0]
 8001b9c:	fa93 f2a3 	rbit	r2, r3
 8001ba0:	f507 7300 	add.w	r3, r7, #512	; 0x200
 8001ba4:	f5a3 73c6 	sub.w	r3, r3, #396	; 0x18c
 8001ba8:	601a      	str	r2, [r3, #0]
  return result;
 8001baa:	f507 7300 	add.w	r3, r7, #512	; 0x200
 8001bae:	f5a3 73c6 	sub.w	r3, r3, #396	; 0x18c
 8001bb2:	681b      	ldr	r3, [r3, #0]
        while(__HAL_RCC_GET_FLAG(RCC_FLAG_PLLRDY)  != RESET)
 8001bb4:	fab3 f383 	clz	r3, r3
 8001bb8:	b2db      	uxtb	r3, r3
 8001bba:	095b      	lsrs	r3, r3, #5
 8001bbc:	b2db      	uxtb	r3, r3
 8001bbe:	f043 0301 	orr.w	r3, r3, #1
 8001bc2:	b2db      	uxtb	r3, r3
 8001bc4:	2b01      	cmp	r3, #1
 8001bc6:	d102      	bne.n	8001bce <HAL_RCC_OscConfig+0xcba>
 8001bc8:	4bb0      	ldr	r3, [pc, #704]	; (8001e8c <HAL_RCC_OscConfig+0xf78>)
 8001bca:	681b      	ldr	r3, [r3, #0]
 8001bcc:	e027      	b.n	8001c1e <HAL_RCC_OscConfig+0xd0a>
 8001bce:	f507 7300 	add.w	r3, r7, #512	; 0x200
 8001bd2:	f5a3 73c8 	sub.w	r3, r3, #400	; 0x190
 8001bd6:	f04f 7200 	mov.w	r2, #33554432	; 0x2000000
 8001bda:	601a      	str	r2, [r3, #0]
   __ASM volatile ("rbit %0, %1" : "=r" (result) : "r" (value) );
 8001bdc:	f507 7300 	add.w	r3, r7, #512	; 0x200
 8001be0:	f5a3 73c8 	sub.w	r3, r3, #400	; 0x190
 8001be4:	681b      	ldr	r3, [r3, #0]
 8001be6:	fa93 f2a3 	rbit	r2, r3
 8001bea:	f507 7300 	add.w	r3, r7, #512	; 0x200
 8001bee:	f5a3 73ca 	sub.w	r3, r3, #404	; 0x194
 8001bf2:	601a      	str	r2, [r3, #0]
 8001bf4:	f507 7300 	add.w	r3, r7, #512	; 0x200
 8001bf8:	f5a3 73cc 	sub.w	r3, r3, #408	; 0x198
 8001bfc:	f04f 7200 	mov.w	r2, #33554432	; 0x2000000
 8001c00:	601a      	str	r2, [r3, #0]
 8001c02:	f507 7300 	add.w	r3, r7, #512	; 0x200
 8001c06:	f5a3 73cc 	sub.w	r3, r3, #408	; 0x198
 8001c0a:	681b      	ldr	r3, [r3, #0]
 8001c0c:	fa93 f2a3 	rbit	r2, r3
 8001c10:	f507 7300 	add.w	r3, r7, #512	; 0x200
 8001c14:	f5a3 73ce 	sub.w	r3, r3, #412	; 0x19c
 8001c18:	601a      	str	r2, [r3, #0]
 8001c1a:	4b9c      	ldr	r3, [pc, #624]	; (8001e8c <HAL_RCC_OscConfig+0xf78>)
 8001c1c:	6a5b      	ldr	r3, [r3, #36]	; 0x24
 8001c1e:	f507 7200 	add.w	r2, r7, #512	; 0x200
 8001c22:	f5a2 72d0 	sub.w	r2, r2, #416	; 0x1a0
 8001c26:	f04f 7100 	mov.w	r1, #33554432	; 0x2000000
 8001c2a:	6011      	str	r1, [r2, #0]
 8001c2c:	f507 7200 	add.w	r2, r7, #512	; 0x200
 8001c30:	f5a2 72d0 	sub.w	r2, r2, #416	; 0x1a0
 8001c34:	6812      	ldr	r2, [r2, #0]
 8001c36:	fa92 f1a2 	rbit	r1, r2
 8001c3a:	f507 7200 	add.w	r2, r7, #512	; 0x200
 8001c3e:	f5a2 72d2 	sub.w	r2, r2, #420	; 0x1a4
 8001c42:	6011      	str	r1, [r2, #0]
  return result;
 8001c44:	f507 7200 	add.w	r2, r7, #512	; 0x200
 8001c48:	f5a2 72d2 	sub.w	r2, r2, #420	; 0x1a4
 8001c4c:	6812      	ldr	r2, [r2, #0]
 8001c4e:	fab2 f282 	clz	r2, r2
 8001c52:	b2d2      	uxtb	r2, r2
 8001c54:	f042 0220 	orr.w	r2, r2, #32
 8001c58:	b2d2      	uxtb	r2, r2
 8001c5a:	f002 021f 	and.w	r2, r2, #31
 8001c5e:	2101      	movs	r1, #1
 8001c60:	fa01 f202 	lsl.w	r2, r1, r2
 8001c64:	4013      	ands	r3, r2
 8001c66:	2b00      	cmp	r3, #0
 8001c68:	d182      	bne.n	8001b70 <HAL_RCC_OscConfig+0xc5c>
        __HAL_RCC_PLL_CONFIG(RCC_OscInitStruct->PLL.PLLSource,
                             RCC_OscInitStruct->PLL.PREDIV,
                             RCC_OscInitStruct->PLL.PLLMUL);
#else
      /* Configure the main PLL clock source and multiplication factor. */
      __HAL_RCC_PLL_CONFIG(RCC_OscInitStruct->PLL.PLLSource,
 8001c6a:	4b88      	ldr	r3, [pc, #544]	; (8001e8c <HAL_RCC_OscConfig+0xf78>)
 8001c6c:	685b      	ldr	r3, [r3, #4]
 8001c6e:	f423 1274 	bic.w	r2, r3, #3997696	; 0x3d0000
 8001c72:	f507 7300 	add.w	r3, r7, #512	; 0x200
 8001c76:	f5a3 73fe 	sub.w	r3, r3, #508	; 0x1fc
 8001c7a:	681b      	ldr	r3, [r3, #0]
 8001c7c:	6a59      	ldr	r1, [r3, #36]	; 0x24
 8001c7e:	f507 7300 	add.w	r3, r7, #512	; 0x200
 8001c82:	f5a3 73fe 	sub.w	r3, r3, #508	; 0x1fc
 8001c86:	681b      	ldr	r3, [r3, #0]
 8001c88:	6a1b      	ldr	r3, [r3, #32]
 8001c8a:	430b      	orrs	r3, r1
 8001c8c:	497f      	ldr	r1, [pc, #508]	; (8001e8c <HAL_RCC_OscConfig+0xf78>)
 8001c8e:	4313      	orrs	r3, r2
 8001c90:	604b      	str	r3, [r1, #4]
 8001c92:	f507 7300 	add.w	r3, r7, #512	; 0x200
 8001c96:	f5a3 73d4 	sub.w	r3, r3, #424	; 0x1a8
 8001c9a:	f04f 7280 	mov.w	r2, #16777216	; 0x1000000
 8001c9e:	601a      	str	r2, [r3, #0]
   __ASM volatile ("rbit %0, %1" : "=r" (result) : "r" (value) );
 8001ca0:	f507 7300 	add.w	r3, r7, #512	; 0x200
 8001ca4:	f5a3 73d4 	sub.w	r3, r3, #424	; 0x1a8
 8001ca8:	681b      	ldr	r3, [r3, #0]
 8001caa:	fa93 f2a3 	rbit	r2, r3
 8001cae:	f507 7300 	add.w	r3, r7, #512	; 0x200
 8001cb2:	f5a3 73d6 	sub.w	r3, r3, #428	; 0x1ac
 8001cb6:	601a      	str	r2, [r3, #0]
  return result;
 8001cb8:	f507 7300 	add.w	r3, r7, #512	; 0x200
 8001cbc:	f5a3 73d6 	sub.w	r3, r3, #428	; 0x1ac
 8001cc0:	681b      	ldr	r3, [r3, #0]
                           RCC_OscInitStruct->PLL.PLLMUL);
#endif /* RCC_CFGR_PLLSRC_HSI_PREDIV */
        /* Enable the main PLL. */
        __HAL_RCC_PLL_ENABLE();
 8001cc2:	fab3 f383 	clz	r3, r3
 8001cc6:	b2db      	uxtb	r3, r3
 8001cc8:	f103 5384 	add.w	r3, r3, #276824064	; 0x10800000
 8001ccc:	f503 1384 	add.w	r3, r3, #1081344	; 0x108000
 8001cd0:	009b      	lsls	r3, r3, #2
 8001cd2:	461a      	mov	r2, r3
 8001cd4:	2301      	movs	r3, #1
 8001cd6:	6013      	str	r3, [r2, #0]
        
        /* Get Start Tick */
        tickstart = HAL_GetTick();
 8001cd8:	f7fe fcf6 	bl	80006c8 <HAL_GetTick>
 8001cdc:	f8c7 01f8 	str.w	r0, [r7, #504]	; 0x1f8
        
        /* Wait till PLL is ready */
        while(__HAL_RCC_GET_FLAG(RCC_FLAG_PLLRDY)  == RESET)
 8001ce0:	e009      	b.n	8001cf6 <HAL_RCC_OscConfig+0xde2>
        {
          if((HAL_GetTick() - tickstart ) > PLL_TIMEOUT_VALUE)
 8001ce2:	f7fe fcf1 	bl	80006c8 <HAL_GetTick>
 8001ce6:	4602      	mov	r2, r0
 8001ce8:	f8d7 31f8 	ldr.w	r3, [r7, #504]	; 0x1f8
 8001cec:	1ad3      	subs	r3, r2, r3
 8001cee:	2b02      	cmp	r3, #2
 8001cf0:	d901      	bls.n	8001cf6 <HAL_RCC_OscConfig+0xde2>
          {
            return HAL_TIMEOUT;
 8001cf2:	2303      	movs	r3, #3
 8001cf4:	e144      	b.n	8001f80 <HAL_RCC_OscConfig+0x106c>
 8001cf6:	f507 7300 	add.w	r3, r7, #512	; 0x200
 8001cfa:	f5a3 73d8 	sub.w	r3, r3, #432	; 0x1b0
 8001cfe:	f04f 7200 	mov.w	r2, #33554432	; 0x2000000
 8001d02:	601a      	str	r2, [r3, #0]
   __ASM volatile ("rbit %0, %1" : "=r" (result) : "r" (value) );
 8001d04:	f507 7300 	add.w	r3, r7, #512	; 0x200
 8001d08:	f5a3 73d8 	sub.w	r3, r3, #432	; 0x1b0
 8001d0c:	681b      	ldr	r3, [r3, #0]
 8001d0e:	fa93 f2a3 	rbit	r2, r3
 8001d12:	f507 7300 	add.w	r3, r7, #512	; 0x200
 8001d16:	f5a3 73da 	sub.w	r3, r3, #436	; 0x1b4
 8001d1a:	601a      	str	r2, [r3, #0]
  return result;
 8001d1c:	f507 7300 	add.w	r3, r7, #512	; 0x200
 8001d20:	f5a3 73da 	sub.w	r3, r3, #436	; 0x1b4
 8001d24:	681b      	ldr	r3, [r3, #0]
        while(__HAL_RCC_GET_FLAG(RCC_FLAG_PLLRDY)  == RESET)
 8001d26:	fab3 f383 	clz	r3, r3
 8001d2a:	b2db      	uxtb	r3, r3
 8001d2c:	095b      	lsrs	r3, r3, #5
 8001d2e:	b2db      	uxtb	r3, r3
 8001d30:	f043 0301 	orr.w	r3, r3, #1
 8001d34:	b2db      	uxtb	r3, r3
 8001d36:	2b01      	cmp	r3, #1
 8001d38:	d102      	bne.n	8001d40 <HAL_RCC_OscConfig+0xe2c>
 8001d3a:	4b54      	ldr	r3, [pc, #336]	; (8001e8c <HAL_RCC_OscConfig+0xf78>)
 8001d3c:	681b      	ldr	r3, [r3, #0]
 8001d3e:	e027      	b.n	8001d90 <HAL_RCC_OscConfig+0xe7c>
 8001d40:	f507 7300 	add.w	r3, r7, #512	; 0x200
 8001d44:	f5a3 73dc 	sub.w	r3, r3, #440	; 0x1b8
 8001d48:	f04f 7200 	mov.w	r2, #33554432	; 0x2000000
 8001d4c:	601a      	str	r2, [r3, #0]
   __ASM volatile ("rbit %0, %1" : "=r" (result) : "r" (value) );
 8001d4e:	f507 7300 	add.w	r3, r7, #512	; 0x200
 8001d52:	f5a3 73dc 	sub.w	r3, r3, #440	; 0x1b8
 8001d56:	681b      	ldr	r3, [r3, #0]
 8001d58:	fa93 f2a3 	rbit	r2, r3
 8001d5c:	f507 7300 	add.w	r3, r7, #512	; 0x200
 8001d60:	f5a3 73de 	sub.w	r3, r3, #444	; 0x1bc
 8001d64:	601a      	str	r2, [r3, #0]
 8001d66:	f507 7300 	add.w	r3, r7, #512	; 0x200
 8001d6a:	f5a3 73e0 	sub.w	r3, r3, #448	; 0x1c0
 8001d6e:	f04f 7200 	mov.w	r2, #33554432	; 0x2000000
 8001d72:	601a      	str	r2, [r3, #0]
 8001d74:	f507 7300 	add.w	r3, r7, #512	; 0x200
 8001d78:	f5a3 73e0 	sub.w	r3, r3, #448	; 0x1c0
 8001d7c:	681b      	ldr	r3, [r3, #0]
 8001d7e:	fa93 f2a3 	rbit	r2, r3
 8001d82:	f507 7300 	add.w	r3, r7, #512	; 0x200
 8001d86:	f5a3 73e2 	sub.w	r3, r3, #452	; 0x1c4
 8001d8a:	601a      	str	r2, [r3, #0]
 8001d8c:	4b3f      	ldr	r3, [pc, #252]	; (8001e8c <HAL_RCC_OscConfig+0xf78>)
 8001d8e:	6a5b      	ldr	r3, [r3, #36]	; 0x24
 8001d90:	f507 7200 	add.w	r2, r7, #512	; 0x200
 8001d94:	f5a2 72e4 	sub.w	r2, r2, #456	; 0x1c8
 8001d98:	f04f 7100 	mov.w	r1, #33554432	; 0x2000000
 8001d9c:	6011      	str	r1, [r2, #0]
 8001d9e:	f507 7200 	add.w	r2, r7, #512	; 0x200
 8001da2:	f5a2 72e4 	sub.w	r2, r2, #456	; 0x1c8
 8001da6:	6812      	ldr	r2, [r2, #0]
 8001da8:	fa92 f1a2 	rbit	r1, r2
 8001dac:	f507 7200 	add.w	r2, r7, #512	; 0x200
 8001db0:	f5a2 72e6 	sub.w	r2, r2, #460	; 0x1cc
 8001db4:	6011      	str	r1, [r2, #0]
  return result;
 8001db6:	f507 7200 	add.w	r2, r7, #512	; 0x200
 8001dba:	f5a2 72e6 	sub.w	r2, r2, #460	; 0x1cc
 8001dbe:	6812      	ldr	r2, [r2, #0]
 8001dc0:	fab2 f282 	clz	r2, r2
 8001dc4:	b2d2      	uxtb	r2, r2
 8001dc6:	f042 0220 	orr.w	r2, r2, #32
 8001dca:	b2d2      	uxtb	r2, r2
 8001dcc:	f002 021f 	and.w	r2, r2, #31
 8001dd0:	2101      	movs	r1, #1
 8001dd2:	fa01 f202 	lsl.w	r2, r1, r2
 8001dd6:	4013      	ands	r3, r2
 8001dd8:	2b00      	cmp	r3, #0
 8001dda:	d082      	beq.n	8001ce2 <HAL_RCC_OscConfig+0xdce>
 8001ddc:	e0cf      	b.n	8001f7e <HAL_RCC_OscConfig+0x106a>
 8001dde:	f507 7300 	add.w	r3, r7, #512	; 0x200
 8001de2:	f5a3 73e8 	sub.w	r3, r3, #464	; 0x1d0
 8001de6:	f04f 7280 	mov.w	r2, #16777216	; 0x1000000
 8001dea:	601a      	str	r2, [r3, #0]
   __ASM volatile ("rbit %0, %1" : "=r" (result) : "r" (value) );
 8001dec:	f507 7300 	add.w	r3, r7, #512	; 0x200
 8001df0:	f5a3 73e8 	sub.w	r3, r3, #464	; 0x1d0
 8001df4:	681b      	ldr	r3, [r3, #0]
 8001df6:	fa93 f2a3 	rbit	r2, r3
 8001dfa:	f507 7300 	add.w	r3, r7, #512	; 0x200
 8001dfe:	f5a3 73ea 	sub.w	r3, r3, #468	; 0x1d4
 8001e02:	601a      	str	r2, [r3, #0]
  return result;
 8001e04:	f507 7300 	add.w	r3, r7, #512	; 0x200
 8001e08:	f5a3 73ea 	sub.w	r3, r3, #468	; 0x1d4
 8001e0c:	681b      	ldr	r3, [r3, #0]
        }
      }
      else
      {
        /* Disable the main PLL. */
        __HAL_RCC_PLL_DISABLE();
 8001e0e:	fab3 f383 	clz	r3, r3
 8001e12:	b2db      	uxtb	r3, r3
 8001e14:	f103 5384 	add.w	r3, r3, #276824064	; 0x10800000
 8001e18:	f503 1384 	add.w	r3, r3, #1081344	; 0x108000
 8001e1c:	009b      	lsls	r3, r3, #2
 8001e1e:	461a      	mov	r2, r3
 8001e20:	2300      	movs	r3, #0
 8001e22:	6013      	str	r3, [r2, #0]
 
        /* Get Start Tick */
        tickstart = HAL_GetTick();
 8001e24:	f7fe fc50 	bl	80006c8 <HAL_GetTick>
 8001e28:	f8c7 01f8 	str.w	r0, [r7, #504]	; 0x1f8
        
        /* Wait till PLL is disabled */  
        while(__HAL_RCC_GET_FLAG(RCC_FLAG_PLLRDY)  != RESET)
 8001e2c:	e009      	b.n	8001e42 <HAL_RCC_OscConfig+0xf2e>
        {
          if((HAL_GetTick() - tickstart ) > PLL_TIMEOUT_VALUE)
 8001e2e:	f7fe fc4b 	bl	80006c8 <HAL_GetTick>
 8001e32:	4602      	mov	r2, r0
 8001e34:	f8d7 31f8 	ldr.w	r3, [r7, #504]	; 0x1f8
 8001e38:	1ad3      	subs	r3, r2, r3
 8001e3a:	2b02      	cmp	r3, #2
 8001e3c:	d901      	bls.n	8001e42 <HAL_RCC_OscConfig+0xf2e>
          {
            return HAL_TIMEOUT;
 8001e3e:	2303      	movs	r3, #3
 8001e40:	e09e      	b.n	8001f80 <HAL_RCC_OscConfig+0x106c>
 8001e42:	f507 7300 	add.w	r3, r7, #512	; 0x200
 8001e46:	f5a3 73ec 	sub.w	r3, r3, #472	; 0x1d8
 8001e4a:	f04f 7200 	mov.w	r2, #33554432	; 0x2000000
 8001e4e:	601a      	str	r2, [r3, #0]
   __ASM volatile ("rbit %0, %1" : "=r" (result) : "r" (value) );
 8001e50:	f507 7300 	add.w	r3, r7, #512	; 0x200
 8001e54:	f5a3 73ec 	sub.w	r3, r3, #472	; 0x1d8
 8001e58:	681b      	ldr	r3, [r3, #0]
 8001e5a:	fa93 f2a3 	rbit	r2, r3
 8001e5e:	f507 7300 	add.w	r3, r7, #512	; 0x200
 8001e62:	f5a3 73ee 	sub.w	r3, r3, #476	; 0x1dc
 8001e66:	601a      	str	r2, [r3, #0]
  return result;
 8001e68:	f507 7300 	add.w	r3, r7, #512	; 0x200
 8001e6c:	f5a3 73ee 	sub.w	r3, r3, #476	; 0x1dc
 8001e70:	681b      	ldr	r3, [r3, #0]
        while(__HAL_RCC_GET_FLAG(RCC_FLAG_PLLRDY)  != RESET)
 8001e72:	fab3 f383 	clz	r3, r3
 8001e76:	b2db      	uxtb	r3, r3
 8001e78:	095b      	lsrs	r3, r3, #5
 8001e7a:	b2db      	uxtb	r3, r3
 8001e7c:	f043 0301 	orr.w	r3, r3, #1
 8001e80:	b2db      	uxtb	r3, r3
 8001e82:	2b01      	cmp	r3, #1
 8001e84:	d104      	bne.n	8001e90 <HAL_RCC_OscConfig+0xf7c>
 8001e86:	4b01      	ldr	r3, [pc, #4]	; (8001e8c <HAL_RCC_OscConfig+0xf78>)
 8001e88:	681b      	ldr	r3, [r3, #0]
 8001e8a:	e029      	b.n	8001ee0 <HAL_RCC_OscConfig+0xfcc>
 8001e8c:	40021000 	.word	0x40021000
 8001e90:	f507 7300 	add.w	r3, r7, #512	; 0x200
 8001e94:	f5a3 73f0 	sub.w	r3, r3, #480	; 0x1e0
 8001e98:	f04f 7200 	mov.w	r2, #33554432	; 0x2000000
 8001e9c:	601a      	str	r2, [r3, #0]
   __ASM volatile ("rbit %0, %1" : "=r" (result) : "r" (value) );
 8001e9e:	f507 7300 	add.w	r3, r7, #512	; 0x200
 8001ea2:	f5a3 73f0 	sub.w	r3, r3, #480	; 0x1e0
 8001ea6:	681b      	ldr	r3, [r3, #0]
 8001ea8:	fa93 f2a3 	rbit	r2, r3
 8001eac:	f507 7300 	add.w	r3, r7, #512	; 0x200
 8001eb0:	f5a3 73f2 	sub.w	r3, r3, #484	; 0x1e4
 8001eb4:	601a      	str	r2, [r3, #0]
 8001eb6:	f507 7300 	add.w	r3, r7, #512	; 0x200
 8001eba:	f5a3 73f4 	sub.w	r3, r3, #488	; 0x1e8
 8001ebe:	f04f 7200 	mov.w	r2, #33554432	; 0x2000000
 8001ec2:	601a      	str	r2, [r3, #0]
 8001ec4:	f507 7300 	add.w	r3, r7, #512	; 0x200
 8001ec8:	f5a3 73f4 	sub.w	r3, r3, #488	; 0x1e8
 8001ecc:	681b      	ldr	r3, [r3, #0]
 8001ece:	fa93 f2a3 	rbit	r2, r3
 8001ed2:	f507 7300 	add.w	r3, r7, #512	; 0x200
 8001ed6:	f5a3 73f6 	sub.w	r3, r3, #492	; 0x1ec
 8001eda:	601a      	str	r2, [r3, #0]
 8001edc:	4b2b      	ldr	r3, [pc, #172]	; (8001f8c <HAL_RCC_OscConfig+0x1078>)
 8001ede:	6a5b      	ldr	r3, [r3, #36]	; 0x24
 8001ee0:	f507 7200 	add.w	r2, r7, #512	; 0x200
 8001ee4:	f5a2 72f8 	sub.w	r2, r2, #496	; 0x1f0
 8001ee8:	f04f 7100 	mov.w	r1, #33554432	; 0x2000000
 8001eec:	6011      	str	r1, [r2, #0]
 8001eee:	f507 7200 	add.w	r2, r7, #512	; 0x200
 8001ef2:	f5a2 72f8 	sub.w	r2, r2, #496	; 0x1f0
 8001ef6:	6812      	ldr	r2, [r2, #0]
 8001ef8:	fa92 f1a2 	rbit	r1, r2
 8001efc:	f507 7200 	add.w	r2, r7, #512	; 0x200
 8001f00:	f5a2 72fa 	sub.w	r2, r2, #500	; 0x1f4
 8001f04:	6011      	str	r1, [r2, #0]
  return result;
 8001f06:	f507 7200 	add.w	r2, r7, #512	; 0x200
 8001f0a:	f5a2 72fa 	sub.w	r2, r2, #500	; 0x1f4
 8001f0e:	6812      	ldr	r2, [r2, #0]
 8001f10:	fab2 f282 	clz	r2, r2
 8001f14:	b2d2      	uxtb	r2, r2
 8001f16:	f042 0220 	orr.w	r2, r2, #32
 8001f1a:	b2d2      	uxtb	r2, r2
 8001f1c:	f002 021f 	and.w	r2, r2, #31
 8001f20:	2101      	movs	r1, #1
 8001f22:	fa01 f202 	lsl.w	r2, r1, r2
 8001f26:	4013      	ands	r3, r2
 8001f28:	2b00      	cmp	r3, #0
 8001f2a:	d180      	bne.n	8001e2e <HAL_RCC_OscConfig+0xf1a>
 8001f2c:	e027      	b.n	8001f7e <HAL_RCC_OscConfig+0x106a>
      }
    }
    else
    {
      /* Check if there is a request to disable the PLL used as System clock source */
      if((RCC_OscInitStruct->PLL.PLLState) == RCC_PLL_OFF)
 8001f2e:	f507 7300 	add.w	r3, r7, #512	; 0x200
 8001f32:	f5a3 73fe 	sub.w	r3, r3, #508	; 0x1fc
 8001f36:	681b      	ldr	r3, [r3, #0]
 8001f38:	69db      	ldr	r3, [r3, #28]
 8001f3a:	2b01      	cmp	r3, #1
 8001f3c:	d101      	bne.n	8001f42 <HAL_RCC_OscConfig+0x102e>
      {
        return HAL_ERROR;
 8001f3e:	2301      	movs	r3, #1
 8001f40:	e01e      	b.n	8001f80 <HAL_RCC_OscConfig+0x106c>
      }
      else
      {
        /* Do not return HAL_ERROR if request repeats the current configuration */
        pll_config = RCC->CFGR;
 8001f42:	4b12      	ldr	r3, [pc, #72]	; (8001f8c <HAL_RCC_OscConfig+0x1078>)
 8001f44:	685b      	ldr	r3, [r3, #4]
 8001f46:	f8c7 31f4 	str.w	r3, [r7, #500]	; 0x1f4
        pll_config2 = RCC->CFGR2;
        if((READ_BIT(pll_config, RCC_CFGR_PLLSRC)   != RCC_OscInitStruct->PLL.PLLSource) ||      
           (READ_BIT(pll_config, RCC_CFGR_PLLMUL)   != RCC_OscInitStruct->PLL.PLLMUL)    ||      
           (READ_BIT(pll_config2, RCC_CFGR2_PREDIV)  != RCC_OscInitStruct->PLL.PREDIV))     
#else
        if((READ_BIT(pll_config, RCC_CFGR_PLLSRC)   != RCC_OscInitStruct->PLL.PLLSource) ||      
 8001f4a:	f8d7 31f4 	ldr.w	r3, [r7, #500]	; 0x1f4
 8001f4e:	f403 3280 	and.w	r2, r3, #65536	; 0x10000
 8001f52:	f507 7300 	add.w	r3, r7, #512	; 0x200
 8001f56:	f5a3 73fe 	sub.w	r3, r3, #508	; 0x1fc
 8001f5a:	681b      	ldr	r3, [r3, #0]
 8001f5c:	6a1b      	ldr	r3, [r3, #32]
 8001f5e:	429a      	cmp	r2, r3
 8001f60:	d10b      	bne.n	8001f7a <HAL_RCC_OscConfig+0x1066>
           (READ_BIT(pll_config, RCC_CFGR_PLLMUL)   != RCC_OscInitStruct->PLL.PLLMUL))
 8001f62:	f8d7 31f4 	ldr.w	r3, [r7, #500]	; 0x1f4
 8001f66:	f403 1270 	and.w	r2, r3, #3932160	; 0x3c0000
 8001f6a:	f507 7300 	add.w	r3, r7, #512	; 0x200
 8001f6e:	f5a3 73fe 	sub.w	r3, r3, #508	; 0x1fc
 8001f72:	681b      	ldr	r3, [r3, #0]
 8001f74:	6a5b      	ldr	r3, [r3, #36]	; 0x24
        if((READ_BIT(pll_config, RCC_CFGR_PLLSRC)   != RCC_OscInitStruct->PLL.PLLSource) ||      
 8001f76:	429a      	cmp	r2, r3
 8001f78:	d001      	beq.n	8001f7e <HAL_RCC_OscConfig+0x106a>
#endif
        {
          return HAL_ERROR;
 8001f7a:	2301      	movs	r3, #1
 8001f7c:	e000      	b.n	8001f80 <HAL_RCC_OscConfig+0x106c>
        }
      }
    }
  }

  return HAL_OK;
 8001f7e:	2300      	movs	r3, #0
}
 8001f80:	4618      	mov	r0, r3
 8001f82:	f507 7700 	add.w	r7, r7, #512	; 0x200
 8001f86:	46bd      	mov	sp, r7
 8001f88:	bd80      	pop	{r7, pc}
 8001f8a:	bf00      	nop
 8001f8c:	40021000 	.word	0x40021000

08001f90 <HAL_RCC_ClockConfig>:
  *         You can use @ref HAL_RCC_GetClockConfig() function to know which clock is
  *         currently used as system clock source.
  * @retval HAL status
  */
HAL_StatusTypeDef HAL_RCC_ClockConfig(RCC_ClkInitTypeDef  *RCC_ClkInitStruct, uint32_t FLatency)
{
 8001f90:	b580      	push	{r7, lr}
 8001f92:	b09e      	sub	sp, #120	; 0x78
 8001f94:	af00      	add	r7, sp, #0
 8001f96:	6078      	str	r0, [r7, #4]
 8001f98:	6039      	str	r1, [r7, #0]
  uint32_t tickstart = 0U;
 8001f9a:	2300      	movs	r3, #0
 8001f9c:	677b      	str	r3, [r7, #116]	; 0x74

  /* Check Null pointer */
  if(RCC_ClkInitStruct == NULL)
 8001f9e:	687b      	ldr	r3, [r7, #4]
 8001fa0:	2b00      	cmp	r3, #0
 8001fa2:	d101      	bne.n	8001fa8 <HAL_RCC_ClockConfig+0x18>
  {
    return HAL_ERROR;
 8001fa4:	2301      	movs	r3, #1
 8001fa6:	e162      	b.n	800226e <HAL_RCC_ClockConfig+0x2de>
  /* To correctly read data from FLASH memory, the number of wait states (LATENCY) 
  must be correctly programmed according to the frequency of the CPU clock 
    (HCLK) of the device. */

  /* Increasing the number of wait states because of higher CPU frequency */
  if(FLatency > __HAL_FLASH_GET_LATENCY())
 8001fa8:	4b90      	ldr	r3, [pc, #576]	; (80021ec <HAL_RCC_ClockConfig+0x25c>)
 8001faa:	681b      	ldr	r3, [r3, #0]
 8001fac:	f003 0307 	and.w	r3, r3, #7
 8001fb0:	683a      	ldr	r2, [r7, #0]
 8001fb2:	429a      	cmp	r2, r3
 8001fb4:	d910      	bls.n	8001fd8 <HAL_RCC_ClockConfig+0x48>
  {    
    /* Program the new number of wait states to the LATENCY bits in the FLASH_ACR register */
    __HAL_FLASH_SET_LATENCY(FLatency);
 8001fb6:	4b8d      	ldr	r3, [pc, #564]	; (80021ec <HAL_RCC_ClockConfig+0x25c>)
 8001fb8:	681b      	ldr	r3, [r3, #0]
 8001fba:	f023 0207 	bic.w	r2, r3, #7
 8001fbe:	498b      	ldr	r1, [pc, #556]	; (80021ec <HAL_RCC_ClockConfig+0x25c>)
 8001fc0:	683b      	ldr	r3, [r7, #0]
 8001fc2:	4313      	orrs	r3, r2
 8001fc4:	600b      	str	r3, [r1, #0]
    
    /* Check that the new number of wait states is taken into account to access the Flash
    memory by reading the FLASH_ACR register */
    if(__HAL_FLASH_GET_LATENCY() != FLatency)
 8001fc6:	4b89      	ldr	r3, [pc, #548]	; (80021ec <HAL_RCC_ClockConfig+0x25c>)
 8001fc8:	681b      	ldr	r3, [r3, #0]
 8001fca:	f003 0307 	and.w	r3, r3, #7
 8001fce:	683a      	ldr	r2, [r7, #0]
 8001fd0:	429a      	cmp	r2, r3
 8001fd2:	d001      	beq.n	8001fd8 <HAL_RCC_ClockConfig+0x48>
    {
      return HAL_ERROR;
 8001fd4:	2301      	movs	r3, #1
 8001fd6:	e14a      	b.n	800226e <HAL_RCC_ClockConfig+0x2de>
    }
  }

  /*-------------------------- HCLK Configuration --------------------------*/
  if(((RCC_ClkInitStruct->ClockType) & RCC_CLOCKTYPE_HCLK) == RCC_CLOCKTYPE_HCLK)
 8001fd8:	687b      	ldr	r3, [r7, #4]
 8001fda:	681b      	ldr	r3, [r3, #0]
 8001fdc:	f003 0302 	and.w	r3, r3, #2
 8001fe0:	2b00      	cmp	r3, #0
 8001fe2:	d008      	beq.n	8001ff6 <HAL_RCC_ClockConfig+0x66>
  {
    assert_param(IS_RCC_HCLK(RCC_ClkInitStruct->AHBCLKDivider));
    MODIFY_REG(RCC->CFGR, RCC_CFGR_HPRE, RCC_ClkInitStruct->AHBCLKDivider);
 8001fe4:	4b82      	ldr	r3, [pc, #520]	; (80021f0 <HAL_RCC_ClockConfig+0x260>)
 8001fe6:	685b      	ldr	r3, [r3, #4]
 8001fe8:	f023 02f0 	bic.w	r2, r3, #240	; 0xf0
 8001fec:	687b      	ldr	r3, [r7, #4]
 8001fee:	689b      	ldr	r3, [r3, #8]
 8001ff0:	497f      	ldr	r1, [pc, #508]	; (80021f0 <HAL_RCC_ClockConfig+0x260>)
 8001ff2:	4313      	orrs	r3, r2
 8001ff4:	604b      	str	r3, [r1, #4]
  }

  /*------------------------- SYSCLK Configuration ---------------------------*/ 
  if(((RCC_ClkInitStruct->ClockType) & RCC_CLOCKTYPE_SYSCLK) == RCC_CLOCKTYPE_SYSCLK)
 8001ff6:	687b      	ldr	r3, [r7, #4]
 8001ff8:	681b      	ldr	r3, [r3, #0]
 8001ffa:	f003 0301 	and.w	r3, r3, #1
 8001ffe:	2b00      	cmp	r3, #0
 8002000:	f000 80dc 	beq.w	80021bc <HAL_RCC_ClockConfig+0x22c>
  {    
    assert_param(IS_RCC_SYSCLKSOURCE(RCC_ClkInitStruct->SYSCLKSource));
    
    /* HSE is selected as System Clock Source */
    if(RCC_ClkInitStruct->SYSCLKSource == RCC_SYSCLKSOURCE_HSE)
 8002004:	687b      	ldr	r3, [r7, #4]
 8002006:	685b      	ldr	r3, [r3, #4]
 8002008:	2b01      	cmp	r3, #1
 800200a:	d13c      	bne.n	8002086 <HAL_RCC_ClockConfig+0xf6>
 800200c:	f44f 3300 	mov.w	r3, #131072	; 0x20000
 8002010:	673b      	str	r3, [r7, #112]	; 0x70
   __ASM volatile ("rbit %0, %1" : "=r" (result) : "r" (value) );
 8002012:	6f3b      	ldr	r3, [r7, #112]	; 0x70
 8002014:	fa93 f3a3 	rbit	r3, r3
 8002018:	66fb      	str	r3, [r7, #108]	; 0x6c
  return result;
 800201a:	6efb      	ldr	r3, [r7, #108]	; 0x6c
    {
      /* Check the HSE ready flag */  
      if(__HAL_RCC_GET_FLAG(RCC_FLAG_HSERDY) == RESET)
 800201c:	fab3 f383 	clz	r3, r3
 8002020:	b2db      	uxtb	r3, r3
 8002022:	095b      	lsrs	r3, r3, #5
 8002024:	b2db      	uxtb	r3, r3
 8002026:	f043 0301 	orr.w	r3, r3, #1
 800202a:	b2db      	uxtb	r3, r3
 800202c:	2b01      	cmp	r3, #1
 800202e:	d102      	bne.n	8002036 <HAL_RCC_ClockConfig+0xa6>
 8002030:	4b6f      	ldr	r3, [pc, #444]	; (80021f0 <HAL_RCC_ClockConfig+0x260>)
 8002032:	681b      	ldr	r3, [r3, #0]
 8002034:	e00f      	b.n	8002056 <HAL_RCC_ClockConfig+0xc6>
 8002036:	f44f 3300 	mov.w	r3, #131072	; 0x20000
 800203a:	66bb      	str	r3, [r7, #104]	; 0x68
   __ASM volatile ("rbit %0, %1" : "=r" (result) : "r" (value) );
 800203c:	6ebb      	ldr	r3, [r7, #104]	; 0x68
 800203e:	fa93 f3a3 	rbit	r3, r3
 8002042:	667b      	str	r3, [r7, #100]	; 0x64
 8002044:	f44f 3300 	mov.w	r3, #131072	; 0x20000
 8002048:	663b      	str	r3, [r7, #96]	; 0x60
 800204a:	6e3b      	ldr	r3, [r7, #96]	; 0x60
 800204c:	fa93 f3a3 	rbit	r3, r3
 8002050:	65fb      	str	r3, [r7, #92]	; 0x5c
 8002052:	4b67      	ldr	r3, [pc, #412]	; (80021f0 <HAL_RCC_ClockConfig+0x260>)
 8002054:	6a5b      	ldr	r3, [r3, #36]	; 0x24
 8002056:	f44f 3200 	mov.w	r2, #131072	; 0x20000
 800205a:	65ba      	str	r2, [r7, #88]	; 0x58
 800205c:	6dba      	ldr	r2, [r7, #88]	; 0x58
 800205e:	fa92 f2a2 	rbit	r2, r2
 8002062:	657a      	str	r2, [r7, #84]	; 0x54
  return result;
 8002064:	6d7a      	ldr	r2, [r7, #84]	; 0x54
 8002066:	fab2 f282 	clz	r2, r2
 800206a:	b2d2      	uxtb	r2, r2
 800206c:	f042 0220 	orr.w	r2, r2, #32
 8002070:	b2d2      	uxtb	r2, r2
 8002072:	f002 021f 	and.w	r2, r2, #31
 8002076:	2101      	movs	r1, #1
 8002078:	fa01 f202 	lsl.w	r2, r1, r2
 800207c:	4013      	ands	r3, r2
 800207e:	2b00      	cmp	r3, #0
 8002080:	d17b      	bne.n	800217a <HAL_RCC_ClockConfig+0x1ea>
      {
        return HAL_ERROR;
 8002082:	2301      	movs	r3, #1
 8002084:	e0f3      	b.n	800226e <HAL_RCC_ClockConfig+0x2de>
      }
    }
    /* PLL is selected as System Clock Source */
    else if(RCC_ClkInitStruct->SYSCLKSource == RCC_SYSCLKSOURCE_PLLCLK)
 8002086:	687b      	ldr	r3, [r7, #4]
 8002088:	685b      	ldr	r3, [r3, #4]
 800208a:	2b02      	cmp	r3, #2
 800208c:	d13c      	bne.n	8002108 <HAL_RCC_ClockConfig+0x178>
 800208e:	f04f 7300 	mov.w	r3, #33554432	; 0x2000000
 8002092:	653b      	str	r3, [r7, #80]	; 0x50
   __ASM volatile ("rbit %0, %1" : "=r" (result) : "r" (value) );
 8002094:	6d3b      	ldr	r3, [r7, #80]	; 0x50
 8002096:	fa93 f3a3 	rbit	r3, r3
 800209a:	64fb      	str	r3, [r7, #76]	; 0x4c
  return result;
 800209c:	6cfb      	ldr	r3, [r7, #76]	; 0x4c
    {
      /* Check the PLL ready flag */  
      if(__HAL_RCC_GET_FLAG(RCC_FLAG_PLLRDY) == RESET)
 800209e:	fab3 f383 	clz	r3, r3
 80020a2:	b2db      	uxtb	r3, r3
 80020a4:	095b      	lsrs	r3, r3, #5
 80020a6:	b2db      	uxtb	r3, r3
 80020a8:	f043 0301 	orr.w	r3, r3, #1
 80020ac:	b2db      	uxtb	r3, r3
 80020ae:	2b01      	cmp	r3, #1
 80020b0:	d102      	bne.n	80020b8 <HAL_RCC_ClockConfig+0x128>
 80020b2:	4b4f      	ldr	r3, [pc, #316]	; (80021f0 <HAL_RCC_ClockConfig+0x260>)
 80020b4:	681b      	ldr	r3, [r3, #0]
 80020b6:	e00f      	b.n	80020d8 <HAL_RCC_ClockConfig+0x148>
 80020b8:	f04f 7300 	mov.w	r3, #33554432	; 0x2000000
 80020bc:	64bb      	str	r3, [r7, #72]	; 0x48
   __ASM volatile ("rbit %0, %1" : "=r" (result) : "r" (value) );
 80020be:	6cbb      	ldr	r3, [r7, #72]	; 0x48
 80020c0:	fa93 f3a3 	rbit	r3, r3
 80020c4:	647b      	str	r3, [r7, #68]	; 0x44
 80020c6:	f04f 7300 	mov.w	r3, #33554432	; 0x2000000
 80020ca:	643b      	str	r3, [r7, #64]	; 0x40
 80020cc:	6c3b      	ldr	r3, [r7, #64]	; 0x40
 80020ce:	fa93 f3a3 	rbit	r3, r3
 80020d2:	63fb      	str	r3, [r7, #60]	; 0x3c
 80020d4:	4b46      	ldr	r3, [pc, #280]	; (80021f0 <HAL_RCC_ClockConfig+0x260>)
 80020d6:	6a5b      	ldr	r3, [r3, #36]	; 0x24
 80020d8:	f04f 7200 	mov.w	r2, #33554432	; 0x2000000
 80020dc:	63ba      	str	r2, [r7, #56]	; 0x38
 80020de:	6bba      	ldr	r2, [r7, #56]	; 0x38
 80020e0:	fa92 f2a2 	rbit	r2, r2
 80020e4:	637a      	str	r2, [r7, #52]	; 0x34
  return result;
 80020e6:	6b7a      	ldr	r2, [r7, #52]	; 0x34
 80020e8:	fab2 f282 	clz	r2, r2
 80020ec:	b2d2      	uxtb	r2, r2
 80020ee:	f042 0220 	orr.w	r2, r2, #32
 80020f2:	b2d2      	uxtb	r2, r2
 80020f4:	f002 021f 	and.w	r2, r2, #31
 80020f8:	2101      	movs	r1, #1
 80020fa:	fa01 f202 	lsl.w	r2, r1, r2
 80020fe:	4013      	ands	r3, r2
 8002100:	2b00      	cmp	r3, #0
 8002102:	d13a      	bne.n	800217a <HAL_RCC_ClockConfig+0x1ea>
      {
        return HAL_ERROR;
 8002104:	2301      	movs	r3, #1
 8002106:	e0b2      	b.n	800226e <HAL_RCC_ClockConfig+0x2de>
 8002108:	2302      	movs	r3, #2
 800210a:	633b      	str	r3, [r7, #48]	; 0x30
   __ASM volatile ("rbit %0, %1" : "=r" (result) : "r" (value) );
 800210c:	6b3b      	ldr	r3, [r7, #48]	; 0x30
 800210e:	fa93 f3a3 	rbit	r3, r3
 8002112:	62fb      	str	r3, [r7, #44]	; 0x2c
  return result;
 8002114:	6afb      	ldr	r3, [r7, #44]	; 0x2c
    }
    /* HSI is selected as System Clock Source */
    else
    {
      /* Check the HSI ready flag */  
      if(__HAL_RCC_GET_FLAG(RCC_FLAG_HSIRDY) == RESET)
 8002116:	fab3 f383 	clz	r3, r3
 800211a:	b2db      	uxtb	r3, r3
 800211c:	095b      	lsrs	r3, r3, #5
 800211e:	b2db      	uxtb	r3, r3
 8002120:	f043 0301 	orr.w	r3, r3, #1
 8002124:	b2db      	uxtb	r3, r3
 8002126:	2b01      	cmp	r3, #1
 8002128:	d102      	bne.n	8002130 <HAL_RCC_ClockConfig+0x1a0>
 800212a:	4b31      	ldr	r3, [pc, #196]	; (80021f0 <HAL_RCC_ClockConfig+0x260>)
 800212c:	681b      	ldr	r3, [r3, #0]
 800212e:	e00d      	b.n	800214c <HAL_RCC_ClockConfig+0x1bc>
 8002130:	2302      	movs	r3, #2
 8002132:	62bb      	str	r3, [r7, #40]	; 0x28
   __ASM volatile ("rbit %0, %1" : "=r" (result) : "r" (value) );
 8002134:	6abb      	ldr	r3, [r7, #40]	; 0x28
 8002136:	fa93 f3a3 	rbit	r3, r3
 800213a:	627b      	str	r3, [r7, #36]	; 0x24
 800213c:	2302      	movs	r3, #2
 800213e:	623b      	str	r3, [r7, #32]
 8002140:	6a3b      	ldr	r3, [r7, #32]
 8002142:	fa93 f3a3 	rbit	r3, r3
 8002146:	61fb      	str	r3, [r7, #28]
 8002148:	4b29      	ldr	r3, [pc, #164]	; (80021f0 <HAL_RCC_ClockConfig+0x260>)
 800214a:	6a5b      	ldr	r3, [r3, #36]	; 0x24
 800214c:	2202      	movs	r2, #2
 800214e:	61ba      	str	r2, [r7, #24]
 8002150:	69ba      	ldr	r2, [r7, #24]
 8002152:	fa92 f2a2 	rbit	r2, r2
 8002156:	617a      	str	r2, [r7, #20]
  return result;
 8002158:	697a      	ldr	r2, [r7, #20]
 800215a:	fab2 f282 	clz	r2, r2
 800215e:	b2d2      	uxtb	r2, r2
 8002160:	f042 0220 	orr.w	r2, r2, #32
 8002164:	b2d2      	uxtb	r2, r2
 8002166:	f002 021f 	and.w	r2, r2, #31
 800216a:	2101      	movs	r1, #1
 800216c:	fa01 f202 	lsl.w	r2, r1, r2
 8002170:	4013      	ands	r3, r2
 8002172:	2b00      	cmp	r3, #0
 8002174:	d101      	bne.n	800217a <HAL_RCC_ClockConfig+0x1ea>
      {
        return HAL_ERROR;
 8002176:	2301      	movs	r3, #1
 8002178:	e079      	b.n	800226e <HAL_RCC_ClockConfig+0x2de>
      }
    }

    __HAL_RCC_SYSCLK_CONFIG(RCC_ClkInitStruct->SYSCLKSource);
 800217a:	4b1d      	ldr	r3, [pc, #116]	; (80021f0 <HAL_RCC_ClockConfig+0x260>)
 800217c:	685b      	ldr	r3, [r3, #4]
 800217e:	f023 0203 	bic.w	r2, r3, #3
 8002182:	687b      	ldr	r3, [r7, #4]
 8002184:	685b      	ldr	r3, [r3, #4]
 8002186:	491a      	ldr	r1, [pc, #104]	; (80021f0 <HAL_RCC_ClockConfig+0x260>)
 8002188:	4313      	orrs	r3, r2
 800218a:	604b      	str	r3, [r1, #4]

    /* Get Start Tick */
    tickstart = HAL_GetTick();
 800218c:	f7fe fa9c 	bl	80006c8 <HAL_GetTick>
 8002190:	6778      	str	r0, [r7, #116]	; 0x74
    
    while (__HAL_RCC_GET_SYSCLK_SOURCE() != (RCC_ClkInitStruct->SYSCLKSource << RCC_CFGR_SWS_Pos))
 8002192:	e00a      	b.n	80021aa <HAL_RCC_ClockConfig+0x21a>
    {
      if ((HAL_GetTick() - tickstart) > CLOCKSWITCH_TIMEOUT_VALUE)
 8002194:	f7fe fa98 	bl	80006c8 <HAL_GetTick>
 8002198:	4602      	mov	r2, r0
 800219a:	6f7b      	ldr	r3, [r7, #116]	; 0x74
 800219c:	1ad3      	subs	r3, r2, r3
 800219e:	f241 3288 	movw	r2, #5000	; 0x1388
 80021a2:	4293      	cmp	r3, r2
 80021a4:	d901      	bls.n	80021aa <HAL_RCC_ClockConfig+0x21a>
      {
        return HAL_TIMEOUT;
 80021a6:	2303      	movs	r3, #3
 80021a8:	e061      	b.n	800226e <HAL_RCC_ClockConfig+0x2de>
    while (__HAL_RCC_GET_SYSCLK_SOURCE() != (RCC_ClkInitStruct->SYSCLKSource << RCC_CFGR_SWS_Pos))
 80021aa:	4b11      	ldr	r3, [pc, #68]	; (80021f0 <HAL_RCC_ClockConfig+0x260>)
 80021ac:	685b      	ldr	r3, [r3, #4]
 80021ae:	f003 020c 	and.w	r2, r3, #12
 80021b2:	687b      	ldr	r3, [r7, #4]
 80021b4:	685b      	ldr	r3, [r3, #4]
 80021b6:	009b      	lsls	r3, r3, #2
 80021b8:	429a      	cmp	r2, r3
 80021ba:	d1eb      	bne.n	8002194 <HAL_RCC_ClockConfig+0x204>
      }
    }
  }
  /* Decreasing the number of wait states because of lower CPU frequency */
  if(FLatency < __HAL_FLASH_GET_LATENCY())
 80021bc:	4b0b      	ldr	r3, [pc, #44]	; (80021ec <HAL_RCC_ClockConfig+0x25c>)
 80021be:	681b      	ldr	r3, [r3, #0]
 80021c0:	f003 0307 	and.w	r3, r3, #7
 80021c4:	683a      	ldr	r2, [r7, #0]
 80021c6:	429a      	cmp	r2, r3
 80021c8:	d214      	bcs.n	80021f4 <HAL_RCC_ClockConfig+0x264>
  {    
    /* Program the new number of wait states to the LATENCY bits in the FLASH_ACR register */
    __HAL_FLASH_SET_LATENCY(FLatency);
 80021ca:	4b08      	ldr	r3, [pc, #32]	; (80021ec <HAL_RCC_ClockConfig+0x25c>)
 80021cc:	681b      	ldr	r3, [r3, #0]
 80021ce:	f023 0207 	bic.w	r2, r3, #7
 80021d2:	4906      	ldr	r1, [pc, #24]	; (80021ec <HAL_RCC_ClockConfig+0x25c>)
 80021d4:	683b      	ldr	r3, [r7, #0]
 80021d6:	4313      	orrs	r3, r2
 80021d8:	600b      	str	r3, [r1, #0]
    
    /* Check that the new number of wait states is taken into account to access the Flash
    memory by reading the FLASH_ACR register */
    if(__HAL_FLASH_GET_LATENCY() != FLatency)
 80021da:	4b04      	ldr	r3, [pc, #16]	; (80021ec <HAL_RCC_ClockConfig+0x25c>)
 80021dc:	681b      	ldr	r3, [r3, #0]
 80021de:	f003 0307 	and.w	r3, r3, #7
 80021e2:	683a      	ldr	r2, [r7, #0]
 80021e4:	429a      	cmp	r2, r3
 80021e6:	d005      	beq.n	80021f4 <HAL_RCC_ClockConfig+0x264>
    {
      return HAL_ERROR;
 80021e8:	2301      	movs	r3, #1
 80021ea:	e040      	b.n	800226e <HAL_RCC_ClockConfig+0x2de>
 80021ec:	40022000 	.word	0x40022000
 80021f0:	40021000 	.word	0x40021000
    }
  }    

  /*-------------------------- PCLK1 Configuration ---------------------------*/ 
  if(((RCC_ClkInitStruct->ClockType) & RCC_CLOCKTYPE_PCLK1) == RCC_CLOCKTYPE_PCLK1)
 80021f4:	687b      	ldr	r3, [r7, #4]
 80021f6:	681b      	ldr	r3, [r3, #0]
 80021f8:	f003 0304 	and.w	r3, r3, #4
 80021fc:	2b00      	cmp	r3, #0
 80021fe:	d008      	beq.n	8002212 <HAL_RCC_ClockConfig+0x282>
  {
    assert_param(IS_RCC_PCLK(RCC_ClkInitStruct->APB1CLKDivider));
    MODIFY_REG(RCC->CFGR, RCC_CFGR_PPRE1, RCC_ClkInitStruct->APB1CLKDivider);
 8002200:	4b1d      	ldr	r3, [pc, #116]	; (8002278 <HAL_RCC_ClockConfig+0x2e8>)
 8002202:	685b      	ldr	r3, [r3, #4]
 8002204:	f423 62e0 	bic.w	r2, r3, #1792	; 0x700
 8002208:	687b      	ldr	r3, [r7, #4]
 800220a:	68db      	ldr	r3, [r3, #12]
 800220c:	491a      	ldr	r1, [pc, #104]	; (8002278 <HAL_RCC_ClockConfig+0x2e8>)
 800220e:	4313      	orrs	r3, r2
 8002210:	604b      	str	r3, [r1, #4]
  }
  
  /*-------------------------- PCLK2 Configuration ---------------------------*/ 
  if(((RCC_ClkInitStruct->ClockType) & RCC_CLOCKTYPE_PCLK2) == RCC_CLOCKTYPE_PCLK2)
 8002212:	687b      	ldr	r3, [r7, #4]
 8002214:	681b      	ldr	r3, [r3, #0]
 8002216:	f003 0308 	and.w	r3, r3, #8
 800221a:	2b00      	cmp	r3, #0
 800221c:	d009      	beq.n	8002232 <HAL_RCC_ClockConfig+0x2a2>
  {
    assert_param(IS_RCC_PCLK(RCC_ClkInitStruct->APB2CLKDivider));
    MODIFY_REG(RCC->CFGR, RCC_CFGR_PPRE2, ((RCC_ClkInitStruct->APB2CLKDivider) << 3U));
 800221e:	4b16      	ldr	r3, [pc, #88]	; (8002278 <HAL_RCC_ClockConfig+0x2e8>)
 8002220:	685b      	ldr	r3, [r3, #4]
 8002222:	f423 5260 	bic.w	r2, r3, #14336	; 0x3800
 8002226:	687b      	ldr	r3, [r7, #4]
 8002228:	691b      	ldr	r3, [r3, #16]
 800222a:	00db      	lsls	r3, r3, #3
 800222c:	4912      	ldr	r1, [pc, #72]	; (8002278 <HAL_RCC_ClockConfig+0x2e8>)
 800222e:	4313      	orrs	r3, r2
 8002230:	604b      	str	r3, [r1, #4]
  }
 
  /* Update the SystemCoreClock global variable */
  SystemCoreClock = HAL_RCC_GetSysClockFreq() >> AHBPrescTable[(RCC->CFGR & RCC_CFGR_HPRE)>> RCC_CFGR_HPRE_BITNUMBER];
 8002232:	f000 f829 	bl	8002288 <HAL_RCC_GetSysClockFreq>
 8002236:	4601      	mov	r1, r0
 8002238:	4b0f      	ldr	r3, [pc, #60]	; (8002278 <HAL_RCC_ClockConfig+0x2e8>)
 800223a:	685b      	ldr	r3, [r3, #4]
 800223c:	f003 03f0 	and.w	r3, r3, #240	; 0xf0
 8002240:	22f0      	movs	r2, #240	; 0xf0
 8002242:	613a      	str	r2, [r7, #16]
   __ASM volatile ("rbit %0, %1" : "=r" (result) : "r" (value) );
 8002244:	693a      	ldr	r2, [r7, #16]
 8002246:	fa92 f2a2 	rbit	r2, r2
 800224a:	60fa      	str	r2, [r7, #12]
  return result;
 800224c:	68fa      	ldr	r2, [r7, #12]
 800224e:	fab2 f282 	clz	r2, r2
 8002252:	b2d2      	uxtb	r2, r2
 8002254:	40d3      	lsrs	r3, r2
 8002256:	4a09      	ldr	r2, [pc, #36]	; (800227c <HAL_RCC_ClockConfig+0x2ec>)
 8002258:	5cd3      	ldrb	r3, [r2, r3]
 800225a:	fa21 f303 	lsr.w	r3, r1, r3
 800225e:	4a08      	ldr	r2, [pc, #32]	; (8002280 <HAL_RCC_ClockConfig+0x2f0>)
 8002260:	6013      	str	r3, [r2, #0]

  /* Configure the source of time base considering new system clocks settings*/
  HAL_InitTick (uwTickPrio);
 8002262:	4b08      	ldr	r3, [pc, #32]	; (8002284 <HAL_RCC_ClockConfig+0x2f4>)
 8002264:	681b      	ldr	r3, [r3, #0]
 8002266:	4618      	mov	r0, r3
 8002268:	f7fe f9ea 	bl	8000640 <HAL_InitTick>
  
  return HAL_OK;
 800226c:	2300      	movs	r3, #0
}
 800226e:	4618      	mov	r0, r3
 8002270:	3778      	adds	r7, #120	; 0x78
 8002272:	46bd      	mov	sp, r7
 8002274:	bd80      	pop	{r7, pc}
 8002276:	bf00      	nop
 8002278:	40021000 	.word	0x40021000
 800227c:	080031a8 	.word	0x080031a8
 8002280:	20000000 	.word	0x20000000
 8002284:	20000004 	.word	0x20000004

08002288 <HAL_RCC_GetSysClockFreq>:
  *         right SYSCLK value. Otherwise, any configuration based on this function will be incorrect.
  *         
  * @retval SYSCLK frequency
  */
uint32_t HAL_RCC_GetSysClockFreq(void)
{
 8002288:	b480      	push	{r7}
 800228a:	b08b      	sub	sp, #44	; 0x2c
 800228c:	af00      	add	r7, sp, #0
  uint32_t tmpreg = 0U, prediv = 0U, pllclk = 0U, pllmul = 0U;
 800228e:	2300      	movs	r3, #0
 8002290:	61fb      	str	r3, [r7, #28]
 8002292:	2300      	movs	r3, #0
 8002294:	61bb      	str	r3, [r7, #24]
 8002296:	2300      	movs	r3, #0
 8002298:	627b      	str	r3, [r7, #36]	; 0x24
 800229a:	2300      	movs	r3, #0
 800229c:	617b      	str	r3, [r7, #20]
  uint32_t sysclockfreq = 0U;
 800229e:	2300      	movs	r3, #0
 80022a0:	623b      	str	r3, [r7, #32]
  
  tmpreg = RCC->CFGR;
 80022a2:	4b29      	ldr	r3, [pc, #164]	; (8002348 <HAL_RCC_GetSysClockFreq+0xc0>)
 80022a4:	685b      	ldr	r3, [r3, #4]
 80022a6:	61fb      	str	r3, [r7, #28]
  
  /* Get SYSCLK source -------------------------------------------------------*/
  switch (tmpreg & RCC_CFGR_SWS)
 80022a8:	69fb      	ldr	r3, [r7, #28]
 80022aa:	f003 030c 	and.w	r3, r3, #12
 80022ae:	2b04      	cmp	r3, #4
 80022b0:	d002      	beq.n	80022b8 <HAL_RCC_GetSysClockFreq+0x30>
 80022b2:	2b08      	cmp	r3, #8
 80022b4:	d003      	beq.n	80022be <HAL_RCC_GetSysClockFreq+0x36>
 80022b6:	e03c      	b.n	8002332 <HAL_RCC_GetSysClockFreq+0xaa>
  {
    case RCC_SYSCLKSOURCE_STATUS_HSE:  /* HSE used as system clock */
    {
      sysclockfreq = HSE_VALUE;
 80022b8:	4b24      	ldr	r3, [pc, #144]	; (800234c <HAL_RCC_GetSysClockFreq+0xc4>)
 80022ba:	623b      	str	r3, [r7, #32]
      break;
 80022bc:	e03c      	b.n	8002338 <HAL_RCC_GetSysClockFreq+0xb0>
    }
    case RCC_SYSCLKSOURCE_STATUS_PLLCLK:  /* PLL used as system clock */
    {
      pllmul = aPLLMULFactorTable[(uint32_t)(tmpreg & RCC_CFGR_PLLMUL) >> POSITION_VAL(RCC_CFGR_PLLMUL)];
 80022be:	69fb      	ldr	r3, [r7, #28]
 80022c0:	f403 1370 	and.w	r3, r3, #3932160	; 0x3c0000
 80022c4:	f44f 1270 	mov.w	r2, #3932160	; 0x3c0000
 80022c8:	60ba      	str	r2, [r7, #8]
   __ASM volatile ("rbit %0, %1" : "=r" (result) : "r" (value) );
 80022ca:	68ba      	ldr	r2, [r7, #8]
 80022cc:	fa92 f2a2 	rbit	r2, r2
 80022d0:	607a      	str	r2, [r7, #4]
  return result;
 80022d2:	687a      	ldr	r2, [r7, #4]
 80022d4:	fab2 f282 	clz	r2, r2
 80022d8:	b2d2      	uxtb	r2, r2
 80022da:	40d3      	lsrs	r3, r2
 80022dc:	4a1c      	ldr	r2, [pc, #112]	; (8002350 <HAL_RCC_GetSysClockFreq+0xc8>)
 80022de:	5cd3      	ldrb	r3, [r2, r3]
 80022e0:	617b      	str	r3, [r7, #20]
      prediv = aPredivFactorTable[(uint32_t)(RCC->CFGR2 & RCC_CFGR2_PREDIV) >> POSITION_VAL(RCC_CFGR2_PREDIV)];
 80022e2:	4b19      	ldr	r3, [pc, #100]	; (8002348 <HAL_RCC_GetSysClockFreq+0xc0>)
 80022e4:	6adb      	ldr	r3, [r3, #44]	; 0x2c
 80022e6:	f003 030f 	and.w	r3, r3, #15
 80022ea:	220f      	movs	r2, #15
 80022ec:	613a      	str	r2, [r7, #16]
   __ASM volatile ("rbit %0, %1" : "=r" (result) : "r" (value) );
 80022ee:	693a      	ldr	r2, [r7, #16]
 80022f0:	fa92 f2a2 	rbit	r2, r2
 80022f4:	60fa      	str	r2, [r7, #12]
  return result;
 80022f6:	68fa      	ldr	r2, [r7, #12]
 80022f8:	fab2 f282 	clz	r2, r2
 80022fc:	b2d2      	uxtb	r2, r2
 80022fe:	40d3      	lsrs	r3, r2
 8002300:	4a14      	ldr	r2, [pc, #80]	; (8002354 <HAL_RCC_GetSysClockFreq+0xcc>)
 8002302:	5cd3      	ldrb	r3, [r2, r3]
 8002304:	61bb      	str	r3, [r7, #24]
#if defined(RCC_CFGR_PLLSRC_HSI_DIV2)
      if ((tmpreg & RCC_CFGR_PLLSRC) != RCC_PLLSOURCE_HSI)
 8002306:	69fb      	ldr	r3, [r7, #28]
 8002308:	f403 3380 	and.w	r3, r3, #65536	; 0x10000
 800230c:	2b00      	cmp	r3, #0
 800230e:	d008      	beq.n	8002322 <HAL_RCC_GetSysClockFreq+0x9a>
      {
        /* HSE used as PLL clock source : PLLCLK = HSE/PREDIV * PLLMUL */
        pllclk = (uint32_t)((uint64_t) HSE_VALUE / (uint64_t) (prediv)) * ((uint64_t) pllmul);
 8002310:	4a0e      	ldr	r2, [pc, #56]	; (800234c <HAL_RCC_GetSysClockFreq+0xc4>)
 8002312:	69bb      	ldr	r3, [r7, #24]
 8002314:	fbb2 f2f3 	udiv	r2, r2, r3
 8002318:	697b      	ldr	r3, [r7, #20]
 800231a:	fb02 f303 	mul.w	r3, r2, r3
 800231e:	627b      	str	r3, [r7, #36]	; 0x24
 8002320:	e004      	b.n	800232c <HAL_RCC_GetSysClockFreq+0xa4>
      }
      else
      {
        /* HSI used as PLL clock source : PLLCLK = HSI/2 * PLLMUL */
        pllclk = (uint32_t)((uint64_t) (HSI_VALUE >> 1U) * ((uint64_t) pllmul));
 8002322:	697b      	ldr	r3, [r7, #20]
 8002324:	4a0c      	ldr	r2, [pc, #48]	; (8002358 <HAL_RCC_GetSysClockFreq+0xd0>)
 8002326:	fb02 f303 	mul.w	r3, r2, r3
 800232a:	627b      	str	r3, [r7, #36]	; 0x24
      {
        /* HSI used as PLL clock source : PLLCLK = HSI/PREDIV * PLLMUL */
        pllclk = (uint32_t)((uint64_t) HSI_VALUE / (uint64_t) (prediv)) * ((uint64_t) pllmul);
      }
#endif /* RCC_CFGR_PLLSRC_HSI_DIV2 */
      sysclockfreq = pllclk;
 800232c:	6a7b      	ldr	r3, [r7, #36]	; 0x24
 800232e:	623b      	str	r3, [r7, #32]
      break;
 8002330:	e002      	b.n	8002338 <HAL_RCC_GetSysClockFreq+0xb0>
    }
    case RCC_SYSCLKSOURCE_STATUS_HSI:  /* HSI used as system clock source */
    default: /* HSI used as system clock */
    {
      sysclockfreq = HSI_VALUE;
 8002332:	4b06      	ldr	r3, [pc, #24]	; (800234c <HAL_RCC_GetSysClockFreq+0xc4>)
 8002334:	623b      	str	r3, [r7, #32]
      break;
 8002336:	bf00      	nop
    }
  }
  return sysclockfreq;
 8002338:	6a3b      	ldr	r3, [r7, #32]
}
 800233a:	4618      	mov	r0, r3
 800233c:	372c      	adds	r7, #44	; 0x2c
 800233e:	46bd      	mov	sp, r7
 8002340:	f85d 7b04 	ldr.w	r7, [sp], #4
 8002344:	4770      	bx	lr
 8002346:	bf00      	nop
 8002348:	40021000 	.word	0x40021000
